S00C00006D61696E2E7372656373
S31508000000000001201D02000881030008890300087A
S31508000010E9020008790300087903000800000000D7
S31508000020000000000000000000000000790300083E
S315080000307903000800000000790300087903000826
S315080000407903000879030008790300087903000892
S315080000507903000879030008790300087903000882
S315080000607903000879030008790300087903000872
S315080000707903000879030008790300087903000862
S315080000807903000879030008790300087903000852
S315080000907903000879030008790300087903000842
S315080000A07903000879030008790300087903000832
S315080000B07903000879030008790300087903000822
S315080000C07903000879030008790300087903000812
S315080000D07903000879030008790300087903000802
S315080000E07903000879030008790300080000000076
S315080000F000000000000000000000000000000000F2
S3150800010000000000000000007903000879030008D9
S3150800011079030008790300087903000879030008C1
S3150800012079030008790300087903000879030008B1
S3150800013079030008790300087903000879030008A1
S315080001407903000879030008790300087903000891
S315080001500000000000000000000000000000000091
S315080001600000000000000000000000000000000081
S315080001700000000000000000000000000000000071
S315080001800000000000000000000000000000000061
S315080001900000000000000000000000000000000051
S315080001A00000000000000000000000000000000041
S315080001B00000000000000000000000000000000031
S315080001C00000000000000000000000000000000021
S315080001D00000000000000000000000000000000011
S309080001E05FF8E0F1E5
S315080001E880B500AF41F64073C2F200034FF0010232
S315080001F81A6000BF41F64073C2F200031B68002B61
S31508000208F8D100F0C1F8024641F64073C2F200037D
S315080002181A60FEE7684620F007018D4681B583B067
S3150800022800AF00F01DF84EF61453CEF200037B60BB
S315080002387B684FF404721A604EF62453CEF2000314
S315080002483B603B684FF4E0221A6040F20003C2F2B2
S3150800025800034FF06E021A60FFF7C2FFFEE700BF01
S3150800026880B483B000AF40F2B033C0F600037B60B9
S3150800027840F20003C2F200033B607A683B689A4280
S3150800028813D00BE07B681A683B681A603B6803F171
S3150800029804033B607B6803F104037B603A6841F614
S315080002A84073C2F200039A42ECD341F64073C2F295
S315080002B800033B6007E03B684FF000021A603B68A2
S315080002C803F104033B603A6841F64073C2F200033F
S315080002D89A42F0D307F10C07BD4680BC704700BFA9
S315080002E890B484B000AF40F21002CCF2000240F29B
S315080002F80003CCF20003D31A4FEAA3037B6041F646
S315080003084073C2F20003BB6040F2A033C0F6000394
S31508000318FB600BE0FB681A68BB681A60FB6803F1A8
S315080003280403FB60BB6803F10403BB607B684FEA00
S31508000338830240F2A033C0F60003D218FB689A423B
S31508000348E8D21EF0040F0CBFEFF30880EFF309801C
S315080003580446BC60BB6803F1300241F64073C2F23A
S315080003680003136007F11007BD4690BC704700BF2D
S3150800037880B400AF00BFFDE780B400AF00BFFDE75B
S3150800038880B400AF00BFFDE701B40248844601BC4B
S30D08000398604700BF010000C028
S315080003A080B400AF4FF003031846BD4680BC7047C3
S315080003B00000000000000000000000080000000027
S315080003C0E801000800000000000000C0000000006E
S315080003D000000020000000000400002000000000CB
S315080003E01C02000800000000640000000000000075
S315080003F010000000000000003C00000000000000A3
S3150800040081030008100000008003000800000000B7
S315080004108C03000800000000100000C00000000067
S3150800042069030008080000007903000808000000B6
S31508000430A00300080000000071030008080000007F
S315080004409003000800000000010000C01000000032
S315080004501D0200083C00000000010000000000002A
S31508000460590200087E000000D90200088E0000002C
S31508000470E901000834000000000400000000000044
S3150800048000FC00200000000004010020000000001D
S31508000490000001200000000000000000000000002D
S315080004A0000000000000000000000000000000003E
S315080004B0000000000000000000000000000000002E
S315080004C0000000000000000000000000000000001E
S315080004D0000000000000000000000000000000000E
S705080001E809
