:020000040800F2
:10000000000400204D6101089D330008A933000859
:10001000B1330008B9330008C13300080000000004
:10002000000000000000000000000000296300083C
:10003000C93300080000000035640008716400083E
:10004000A7610108A7610108A7610108A76101086C
:10005000A7610108A7610108A7610108A76101085C
:10006000A7610108A7610108A7610108A76101084C
:10007000A7610108A7610108A7610108A76101083C
:10008000A7610108A7610108A7610108A76101082C
:10009000A7610108A7610108A7610108A76101081C
:1000A000A7610108A7610108A7610108A76101080C
:1000B000A12A0008A7610108A7610108A76101083A
:1000C000A7610108A7610108A7610108A7610108EC
:1000D000A76101086D450008A7610108A761010833
:1000E000A7610108A7610108A7610108A7610108CC
:1000F000A7610108A7610108A7610108A7610108BC
:10010000A7610108A7610108A7610108A7610108AB
:10011000A7610108A7610108A7610108A76101089B
:10012000A7610108A7610108A7610108A76101088B
:1001300000000000000000000000000000000000BF
:1001400000000000000000000000000000000000AF
:10015000000000000000000000000000000000009F
:10016000000000000000000000000000000000008F
:10017000000000000000000000000000000000007F
:10018000000000000000000000000000000000006F
:10019000000000000000000000000000000000005F
:1001A000000000000000000000000000000000004F
:1001B000000000000000000000000000000000003F
:1001C000000000000000000000000000000000002F
:1001D000000000000000000000000000000000001F
:0401E0005FF8E0F1F3
:1001E80010B5054C237833B9044B13B1044800E02B
:1001F80000BF0123237010BDD806002000000000B6
:10020800E85E0208064B10B51BB10648064900E037
:1002180000BF0648036813B1054B03B1984710BDEA
:1002280000000000E85E0208DC060020D00600207E
:10023800000000004FF0160030A1ABBE2F48D0F8E8
:1002480008D0D0F80CA00AF5807A4FF000018B4650
:100258000F462B482B4AA2EB00021CF0A1FC02F02F
:100268006FFC4FF0150029A1ABBE28494FF00000E4
:1002780001B40B7801F10101002B1BD0202BF8D021
:10028800222B01D0272B01D11A4603E04FF0200280
:10029800A1F1010102B400F101000B7801F10101A3
:1002A800002B07D09A42F8D14FF00002A1F10103C8
:1002B8001A70DEE7694602464FEA82026A446B46D4
:1002C8009A4208D9A2F1040214681D6815601C60DE
:1002D80003F10403F4E76C464FF0070524EA05042C
:1002E800A54604460D4608481CF0ECFB1CF014FC1F
:1002F8002046294603F044FB1CF0ECFB04000020D8
:10030800D8060020D04D0020F9CA010814000020AA
:10031800FF0000005CF8020800000020D006002062
:10032800D8060020D04D002081F0004102E0C046F0
:1003380083F0004330B54FEA41044FEA430594EA9D
:10034800050F08BF90EA020F1FBF54EA000C55EAD8
:10035800020C7FEA645C7FEA655C00F0E2804FEAA9
:100368005454D4EB5555B8BF6D420CDD2C4480EA8B
:10037800020281EA030382EA000083EA010180EABB
:10038800020281EA0303362D88BF30BD11F0004F09
:100398004FEA01314FF4801C4CEA113102D040423F
:1003A80061EB410113F0004F4FEA03334CEA13337A
:1003B80002D0524263EB430394EA050F00F0A78092
:1003C800A4F10104D5F1200E0DDB02FA0EFC22FA8D
:1003D80005F2801841F1000103FA0EF2801843FA81
:1003E80005F359410EE0A5F120050EF1200E012A72
:1003F80003FA0EFC28BF4CF0020C43FA05F3C018B0
:1004080051EBE37101F0004507D54FF0000EDCF128
:10041800000C7EEB00006EEB0101B1F5801F1BD3D1
:10042800B1F5001F0CD349085FEA30004FEA3C0CD5
:1004380004F101044FEA445212F5800F80F09A80CB
:10044800BCF1004F08BF5FEA500C50F1000041EBCF
:10045800045141EA050130BD5FEA4C0C404141EBD3
:10046800010111F4801FA4F10104E9D191F0000FFA
:1004780004BF01460020B1FA81F308BF2033A3F17D
:100488000B03B3F120020CDA0C3208DD02F1140C74
:10049800C2F10C0201FA0CF021FA02F10CE002F1AF
:1004A8001402D8BFC2F1200C01FA02F120FA0CFCA8
:1004B800DCBF41EA0C019040E41AA2BF01EB0451F1
:1004C800294330BD6FEA04041F3C1CDA0C340EDCEF
:1004D80004F11404C4F1200220FA04F001FA02F332
:1004E80040EA030021FA04F345EA030130BDC4F1F0
:1004F8000C04C4F1200220FA02F001FA04F340EAE5
:100508000300294630BD21FA04F0294630BD94F095
:10051800000F83F4801306BF81F480110134013D7C
:100528004EE77FEA645C18BF7FEA655C29D094EAED
:10053800050F08BF90EA020F05D054EA000C04BF6B
:100548001946104630BD91EA030F1EBF0021002056
:1005580030BD5FEA545C05D14000494128BF41F0F5
:10056800004130BD14F580043CBF01F5801130BD59
:1005780001F0004545F0FE4141F470014FF00000E4
:1005880030BD7FEA645C1ABF194610467FEA655C95
:100598001CBF0B46024650EA013406BF52EA033537
:1005A80091EA030F41F4002130BDC04690F0000FDE
:1005B80004BF0021704730B54FF4806404F1320461
:1005C8004FF000054FF0000150E7C04690F0000FD3
:1005D80004BF0021704730B54FF4806404F1320441
:1005E80010F0004548BF40424FF000013EE7C046CA
:1005F80042004FEAE2014FEA31014FEA02701FBFA1
:1006080012F07F4393F07F4F81F06051704792F072
:10061800000F14BF93F07F4F704730B54FF46074EC
:1006280001F0004521F0004120E7C04650EA0102F0
:1006380008BF704730B54FF000050AE050EA0102E4
:1006480008BF704730B511F0004502D5404261EB54
:1006580041014FF4806404F132045FEA915C3FF495
:10066800DCAE4FF003025FEADC0C18BF03325FEA2E
:10067800DC0C18BF033202EBDC02C2F1200300FAE3
:1006880003FC20FA02F001FA03FE40EA0E0021FA08
:1006980002F11444C1E6C04670B54FF0FF0C4CF4AB
:1006A800E06C1CEA11541DBF1CEA135594EA0C0FA8
:1006B80095EA0C0F00F0DEF82C4481EA030621EAE3
:1006C8004C5123EA4C5350EA013518BF52EA03351E
:1006D80041F4801143F4801338D0A0FB02CE4FF0D0
:1006E8000005E1FB02E506F00042E0FB03E54FF000
:1006F8000006E1FB03569CF0000F18BF4EF0010EF8
:10070800A4F1FF04B6F5007F64F5407404D25FEAF3
:100718004E0E6D4146EB060642EAC62141EA5551A6
:100728004FEAC52040EA5E504FEACE2EB4F1FD0CE8
:1007380088BFBCF5E06F1ED8BEF1004F08BF5FEA66
:10074800500E50F1000041EB045170BD06F0004618
:1007580046EA010140EA020081EA0301B4EB5C04C5
:10076800C2BFD4EB0C0541EA045170BD41F48011BD
:100778004FF0000E013C00F3AB8014F1360FDEBFE2
:10078800002001F0004170BDC4F10004203C35DABE
:100798000C341BDC04F11404C4F1200500FA05F341
:1007A80020FA04F001FA05F240EA020001F00042E2
:1007B80021F0004110EBD37021FA04F642EB060158
:1007C8005EEA430E08BF20EAD37070BDC4F10C0482
:1007D800C4F1200500FA04F320FA05F001FA04F246
:1007E80040EA020001F0004110EBD37041F1000132
:1007F8005EEA430E08BF20EAD37070BDC4F120053D
:1008080000FA05F24EEA020E20FA04F301FA05F2A4
:1008180043EA020321FA04F001F0004121FA04F24C
:1008280020EA020000EBD3705EEA430E08BF20EA1C
:10083800D37070BD94F0000F0FD101F00046400056
:1008480041EB010111F4801F08BF013CF7D041EAD8
:10085800060195F0000F18BF704703F000465200DC
:1008680043EB030313F4801F08BF013DF7D043EAAD
:100878000603704794EA0C0F0CEA135518BF95EA63
:100888000C0F0CD050EA410618BF52EA4306D1D1EA
:1008980081EA030101F000414FF0000070BD50EA09
:1008A800410606BF1046194652EA430619D094EA93
:1008B8000C0F02D150EA013613D195EA0C0F05D17D
:1008C80052EA03361CBF104619460AD181EA0301D1
:1008D80001F0004141F0FE4141F470014FF0000089
:1008E80070BD41F0FE4141F4780170BD70B54FF024
:1008F800FF0C4CF4E06C1CEA11541DBF1CEA1355A4
:1009080094EA0C0F95EA0C0F00F0A7F8A4EB050485
:1009180081EA030E52EA03354FEA013100F088807C
:100928004FEA03334FF0805545EA131343EA126345
:100938004FEA022245EA111545EA10654FEA0026FA
:100948000EF000419D4208BF964244F1FD0404F5B3
:10095800407402D25B084FEA3202B61A65EB03050F
:100968005B084FEA32024FF480104FF4002CB6EBCC
:10097800020E75EB030E22BFB61A754640EA0C004C
:100988005B084FEA3202B6EB020E75EB030E22BF8C
:10099800B61A754640EA5C005B084FEA3202B6EBCD
:1009A800020E75EB030E22BFB61A754640EA9C008C
:1009B8005B084FEA3202B6EB020E75EB030E22BF5C
:1009C800B61A754640EADC0055EA060E18D04FEA1A
:1009D800051545EA16754FEA06164FEAC30343EABA
:1009E80052734FEAC2025FEA1C1CC0D111F4801F87
:1009F8000BD141EA00014FF000004FF0004CB6E780
:100A080011F4801F04BF01430020B4F1FD0C88BF1E
:100A1800BCF5E06F3FF6AFAEB5EB030C04BFB6EB29
:100A2800020C5FEA500C50F1000041EB045170BD1C
:100A38000EF0004E4EEA113114EB5C04C2BFD4EB49
:100A48000C0541EA045170BD41F480114FF0000ECD
:100A5800013C90E645EA060E8DE60CEA135594EA49
:100A68000C0F08BF95EA0C0F3FF43BAF94EA0C0F4C
:100A78000AD150EA01347FF434AF95EA0C0F7FF4C1
:100A880025AF104619462CE795EA0C0F06D152EA15
:100A980003353FF4FDAE1046194622E750EA4106F9
:100AA80018BF52EA43067FF4C5AE50EA41047FF40A
:100AB8000DAF52EA43057FF4EBAE12E74FF0FF3C6F
:100AC80006E0C0464FF0010C02E0C0464FF0010CB2
:100AD8004DF804CC4FEA410C7FEA6C5C4FEA430CBA
:100AE80018BF7FEA6C5C1AD050EA410C0CBF52EA7E
:100AF800430C91EA030F02BF90EA020F00207047EF
:100B080010F1000F91EA030F58BF994208BF9042B5
:100B18002CBFD8176FEAE37040F0010070474FEA26
:100B2800410C7FEA6C5C02D150EA013C07D14FEAE4
:100B3800430C7FEA6C5CD7D152EA033CD4D05DF811
:100B4800040C70478446104662468C461946634634
:100B580000E0C04601B5FFF7B9FF002848BF10F113
:100B6800000F01BD4DF808EDFFF7F4FF0CBF0120A1
:100B780000205DF808FBC0464DF808EDFFF7EAFFD6
:100B880034BF012000205DF808FBC0464DF808ED91
:100B9800FFF7E0FF94BF012000205DF808FBC04686
:100BA8004DF808EDFFF7CEFF94BF012000205DF857
:100BB80008FBC0464DF808EDFFF7C4FF34BF01201D
:100BC80000205DF808FBC046002934D0012300222C
:100BD80010B488422CD301242407A14204D28142B4
:100BE80002D209011B01F8E7E400A14204D28142C4
:100BF80002D249005B00F8E7884201D3401A1A4341
:100C08004C08A04202D3001B5C0822438C08A04277
:100C180002D3001B9C082243CC08A04202D3001B2D
:100C2800DC082243002803D01B0901D00909E3E7A7
:100C3800101C10BC704702B500F05CF8002002BD23
:100C480003B5FFF7C1FF0EBC4243891A1847C046D7
:100C5800002941D010B4041C4C40A44601230022B2
:100C6800002900D54942002800D5404288422CD3AB
:100C780001242407A14204D2814202D209011B01A6
:100C8800F8E7E400A14204D2814202D249005B00A5
:100C9800F8E7884201D3401A1A434C08A04202D30D
:100CA800001B5C0822438C08A04202D3001B9C084E
:100CB8002243CC08A04202D3001BDC0822430028B0
:100CC80003D01B0901D00909E3E7101C6446002C76
:100CD80000D5404210BC704702B500F00BF8002068
:100CE80002BDC04603B5FFF7B3FF0EBC4243891AE5
:100CF8001847C0467047C0464FEA410212F5001235
:100D080015D211D56FF47873B3EB625212D94FEA4A
:100D1800C12343F0004343EA505311F0004F23FA34
:100D280002F018BF404270474FF00000704750EA89
:100D3800013005D111F0004008BF6FF00040704746
:100D48004FF000007047C04682B0EC462DE90050D5
:100D580000F006F8DDF804E002B00CBC7047C046AD
:100D68002DE9F041144606460F461D4601F0C0F92C
:100D780000FB05F504FB0153A0FB04455D19069B28
:100D8800341B67EB0505C3E90045BDE8F081C046A3
:100D98002DE9F041144606460F461D4600F0FCFFBB
:100DA80000FB05F504FB0153A0FB04455D19069BF8
:100DB800341B67EB0505C3E90045BDE8F081C04673
:100DC800036803B11B1818467047C04659B90F2A63
:100DD80094BF00210121002B0CBF0B4641F00103F9
:100DE8002BB1022070470429FBD80120FAE700EB59
:100DF8008200009A416818461160F3E700B585B093
:100E08000A46002103AB00930B46FFF7DFFF039868
:100E180005B000BD59B90F2A94BF00210121002B4C
:100E28000CBF0B4641F001032BB102207047042987
:100E3800FBD80120FAE700EB8200009A12684260B2
:100E48001846F3E700B585B00B4604A941F8042D10
:100E58001A46009100210B46FFF7DCFF05B000BDE4
:100E6800036813F0804F14BF43F0004323F000439E
:100E7800C01870472DE9F84F0446924621B301F196
:100E8800FF3B0027D94602E050451ED26F1C09EBF4
:100E9800070505EBD5756D1004EBC5063046FFF761
:100EA800DFFFAB45804608BF4FF0FF3005D0681C18
:100EB80004EBC000FFF7D4FF0138D045E4D9BD42A8
:100EC80002D005F1FF39E2E700263046BDE8F88F89
:100ED800406C70477047C0468368014610B50BB137
:100EE8000120984710BDC0462DE9F04F0C461E461C
:100EF8008BB0E56C00F008011746039100F0030879
:100F080055F8043B0795002E40F0D4801B028DF85D
:100F18002160069303238DF82030B8F1020F236D6A
:100F280008BFA56B13F0010302BF019304F1580336
:100F3800029340F0CB802B684BB3022E00F0B580B3
:100F4800B5F800B0B5F802A00435A36C0F212AF05B
:100F5800010938469944FFF751FF814523D90AF022
:100F6800010A0BF0010B00204BEA4A0ABAF1010F03
:100F780029D04BD2B8F1000F0CBF002000F00100BF
:100F8800002840F0FF8004352B68002BD5D1384667
:100F980006A900F077FD00283BD1019A002A40F00D
:100FA800CD80082036E00AF0010A2BF001030BF08F
:100FB800010B99444BEA4A0A48452CBF00200120FE
:100FC800BAF1010FD5D1B8F1000F40F09B80D8B12C
:100FD8006B68284613F1020F50F804AB19D0029A37
:100FE800B3F1FF3F09920CD0FFF7EAFE4FEADA723D
:100FF80009AB0146204600E000BF002800F0AE80A3
:10100800099A002A40F0B480083594E7BAF1020F33
:1010180003D009200BB0BDE8F08F2B6823F0004BFC
:10102800B8F1000F55D1002836D00399D1F101024B
:1010380038BF0022BBF1000F08BF42F00102002AAE
:101048002AD0BBF1000F00F0938005F10409CDF818
:10105800108005954546B8463746029E04E0D345BC
:1010680009F104097ED9554648460996FFF7A8FEB6
:10107800002209AB05F1010A0146204600E000BF45
:101088000028ECD0AC463E46059D4746DDF810806A
:10109800E246DA456CD02B68002BACBF2B462B1DE3
:1010A8000BF1010503EB850545E7D5F804A09B4640
:1010B80008354AE7C3F307421B048DF8212006933D
:1010C80005EB820502238DF8203026E700220192E5
:1010D8005DE70D213846D4F820A0FFF78FFE824542
:1010E800D9D1A36A9D42D6D1042300222363EB18E9
:1010F800C4F828B0E26263632A68002A55DA01213D
:101108000191CDE70D213846D4F820A0FFF776FEEF
:1011180082457FF479AFA36A9D427FF475AF284674
:10112800FFF79EFE0F2102463846FFF78BFE384632
:1011380000212246FFF786FE07206BE70F2138467D
:10114800FFF75CFE0E2102463846FFF77BFE384665
:101158000F21184AFFF776FE07205BE7CDF82480B9
:101168000835E8E63E46059D4746DDF8108090E7DD
:1011780038460D21FFF742FE099BA5626362206293
:10118800062047E728460435FFF76AFEA5630646AA
:10119800204600E000BF00283FF43BAF38460F214F
:1011A8003246FFF74FFE072034E70BF1010005EB4D
:1011B8008000B5E70000000010B50223FFF794FE99
:1011C80010BDC04610B50123FFF78EFE10BDC04606
:1011D80010B50023FFF788FE10BDC0462B4B30B575
:1011E800044683B08D1E002B49D0284601A900E093
:1011F80000BF00281FD001992A46FFF73BFE05468D
:10120800A8B1FFF72DFEA0646B68012B28D0002B36
:1012180014DB281DFFF724FE002323650368E06420
:10122800002B12DBFFF71CFE2061002001E020618B
:10123800092003B030BD20610920FAE7281D0123E9
:1012480023650368E064002BECDAC3F3036078B12C
:10125800012810D0022807D0002309202361E8E7DD
:10126800002305202361E4E7094B00202361E0E720
:10127800084B2361DDE7084B00202361D9E70748C5
:101288000749091AC9100191B6E7C04600000000D5
:10129800C1110008D9110008CD11000824F702086F
:1012A80054F80208036810B513F0010F044607D17B
:1012B80013F0020F12D000F1480000F0DFFA2368A3
:1012C80013F0040F12D013F0080F17D013F0100FFB
:1012D80003D104F50C7000F025FB10BD00F14800A7
:1012E80000F0C4FA236813F0040FECD104F1D00025
:1012F80000F0CCFA236813F0080FE7D104F5D87092
:1013080000F0CCFA2368E1E7D36B2DE9F04102F154
:10131800040E136405460C46ADF5267DBEE80F00A5
:101328000DF1040C4FF668576E46CFF6FF77ACE820
:101338000F00BEE80F00ACE80F00BEE80F00ACE8F5
:101348000F009EE80F008CE80F00A6AA4FF0FF33AD
:10135800D35190AF316C3846FFF740FF002820D1B9
:1013680030460C213A46FFF76DFD30462146A84726
:10137800B8B9949B0820394632469847431F18BF8E
:101388000123804609280CBF002303F00103002B2A
:10139800E0D16846FFF786FF40460DF5267DBDE89B
:1013A800F0814FF00908F4E72DE9F04F8369ADF5B6
:1013B800926D01F1040E81B0D0F80CB0044692464B
:1013C80003930DF51479BEE80F0009F1040C4FF6EC
:1013D800C0554FF00008CFF6FF75C2450CBF4FF05F
:1013E800090A4FF00A0A04AFACE80F00BEE80F0084
:1013F800ACE80F00BEE80F00ACE80F009EE80F0055
:101408008CE80F000DF59263D9F84010204643F898
:1014180005804D46FFF7E2FE064616B3AB6B4AF071
:10142800100A0120514622466B64039BCDF80090B8
:1014380001932346D84700282ED1002E2DD12846C7
:1014480039464FF410721BF09FFBB8F1080F2AD1F0
:10145800296C2046FFF7C2FE4FF0090A0646002E07
:10146800DCD12B6C29464FF41072384663611BF0AF
:101478008BFB236921463A4650469847BB6B514639
:1014880022466B64039BCDF8009001932346804667
:101498000120D8470028D0D00926304625B00DF5C0
:1014A800806DBDE8F08FB8F1070FF5D195A800F071
:1014B800D1F9C046C16019468261DA6B10B51A6469
:1014C8000022FFF771FF10BD70B504460D46296C68
:1014D8002046FFF783FE50B92B6C012021462A468F
:1014E8006361236998470828F1D0072801D01FF0C5
:1014F800FDF9281D00F0AEF9CB6BF0B501F1040E33
:101508000B6404460D46ADF5117DBEE80F000DF1E4
:10151800040C4FF6C0576E46CFF6FF77ACE80F00C5
:10152800BEE80F00ACE80F00BEE80F00ACE80F0003
:101538009EE80F008CE80F0090AA4FF0FF33D351BC
:10154800316C2046FFF74AFE58B9236921463246D6
:10155800984708280746F3D03046FFF7A3FE062F22
:1015680003D009200DF5117DF0BD20462946FFF76F
:10157800ABFFC046C36810B52BB1CB6B00220B6420
:10158800FFF712FF10BDFFF7B7FFFBE7436970B520
:1015980004460B640D46C36823B10122FFF704FF1C
:1015A8001FF0A4F90369214602202A469847072814
:1015B80003D0082804D01FF099F9281D00F04AF933
:1015C80020462946FFF780FF2DE9F0410446E8B0A0
:1015D80004290CD8DFE801F03A5654030F00032B16
:1015E80005D1160C95B2AB19102B40F2D68002200B
:1015F80068B0BDE8F081102A94BF00210121002BBA
:101608000CBF0B4641F00103002BF0D1236813F007
:10161800100F40F0FA8064AD0192284600F08CF972
:10162800A06B019A00234FF0010C0CFA03F1114250
:101638001CBF50F8041B45F823100133042BF4D1C8
:10164800A063284600F06EF90020D1E7002BCED128
:10165800D4F838C092B2012010FA03F111421EBF2B
:1016680004EB83015CF8045B4D600133102BF3D16C
:1016780012F4005008BFC4F838C0B9D00020B7E74A
:101688000120B5E7591F18BF0121012B0CBF00200D
:1016980001F001000028AAD1150C96B27219012B8D
:1016A8000CBF102020209042A1D3012B14BF4FF073
:1016B80000084FF001080F2D94BF0027012717EAF3
:1016C800080F94D1002F40F08780102A08D9A2F182
:1016D8001007002F0CBF002101F00101002986D15D
:1016E8000F2D10D8226812F0010F0CD0052B22F014
:1016F8000101216000F0A680204622F0030240F894
:10170800482B00F0B7F8002F03DD236813F0040F0F
:1017180073D1B8F1000F40F091800F2D67D9002FD9
:101728005CD13246D4F838C0002A60460EDD02AEDD
:101738000023500006EBC5061A4653F80C10013278
:10174800F15004338242F8D10CEB8200002F13DDF4
:10175800102D2CBF2E46102644AB103E4FEA470CE6
:1017680003EBC60600231A46C1580132F150043370
:101778006245F9D100EB8200B8F1000F57D10F2D67
:10178800A06302D802A800F079F8002F7FF776AF9F
:1017980044A800F07BF800202AE7236813F0080F1C
:1017A8003DD124AF384600F09BF8A06B4FEA450CBA
:1017B80003465DB107EBC606624600231958F1508F
:1017C800043312F1FF32F9D100EB8C0324A8A36390
:1017D80000F064F800200BE737467AE744A800F0E9
:1017E80059F8002FC8BFC5F110029BDC99E702A881
:1017F80000F048F8002F94D0F0E7204623F00403C7
:1018080040F8D03B00F046F883E723F0100304F5D6
:101818000C702360019200F08FF8019AFBE623F028
:10182800080304F5D870236000F05AF8B9E70430CB
:10183800A06302A800F01AF80020D9E602A800F078
:1018480019F8CEE7204641F0020140F8481B00F0A5
:1018580019F858E700F1340191E838009C46A6468B
:101868004CF8045D90E8FF0FE54600BD90EC210BB5
:101878007047C04680EC210B7047C04690EC200BA7
:101888007047C04680EC200B7047C046D0EC200B58
:101898007047C046C0EC200B7047C046F0EC020110
:1018A800F0EC0211F0EC0221F0EC0231F0EC024114
:1018B800F0EC0251F0EC0261F0EC0271F0EC028104
:1018C800F0EC0291F0EC02A1F0EC02B1F0EC02C1F4
:1018D800F0EC02D1F0EC02E1F0EC02F17047C04606
:1018E800E0EC0201E0EC0211E0EC0221E0EC023154
:1018F800E0EC0241E0EC0251E0EC0261E0EC027144
:10190800E0EC0281E0EC0291E0EC02A1E0EC02B133
:10191800E0EC02C1E0EC02D1E0EC02E1E0EC02F123
:101928007047C046B0FC0181B0FC0191B0FC01A138
:10193800B0FC01B17047C046A0FC0181A0FC019138
:10194800A0FC01A1A0FC01B17047C046EC4600B55F
:101958002DE900502DE9FF1F4FF000032DE90C0081
:1019680001A9FFF7C9FDDDF840E012B07047C04695
:10197800EC4600B52DE900502DE9FF1F4FF000039C
:101988002DE90C0001A9FFF701FEDDF840E012B0D7
:101998007047C046EC4600B52DE900502DE9FF1F01
:1019A8004FF000032DE90C0001A9FFF7E3FDDDF876
:1019B80040E012B07047C046EC4600B52DE9005033
:1019C8002DE9FF1F4FF000032DE90C0001ABFFF7D5
:1019D80071FDDDF840E012B07047C046EC4600B536
:1019E8002DE900502DE9FF1F4FF000032DE90C00F1
:1019F80001AAFFF789FCDDF840E012B07047C04645
:101A0800027A034682B9427A62B14168013A427267
:101A180051F8042B4160032102600172100E12027A
:101A28001A607047B020FCE7013A02720268F5E7D5
:101A380010B51EF05BFFC04610B51EF057FFC0463C
:101A480000B585B00A46002103AB00930B46FFF7AB
:101A5800BDF9039805B000BD10B50C21FFF7F0FFE4
:101A680010BDC04610B5FFF7F7FFC36CD87903EB7C
:101A7800800303F1080010BD10B5FFF7EDFF806C7F
:101A880010BDC0462DE9F04784B006460D464FF01C
:101A9800000A03AF4FF47F692846FFF7B1FFB0286B
:101AA800044600F0A68010F0800120D000F0F0037A
:101AB800802B6BD0902B3BD0A02B53D0B02B7FD05A
:101AC800C02B00F09B8000F0F803D02B0BD100F066
:101AD8000702013242F40022304601210523FFF7B4
:101AE80073FD0028D8D0092004B0BDE8F0870B4664
:101AF8004FEA80080D2230460097FFF767F914F087
:101B0800400F08F0FF0808F1040815BF039B039B6A
:101B1800C8EB0308984414BFCDF80C80CDF80C80AE
:101B2800002130460D220B460097FFF773F9B3E703
:101B380000F00F020D2A14BF002401240F2A08BF49
:101B480044F00104002CCED12146234630460097AC
:101B5800FFF73CF9304621460D2223460097FFF750
:101B680059F999E7C24310F0080F02F0070230460E
:101B780049FA02F202F47F6218BF42F4804200215F
:101B88000B46FFF721FD002886D0ACE70402284663
:101B9800FFF736FF40EA0404B4F5004FA3D04FEA3C
:101BA8000418240500213046220C0B46FFF70CFDD3
:101BB800002898D118F4004F18BF4FF0010A6BE7BE
:101BC800B12868D0B22800F08480B32876D000F01D
:101BD800FC03B42B2DD000F00702013242F400229E
:101BE800012130460B46FFF7EFFC00283FF454AFC5
:101BF80079E7BAF1000F2AD0002075E7C62837D058
:101C0800C72800F08B8000F0F803C02B00F0998003
:101C1800C82800F09C80C9287FF465AF2846FFF7E4
:101C2800EFFE00F0F00200F00F03013343EA023246
:101C380052E700F0030202210132304642F48022CA
:101C48000B46FFF7C1FC00283FF426AF4BE751468F
:101C58000E225346304603AC0094FFF7B7F83046DF
:101C680051460F2253460094FFF7D4F850463BE7FD
:101C78002846FFF7C5FE00F0F00200F00F0301331D
:101C880043EA0232032130460B46FFF79DFC002849
:101C98003FF402AF27E72846FFF7B2FE02460028C6
:101CA8003FF421AF10F0F0017FF41DAF30460B4632
:101CB800FFF78AFC00283FF4EFAE14E72846FFF749
:101CC8009FFE00F0F00200F00F03013343EA0232F6
:101CD80086E700210D220B4630460097FFF776F87D
:101CE8002846FFF78DFE10F0800F3CD0022400F04C
:101CF8007F00039BA04007341B1828460393FFF777
:101D08007FFE10F0800FF2D1039B00F07F0003F5F7
:101D1800017310FA04F41B19039301E72846FFF72F
:101D28006FFE024600283FF4DEAE10F0F0037FF4A9
:101D3800DAAE30460421FFF747FC00283FF4ACAE8A
:101D4800D1E600F00F02013242F420229AE7284639
:101D5800FFF756FE00F0F00200F00F0310320133D7
:101D680043EA0232B8E60224CEE7C046C36C08460E
:101D780000B585B05A6801A91202019203F1080260
:101D8800029203228DF80C20DB798DF80D30FFF7D5
:101D980079FE05B000BDC0462DE9F04F85B0002999
:101DA800C0F2C9800026002BC0F2C0801446054648
:101DB8000F469946002B4BD18A4259D9B2FA82F381
:101DC8005BB1C3F1200811FA03F720FA08F812FAF8
:101DD80003F448EA070710FA03F54FEA144A3846AD
:101DE80051461FFA84F9FEF72BFF38468B465146B9
:101DF800FEF7EAFE2B0C43EA0B4B09FB00F80746FB
:101E0800D84507D9471E1BEB040B03D2D84501D987
:101E1800013FA344C8EB0B0851464046ADB2FEF75C
:101E28000FFF40468B465146FEF7CEFE45EA0B4B68
:101E380009FB00F9D94506D901381BEB040B02D27E
:101E4800D94588BF013840EA07484FF0000A04E046
:101E58008B4258D94FF0000AD0464246534616B135
:101E6800524263EB43031046194605B0BDE8F08FB4
:101E780022B901201146FEF7A7FE0446B4FA84F8F9
:101E8800B8F1000F5DD1C4EB07081FFA84FA270CDC
:101E98000121029140463946FEF7D2FE40468B4664
:101EA8003946FEF791FE2B0C43EA0B4B0AFB00F96F
:101EB8008046D94509D91BEB040B00F1FF3804D241
:101EC800D94584BF08F1FF38A344C9EB0B0939464B
:101ED8004846ADB2FEF7B4FE48468B463946FEF793
:101EE80073FE45EA0B4B0AFB00FADA4506D90138BE
:101EF8001BEB040B02D2DA4588BF013840EA0848D8
:101F0800DDF808A0A9E7B3FA83FABAF1000F65D1A2
:101F18008B422CBF0027012782428CBF3C4647F0EA
:101F28000104002C96D04FF0010896E7F643524280
:101F380063EB43033AE7404261EB41014FF0FF3660
:101F480031E704FA08F4C8F1200327FA03F907FA7D
:101F580008F735FA03F348463B43270C3946029302
:101F6800FEF76EFE48461FFA84FA8B463946FEF79E
:101F78002BFE02990A0C42EA0B4B0AFB00F381463E
:101F88005B4505D91BEB040B00F1FF39C0F0AA80B3
:101F9800C3EB0B0B39465846FEF752FE58468C46A3
:101FA8003946CDF804C0FEF70FFE029BDDF804C0E9
:101FB80099B241EA0C430AFB00F29A4206D9013869
:101FC8001B1903D29A4201D901381B1905FA08F5E1
:101FD80040EA0940C2EB030802905BE703FA0AF9FA
:101FE800CAF12003DA4021FA03FB42EA090904FA9C
:101FF8000AF4039401FA0AF74FEA194430FA03F392
:10200800214658463B430293FEF71AFE58461FFAEC
:1020180089F70B4621460193FEF7D6FD0299019BED
:102028000A0C42EA034307FB00FB80469B4504D9A0
:1020380013EB090300F1FF384ED3CBEB030B21461A
:102048005846FEF7FDFD58460B4621460193FEF71C
:10205800BBFD029C019BA2B242EA034307FB00F7C7
:102068009F4207D9013813EB090303D29F4201D9D4
:1020780001384B44DB1B039F40EA0848B9B21FFAFA
:1020880088F24FEA18403C0C01FB02FC01FB00F10E
:1020980004FB021204FB00F002EB1C42914288BFD1
:1020A80000F5803000EB124083420ED31FFA8CFCFF
:1020B80014BF0023012305FA0AFA0CEB02429245E9
:1020C8002CBF002203F0010222B108F1FF384FF0C3
:1020D800000AC2E69246C0E69B4584BF08F1FF3875
:1020E8004B44AAE75B4584BF09F1FF39A3444FE796
:1020F8002DE9F04F83B00C46054611469146264619
:10210800002B4AD1A2425CD9B2FA82F35BB102FA3F
:1021180003F9C3F1200214FA03F630FA02F242EA94
:10212800060610FA03F54FEA1944304621461FFA0D
:1021380089F7FEF785FD30468A462146FEF744FDBD
:102148002B0C43EA0A4A07FB00F80646D04507D994
:10215800461E1AEB090A03D2D04501D9013ECA44EA
:10216800C8EB0A0821464046ADB2FEF769FD404675
:102178008A462146FEF728FD45EA0A4A07FB00F78A
:10218800574506D901381AEB090A02D2574588BFC4
:10219800013840EA064400215BE0A34257D8B3FA6D
:1021A80083F6002E59D1A3422CBF00240124824279
:1021B8008CBF254644F00105002D48D03146012446
:1021C80047E01AB90120FEF7FFFC8146B9FA89F603
:1021D800002E40F0B780C9EB04044FEA19471FFAF4
:1021E80089FA012620463946FEF72AFD2046884608
:1021F8003946FEF7E9FC2B0C43EA08480AFB00FBCA
:102208000446C34506D9441E18EB090802D2C34543
:1022180000F2E480CBEB080B39465846ADB2FEF726
:102228000FFD584688463946FEF7CEFC45EA084871
:102238000AFB00FAC24506D9013818EB090802D290
:10224800C24588BF013840EA0444314601E0002114
:102258000C46204603B0BDE8F08FC6F12002B3401B
:1022680021FA02F724FA02F81F4320FA02FAB440CE
:1022780001FA06F94AEA040A3C0C40462146CDF820
:102288000490FEF7DDFC40461FFA87F98B4621468D
:10229800FEF79AFC4FEA1A4242EA0B4B09FB00F39D
:1022A80080465B4505D91BEB070B00F1FF38C0F0F2
:1022B8008F80C3EB0B0B214658461FFA8AFAFEF7AC
:1022C800BFFC58460B4621460093FEF77DFC009B59
:1022D8004AEA034309FB00F9994506D90138DB1995
:1022E80003D2994501D90138DB19019F40EA084416
:1022F800C9EB03031FFA84FC210CB8B23A0C00FBAB
:102308000CF700FB01F002FB01F102FB0C0202EBEF
:102318001742904288BF01F5803101EB12418B4290
:102328000DD3BFB214BF0023012307EB0242B5400F
:1023380095422CBF002103F00101002989D0013CFE
:10234800002186E709FA06F9C6F1200324FA03F802
:1023580035FA03F34FEA1947B4404046394643EA91
:102368000404FEF76DFC40461FFA89FA8B4639468D
:10237800FEF72AFC220C42EA0B4B0AFB00F38046CC
:102388005B4504D91BEB090B00F1FF3829D3C3EBDC
:102398000B0B39465846A4B2FEF752FC58460B467A
:1023A80039460093FEF710FC009B44EA03430AFBFE
:1023B80000F29A4207D9013813EB090303D29A4273
:1023C80001D901384B44B5409C1A40EA084609E750
:1023D8005B4584BF08F1FF38BB446AE7013CC84449
:1023E80018E75B4584BF08F1FF38CB44CFE7C04608
:1023F80080B400AF62B6BD4680BC704780B400AF01
:1024080072B6BD4680BC704780B400AF61B6BD46A9
:1024180080BC704780B400AF71B6BD4680BC7047C1
:1024280080B400AF00BFBD4680BC704780B400AF29
:1024380030BFBD4680BC704780B400AF20BFBD46EA
:1024480080BC704780B400AF40BFBD4680BC7047B9
:1024580080B400AFBFF36F8FBD4680BC7047C046E5
:1024680080B400AFBFF34F8FBD4680BC7047C046F5
:1024780080B400AFBFF35F8FBD4680BC7047C046D5
:1024880080B400AFBFF32F8FBD4680BC7047C046F5
:1024980080B485B000AF78607B6803F00703FB6009
:1024A8004EF60053CEF20003DB68BB60BA684FF605
:1024B800FF03C0F2000302EA0303BB60FB684FEAB4
:1024C8000322BB6842EA030343F0BE6343F42023BC
:1024D800BB604EF60053CEF20003BA68DA6007F12B
:1024E8001407BD4680BC704780B400AF4EF6005359
:1024F800CEF20003DB6803F4E0634FEA13231846C7
:10250800BD4680BC7047C04680B483B000AF034668
:10251800FB714EF20013CEF2000397F907204FEA41
:102528005212F97901F01F014FF0010000FA01F190
:1025380043F8221007F10C07BD4680BC7047C0461F
:1025480080B483B000AF0346FB714EF20013CEF2A5
:10255800000397F907204FEA5212F97901F01F0199
:102568004FF0010000FA01F102F1200243F82210B5
:1025780007F10C07BD4680BC7047C04680B483B0E5
:1025880000AF0346FB714EF20013CEF2000397F939
:1025980007204FEA521202F1400253F82220FB7939
:1025A80003F01F034FF0010101FA03F302EA0303EA
:1025B800002B0CBF00230123184607F10C07BD466A
:1025C80080BC704780B483B000AF0346FB714EF205
:1025D8000013CEF2000397F907204FEA5212F97957
:1025E80001F01F014FF0010000FA01F102F1400271
:1025F80043F8221007F10C07BD4680BC7047C0465F
:1026080080B483B000AF0346FB714EF20013CEF2E4
:10261800000397F907204FEA5212F97901F01F01D8
:102628004FF0010000FA01F102F1600243F82210B4
:1026380007F10C07BD4680BC7047C04680B483B024
:1026480000AF0346FB714EF20013CEF2000397F978
:1026580007204FEA521202F1800253F82220FB7938
:1026680003F01F034FF0010101FA03F302EA030329
:10267800002B0CBF00230123184607F10C07BD46A9
:1026880080BC704780B483B000AF03463960FB71EB
:1026980097F90730002B10DA4EF60053CEF20003FC
:1026A800FA7902F00F02A2F104013A68D2B24FEAB5
:1026B8000212D2B20B441A760DE04EF20013CEF29B
:1026C800000397F907103A68D2B24FEA0212D2B261
:1026D8000B4483F8002307F10C07BD4680BC704704
:1026E80080B483B000AF0346FB7197F90730002B25
:1026F8000FDA4EF60053CEF20003FA7902F00F0219
:10270800A2F1040213441B7EDBB24FEA1313DBB2BF
:102718000CE04EF20013CEF2000397F907201344A1
:1027280093F80033DBB24FEA1313DBB2184607F114
:102738000C07BD4680BC704780B489B000AFF86014
:10274800B9607A60FB6803F007037B617B69C3F1BA
:102758000703042B28BF0423BB617B6903F104032F
:10276800062B03D97B69A3F1030301E04FF00003B3
:10277800FB61BB694FF0010202FA03F303F1FF3377
:102788001A46BB6802EA0302FB6902FA03F2FB6914
:102798004FF0010101FA03F303F1FF3319467B6897
:1027A80001EA030342EA0303184607F12407BD467A
:1027B80080BC704780B489B000AFF860B9607A60B7
:1027C8003B60BB6803F007037B617B69C3F10703C8
:1027D800042B28BF0423BB617B6903F10403062B88
:1027E80003D97B69A3F1030301E04FF00003FB6108
:1027F800FB69FA6822FA03F2BB694FF0010101FA9A
:1028080003F303F1FF3302EA03027B681A60FB69F2
:102818004FF0010202FA03F303F1FF331A46FB6893
:1028280002EA03023B681A6007F12407BD4680BC30
:102838007047C04680B582B000AF78607A686FF0A4
:102848007F439A4202D94FF001031FE04EF2100372
:10285800CEF200037A6822F07F4202F1FF325A601A
:102868004FF0FF304FF00F01FFF70CFF4EF210034F
:10287800CEF200034FF000029A604EF21003CEF23F
:1028880000034FF007021A604FF00003184607F1E3
:102898000807BD4680BDC04680B500AF4EF6005261
:1028A800CEF200024EF60053CEF20003DB6803F4CA
:1028B800E06140F20403C0F2FA5341EA0303D36033
:1028C800FFF7CEFDFEE7C04680B483B000AF786066
:1028D8004EF6F053CEF20003DB6803F08073002B52
:1028E8001BD04FF06043D3F8803E03F00103DBB206
:1028F800002B12D04FF06043D3F8003E03F00103E1
:10290800DBB2002B09D04FF060431B68002BFAD0D4
:102918004FF060437A68D2B21A707B68184607F1A4
:102928000C07BD4680BC704780B483B000AF4FF041
:10293800FF337B6044F6B053C2F200031A6845F6D1
:10294800A523C5F6A5239A420ED044F6B053C2F289
:1029580000031B687B6044F6B053C2F2000345F6DF
:10296800A522C5F6A5221A607B68184607F10C0750
:10297800BD4680BC7047C04680B400AF44F6B05333
:10298800C2F200031A6845F6A523C5F6A5239A42A4
:1029980002D14FF0000301E04FF001031846BD4695
:1029A80080BC704780B586B000AF4FF001004FF093
:1029B80001010CF0E3FF4FF002004FF001010CF0B1
:1029C800DDFF4FF0804008F083FC40F20040C4F285
:1029D800000008F07DFC07F10803184609F09AF991
:1029E8004FF461637B617B699BB2BB814FF000034D
:1029F8003B814FF00003FB814FF000037B8107F11F
:102A080008034FF08040194608F0BAFD4FF08040A7
:102A18004FF0010109F0A4FC4FF6FF73BB8107F1E9
:102A2800080340F20040C4F20000194608F0A8FD6F
:102A380040F20040C4F200004FF0010109F090FCA0
:102A48004FF01C033B714FF00003BB714FF00003C4
:102A58007B714FF00103FB7107F10403184612F074
:102A6800E9FD4FF080404FF001014FF0010209F0FD
:102A780027FA4FF080404FF0010109F0D7F940F2F2
:102A88000040C4F200004FF0010109F0CFF907F14E
:102A98001807BD4680BDC04680B582B000AF40F281
:102AA8000043C4F200039B8CBB8040F2F663C2F281
:102AB80000031B88042B24D940F2F863C2F20003F8
:102AC8001B88BA88C3EB0203FB8040F2FA63C2F2A8
:102AD80000031B88FA889A4221D940F2FA63C2F2AD
:102AE8000003FA881A8040F2FA63C2F200031B88D6
:102AF800A3F561639AB240F2F463C2F200031A804C
:102B08000EE040F2F663C2F200031B8803F10103F2
:102B18009AB240F2F663C2F200031A8000E000BFE6
:102B280040F2F863C2F20003BA881A804FF080407E
:102B38004FF001010AF068FA07F10807BD4680BDA9
:102B480080B400AFBD4680BC7047C04680B400AFBB
:102B58004FF001031846BD4680BC704780B483B06F
:102B680000AF7860396044F6CC53C2F200034FF0EE
:102B780016021A604FF0FF33184607F10C07BD46DE
:102B880080BC704780B582B000AF786078684FF03D
:102B9800FF31FFF7E3FFFEE780B485B000AFF860D0
:102BA800B9607A607B68184607F11407BD4680BC97
:102BB8007047C04680B485B000AF786040F20073BB
:102BC800C2F200031B68002B08D140F20073C2F266
:102BD800000344F6D052C2F200021A6040F20073B9
:102BE800C2F200031B68FB6040F20073C2F20003EC
:102BF8001A687B681A446B469A4209D944F6CC5342
:102C0800C2F200034FF00C021A604FF0FF330CE0E1
:102C180040F20073C2F200031A687B681A4440F25B
:102C28000073C2F200031A60FB68184607F1140724
:102C3800BD4680BC7047C04680B483B000AF7860A2
:102C48004FF0FF33184607F10C07BD4680BC7047AC
:102C580080B483B000AF786039603B684FF40052AD
:102C68005A604FF00003184607F10C07BD4680BCB8
:102C78007047C04680B483B000AF78604FF001035E
:102C8800184607F10C07BD4680BC704780B485B074
:102C980000AFF860B9607A604FF00003184607F19A
:102CA8001407BD4680BC704780B485B000AFF8609B
:102CB800B9607A604FF00003184607F11407BD4663
:102CC80080BC70470EB480B482B000AF78604FF01B
:102CD800FF33184607F10807BD4680BC03B07047AC
:102CE80080B483B000AF786044F6CC53C2F20003DE
:102CF8004FF00A021A604FF0FF33184607F10C072D
:102D0800BD4680BC7047C04680B483B000AF7860D1
:102D180044F6CC53C2F200034FF002021A604FF09F
:102D2800FF33184607F10C07BD4680BC7047C04604
:102D380080B483B000AF78604FF0FF33184607F1D6
:102D48000C07BD4680BC704780B483B000AF786084
:102D580039603B684FF400525A604FF00003184640
:102D680007F10C07BD4680BC7047C04680B483B0ED
:102D780000AF7860396044F6CC53C2F200034FF0DC
:102D88001F021A604FF0FF33184607F10C07BD46C3
:102D980080BC704780B400AF44F6CC53C2F2000345
:102DA8004FF00B021A604FF0FF331846BD4680BC47
:102DB8007047C04680B485B000AFF860B9607A60EB
:102DC80044F6CC53C2F200034FF00C021A604FF0E5
:102DD800FF33184607F11407BD4680BC7047C0464C
:102DE80080B400AF62B6BD4680BC704780B400AF07
:102DF80072B6BD4680BC704780B400AF61B6BD46B0
:102E080080BC704780B400AF71B6BD4680BC7047C7
:102E180080B400AF00BFBD4680BC704780B400AF2F
:102E280030BFBD4680BC704780B400AF20BFBD46F0
:102E380080BC704780B400AF40BFBD4680BC7047BF
:102E480080B400AFBFF36F8FBD4680BC7047C046EB
:102E580080B400AFBFF34F8FBD4680BC7047C046FB
:102E680080B400AFBFF35F8FBD4680BC7047C046DB
:102E780080B400AFBFF32F8FBD4680BC7047C046FB
:102E880080B485B000AF78607B6803F00703FB600F
:102E98004EF60053CEF20003DB68BB60BA684FF60B
:102EA800FF03C0F2000302EA0303BB60FB684FEABA
:102EB8000322BB6842EA030343F0BE6343F42023C2
:102EC800BB604EF60053CEF20003BA68DA6007F131
:102ED8001407BD4680BC704780B400AF4EF600535F
:102EE800CEF20003DB6803F4E0634FEA13231846CD
:102EF800BD4680BC7047C04680B483B000AF03466F
:102F0800FB714EF20013CEF2000397F907204FEA47
:102F18005212F97901F01F014FF0010000FA01F196
:102F280043F8221007F10C07BD4680BC7047C04625
:102F380080B483B000AF0346FB714EF20013CEF2AB
:102F4800000397F907204FEA5212F97901F01F019F
:102F58004FF0010000FA01F102F1200243F82210BB
:102F680007F10C07BD4680BC7047C04680B483B0EB
:102F780000AF0346FB714EF20013CEF2000397F93F
:102F880007204FEA521202F1400253F82220FB793F
:102F980003F01F034FF0010101FA03F302EA0303F0
:102FA800002B0CBF00230123184607F10C07BD4670
:102FB80080BC704780B483B000AF0346FB714EF20B
:102FC8000013CEF2000397F907204FEA5212F9795D
:102FD80001F01F014FF0010000FA01F102F1400277
:102FE80043F8221007F10C07BD4680BC7047C04665
:102FF80080B483B000AF0346FB714EF20013CEF2EB
:10300800000397F907204FEA5212F97901F01F01DE
:103018004FF0010000FA01F102F1600243F82210BA
:1030280007F10C07BD4680BC7047C04680B483B02A
:1030380000AF0346FB714EF20013CEF2000397F97E
:1030480007204FEA521202F1800253F82220FB793E
:1030580003F01F034FF0010101FA03F302EA03032F
:10306800002B0CBF00230123184607F10C07BD46AF
:1030780080BC704780B483B000AF03463960FB71F1
:1030880097F90730002B10DA4EF60053CEF2000302
:10309800FA7902F00F02A2F104013A68D2B24FEABB
:1030A8000212D2B20B441A760DE04EF20013CEF2A1
:1030B800000397F907103A68D2B24FEA0212D2B267
:1030C8000B4483F8002307F10C07BD4680BC70470A
:1030D80080B483B000AF0346FB7197F90730002B2B
:1030E8000FDA4EF60053CEF20003FA7902F00F021F
:1030F800A2F1040213441B7EDBB24FEA1313DBB2C6
:103108000CE04EF20013CEF2000397F907201344A7
:1031180093F80033DBB24FEA1313DBB2184607F11A
:103128000C07BD4680BC704780B489B000AFF8601A
:10313800B9607A60FB6803F007037B617B69C3F1C0
:103148000703042B28BF0423BB617B6903F1040335
:10315800062B03D97B69A3F1030301E04FF00003B9
:10316800FB61BB694FF0010202FA03F303F1FF337D
:103178001A46BB6802EA0302FB6902FA03F2FB691A
:103188004FF0010101FA03F303F1FF3319467B689D
:1031980001EA030342EA0303184607F12407BD4680
:1031A80080BC704780B489B000AFF860B9607A60BD
:1031B8003B60BB6803F007037B617B69C3F10703CE
:1031C800042B28BF0423BB617B6903F10403062B8E
:1031D80003D97B69A3F1030301E04FF00003FB610E
:1031E800FB69FA6822FA03F2BB694FF0010101FAA0
:1031F80003F303F1FF3302EA03027B681A60FB69F9
:103208004FF0010202FA03F303F1FF331A46FB6899
:1032180002EA03023B681A6007F12407BD4680BC36
:103228007047C04680B582B000AF78607A686FF0AA
:103238007F439A4202D94FF001031FE04EF2100378
:10324800CEF200037A6822F07F4202F1FF325A6020
:103258004FF0FF304FF00F01FFF70CFF4EF2100355
:10326800CEF200034FF000029A604EF21003CEF245
:1032780000034FF007021A604FF00003184607F1E9
:103288000807BD4680BDC04680B500AF4EF6005267
:10329800CEF200024EF60053CEF20003DB6803F4D0
:1032A800E06140F20403C0F2FA5341EA0303D36039
:1032B800FFF7CEFDFEE7C04680B483B000AF78606C
:1032C8004EF6F053CEF20003DB6803F08073002B58
:1032D8001BD04FF06043D3F8803E03F00103DBB20C
:1032E800002B12D04FF06043D3F8003E03F00103E7
:1032F800DBB2002B09D04FF060431B68002BFAD0DB
:103308004FF060437A68D2B21A707B68184607F1AA
:103318000C07BD4680BC704780B483B000AF4FF047
:10332800FF337B6044F6B053C2F200031A6845F6D7
:10333800A523C5F6A5239A420ED044F6B053C2F28F
:1033480000031B687B6044F6B053C2F2000345F6E5
:10335800A522C5F6A5221A607B68184607F10C0756
:10336800BD4680BC7047C04680B400AF44F6B05339
:10337800C2F200031A6845F6A523C5F6A5239A42AA
:1033880002D14FF0000301E04FF001031846BD469B
:1033980080BC704780B400AFBD4680BC7047C04653
:1033A80080B400AFFEE7C04680B400AFFEE7C04679
:1033B80080B400AFFEE7C04680B400AFFEE7C04669
:1033C80080B400AFBD4680BC7047C04680B400AF33
:1033D80062B6BD4680BC704780B400AF72B6BD46C9
:1033E80080BC704780B400AF61B6BD4680BC7047F2
:1033F80080B400AF71B6BD4680BC704780B400AFE2
:1034080000BFBD4680BC704780B400AF30BFBD462A
:1034180080BC704780B400AF20BFBD4680BC7047F9
:1034280080B400AF40BFBD4680BC704780B400AFD9
:10343800BFF36F8FBD4680BC7047C04680B400AFF5
:10344800BFF34F8FBD4680BC7047C04680B400AF05
:10345800BFF35F8FBD4680BC7047C04680B400AFE5
:10346800BFF32F8FBD4680BC7047C04680B485B07F
:1034780000AF78607B6803F00703FB604EF60053EB
:10348800CEF20003DB68BB60BA684FF6FF03C0F2F8
:10349800000302EA0303BB60FB684FEA0322BB6830
:1034A80042EA030343F0BE6343F42023BB604EF6B5
:1034B8000053CEF20003BA68DA6007F11407BD467C
:1034C80080BC704780B400AF4EF60053CEF20003C4
:1034D800DB6803F4E0634FEA13231846BD4680BC5B
:1034E8007047C04680B483B000AF0346FB714EF20C
:1034F8000013CEF2000397F907204FEA5212F97928
:1035080001F01F014FF0010000FA01F143F8221009
:1035180007F10C07BD4680BC7047C04680B483B035
:1035280000AF0346FB714EF20013CEF2000397F989
:1035380007204FEA5212F97901F01F014FF00100FC
:1035480000FA01F102F1200243F8221007F10C07FA
:10355800BD4680BC7047C04680B483B000AF034608
:10356800FB714EF20013CEF2000397F907204FEAE1
:10357800521202F1400253F82220FB7903F01F0394
:103588004FF0010101FA03F302EA0303002B0CBF19
:1035980000230123184607F10C07BD4680BC70477D
:1035A80080B483B000AF0346FB714EF20013CEF235
:1035B800000397F907204FEA5212F97901F01F0129
:1035C8004FF0010000FA01F102F1400243F8221025
:1035D80007F10C07BD4680BC7047C04680B483B075
:1035E80000AF0346FB714EF20013CEF2000397F9C9
:1035F80007204FEA5212F97901F01F014FF001003C
:1036080000FA01F102F1600243F8221007F10C07F9
:10361800BD4680BC7047C04680B483B000AF034647
:10362800FB714EF20013CEF2000397F907204FEA20
:10363800521202F1800253F82220FB7903F01F0393
:103648004FF0010101FA03F302EA0303002B0CBF58
:1036580000230123184607F10C07BD4680BC7047BC
:1036680080B483B000AF03463960FB7197F9073027
:10367800002B10DA4EF60053CEF20003FA7902F06E
:103688000F02A2F104013A68D2B24FEA0212D2B292
:103698000B441A760DE04EF20013CEF2000397F9B0
:1036A80007103A68D2B24FEA0212D2B20B4483F83A
:1036B800002307F10C07BD4680BC704780B483B077
:1036C80000AF0346FB7197F90730002B0FDA4EF66F
:1036D8000053CEF20003FA7902F00F02A2F10402BD
:1036E80013441B7EDBB24FEA1313DBB20CE04EF23D
:1036F8000013CEF2000397F90720134493F8003320
:10370800DBB24FEA1313DBB2184607F10C07BD46CC
:1037180080BC704780B489B000AFF860B9607A6047
:10372800FB6803F007037B617B69C3F10703042B84
:1037380028BF0423BB617B6903F10403062B03D96B
:103748007B69A3F1030301E04FF00003FB61BB6950
:103758004FF0010202FA03F303F1FF331A46BB6884
:1037680002EA0302FB6902FA03F2FB694FF0010166
:1037780001FA03F303F1FF3319467B6801EA0303F7
:1037880042EA0303184607F12407BD4680BC704788
:1037980080B489B000AFF860B9607A603B60BB68FC
:1037A80003F007037B617B69C3F10703042B28BF80
:1037B8000423BB617B6903F10403062B03D97B69EE
:1037C800A3F1030301E04FF00003FB61FB69FA6812
:1037D80022FA03F2BB694FF0010101FA03F303F186
:1037E800FF3302EA03027B681A60FB694FF00102AB
:1037F80002FA03F303F1FF331A46FB6802EA0302F5
:103808003B681A6007F12407BD4680BC7047C04674
:1038180080B582B000AF78607A686FF07F439A42D3
:1038280002D94FF001031FE04EF21003CEF200035D
:103838007A6822F07F4202F1FF325A604FF0FF307F
:103848004FF00F01FFF70CFF4EF21003CEF200030A
:103858004FF000029A604EF21003CEF200034FF0D0
:1038680007021A604FF00003184607F10807BD4623
:1038780080BDC04680B500AF4EF60052CEF20002C1
:103888004EF60053CEF20003DB6803F4E06140F229
:103898000403C0F2FA5341EA0303D360FFF7CEFDF5
:1038A800FEE7C04680B483B000AF78604EF6F053B0
:1038B800CEF20003DB6803F08073002B1BD04FF0BF
:1038C8006043D3F8803E03F00103DBB2002B12D033
:1038D8004FF06043D3F8003E03F00103DBB2002B46
:1038E80009D04FF060431B68002BFAD04FF06043BB
:1038F8007A68D2B21A707B68184607F10C07BD4681
:1039080080BC704780B483B000AF4FF0FF337B605A
:1039180044F6B053C2F200031A6845F6A523C5F66B
:10392800A5239A420ED044F6B053C2F200031B6896
:103938007B6044F6B053C2F2000345F6A522C5F6F3
:10394800A5221A607B68184607F10C07BD4680BCA3
:103958007047C04680B400AF44F6B053C2F20003CB
:103968001A6845F6A523C5F6A5239A4202D14FF059
:10397800000301E04FF001031846BD4680BC7047C4
:1039880080B584B004AF00F001F94FF003004FF0A8
:10399800080102F033F8024644F6B453C2F20003B9
:1039A8001A6004F08BFC4FF0010002F07DFF4FF02D
:1039B800020005F0B5FA4FF0000003F057FB4FF096
:1039C800010003F09DFF4FF001004FF4E1314FF08B
:1039D800030204F03FFB40F66C23C0F602034FF0ED
:1039E800030200924FF0000201924FF0000202928F
:1039F8004FF00002039243F6AD20C0F600001946CE
:103A08004FF4EF724FF0000300F00EFE40F67423FF
:103A1800C0F602034FF0000200924FF0000201923C
:103A28004FF0000202924FF00002039243F6652025
:103A3800C0F6000019464FF4EF724FF0000300F093
:103A4800F3FD4FF0030004F0E3F9FEF7ABFF01F0DC
:103A5800D5F94FF000031846BD4680BD80B584B047
:103A680000AF786000F0B2F840F65C43C0F602039D
:103A7800184614F0C3FC44F6B453C2F200031A68A3
:103A880007F10803104619464FF0FF324FF00003C4
:103A980002F09EF90346012BEDD1FB68184600F0B1
:103AA8009FF8E8E780B586B000AF786001F0B6FA15
:103AB80003467B6140F20873C2F200033B6107F1E1
:103AC8001403184641F2883100F0DEFE04F020FFAE
:103AD8000346012B05D040F67823C0F602033B616C
:103AE80044E003F05BF80346012B05D040F6902331
:103AF800C0F602033B6139E005F0EEFA0346012BFC
:103B080005D040F6A423C0F602033B612EE004F082
:103B18004BFA0346012B05D040F6B823C0F6020342
:103B28003B6123E003F01EFB0346012B05D040F662
:103B3800CC23C0F602033B6118E040F20872C2F2DF
:103B4800000240F2F463C2F200031B8819460B46D8
:103B58004FEA43030B444FEA83030B44104640F6F5
:103B6800DC21C0F602011A4619F0A0F844F6B45355
:103B7800C2F200031A6807F10C03104619464FF009
:103B8800FF324FF0000302F047F898E780B500AF26
:103B98004FF0FD004FF001010BF0C4FE4FF48040E0
:103BA8004FF001010BF0EAFE4FF000604FF000010A
:103BB80011F0B6FD4FF4407011F028FD4FF00400ED
:103BC80011F0F2FD18F0D0FEBD4680BD80B500AF03
:103BD80013F03CFD4FF6FF7014F0C2F8BD4680BDEF
:103BE80080B584B000AF7860786819F0A3F8034610
:103BF800BB604FF00003FB600AE0FB687A6813447F
:103C08001B78184600F00CF8FB6803F10103FB6011
:103C1800FA68BB689A42F0DB07F11007BD4680BD21
:103C280080B582B000AF786040F20473C2F200033E
:103C38001B88002B0AD140F20673C2F200031B78DE
:103C4800002B03D14FF6FF7014F08AF87B680A2B1B
:103C58004DD040F20673C2F20003197840F21813EF
:103C6800C2F200031A887B68DBB2084611461A467E
:103C780014F058F940F21813C2F200031B88A3F19C
:103C880010039AB240F21813C2F200031A8040F2ED
:103C98000473C2F200031B8803F101039AB240F2D5
:103CA8000473C2F200031A8040F20473C2F20003E4
:103CB8001B88142B37D140F20673C2F200031B781D
:103CC80003F11803DAB240F20673C2F200031A7065
:103CD80040F21813C2F2000340F23F121A8040F279
:103CE8000473C2F200034FF000021A801CE040F295
:103CF8000673C2F200031B7803F11803DAB240F22C
:103D08000673C2F200031A7040F21813C2F20003DD
:103D180040F23F121A8040F20473C2F200034FF0DF
:103D280000021A8000E000BF40F20673C2F20003EE
:103D38001B78EF2B06D940F20673C2F200034FF04E
:103D480000021A707B68184607F10807BD4680BD57
:103D580080B483B000AF78603960FEE780B400AF0C
:103D680062B6BD4680BC704780B400AF72B6BD462F
:103D780080BC704780B400AF61B6BD4680BC704758
:103D880080B400AF71B6BD4680BC704780B400AF48
:103D980000BFBD4680BC704780B400AF30BFBD4691
:103DA80080BC704780B400AF20BFBD4680BC704760
:103DB80080B400AF40BFBD4680BC704780B400AF40
:103DC800BFF36F8FBD4680BC7047C04680B400AF5C
:103DD800BFF34F8FBD4680BC7047C04680B400AF6C
:103DE800BFF35F8FBD4680BC7047C04680B400AF4C
:103DF800BFF32F8FBD4680BC7047C04680B485B0E6
:103E080000AF78607B6803F00703FB604EF6005351
:103E1800CEF20003DB68BB60BA684FF6FF03C0F25E
:103E2800000302EA0303BB60FB684FEA0322BB6896
:103E380042EA030343F0BE6343F42023BB604EF61B
:103E48000053CEF20003BA68DA6007F11407BD46E2
:103E580080BC704780B400AF4EF60053CEF200032A
:103E6800DB6803F4E0634FEA13231846BD4680BCC1
:103E78007047C04680B483B000AF0346FB714EF272
:103E88000013CEF2000397F907204FEA5212F9798E
:103E980001F01F014FF0010000FA01F143F8221070
:103EA80007F10C07BD4680BC7047C04680B483B09C
:103EB80000AF0346FB714EF20013CEF2000397F9F0
:103EC80007204FEA5212F97901F01F014FF0010063
:103ED80000FA01F102F1200243F8221007F10C0761
:103EE800BD4680BC7047C04680B483B000AF03466F
:103EF800FB714EF20013CEF2000397F907204FEA48
:103F0800521202F1400253F82220FB7903F01F03FA
:103F18004FF0010101FA03F302EA0303002B0CBF7F
:103F280000230123184607F10C07BD4680BC7047E3
:103F380080B483B000AF0346FB714EF20013CEF29B
:103F4800000397F907204FEA5212F97901F01F018F
:103F58004FF0010000FA01F102F1400243F822108B
:103F680007F10C07BD4680BC7047C04680B483B0DB
:103F780000AF0346FB714EF20013CEF2000397F92F
:103F880007204FEA5212F97901F01F014FF00100A2
:103F980000FA01F102F1600243F8221007F10C0760
:103FA800BD4680BC7047C04680B483B000AF0346AE
:103FB800FB714EF20013CEF2000397F907204FEA87
:103FC800521202F1800253F82220FB7903F01F03FA
:103FD8004FF0010101FA03F302EA0303002B0CBFBF
:103FE80000230123184607F10C07BD4680BC704723
:103FF80080B483B000AF03463960FB7197F907308E
:10400800002B10DA4EF60053CEF20003FA7902F0D4
:104018000F02A2F104013A68D2B24FEA0212D2B2F8
:104028000B441A760DE04EF20013CEF2000397F916
:1040380007103A68D2B24FEA0212D2B20B4483F8A0
:10404800002307F10C07BD4680BC704780B483B0DD
:1040580000AF0346FB7197F90730002B0FDA4EF6D5
:104068000053CEF20003FA7902F00F02A2F1040223
:1040780013441B7EDBB24FEA1313DBB20CE04EF2A3
:104088000013CEF2000397F90720134493F8003386
:10409800DBB24FEA1313DBB2184607F10C07BD4633
:1040A80080BC704780B489B000AFF860B9607A60AE
:1040B800FB6803F007037B617B69C3F10703042BEB
:1040C80028BF0423BB617B6903F10403062B03D9D2
:1040D8007B69A3F1030301E04FF00003FB61BB69B7
:1040E8004FF0010202FA03F303F1FF331A46BB68EB
:1040F80002EA0302FB6902FA03F2FB694FF00101CD
:1041080001FA03F303F1FF3319467B6801EA03035D
:1041180042EA0303184607F12407BD4680BC7047EE
:1041280080B489B000AFF860B9607A603B60BB6862
:1041380003F007037B617B69C3F10703042B28BFE6
:104148000423BB617B6903F10403062B03D97B6954
:10415800A3F1030301E04FF00003FB61FB69FA6878
:1041680022FA03F2BB694FF0010101FA03F303F1EC
:10417800FF3302EA03027B681A60FB694FF0010211
:1041880002FA03F303F1FF331A46FB6802EA03025B
:104198003B681A6007F12407BD4680BC7047C046DB
:1041A80080B582B000AF78607A686FF07F439A423A
:1041B80002D94FF001031FE04EF21003CEF20003C4
:1041C8007A6822F07F4202F1FF325A604FF0FF30E6
:1041D8004FF00F01FFF70CFF4EF21003CEF2000371
:1041E8004FF000029A604EF21003CEF200034FF037
:1041F80007021A604FF00003184607F10807BD468A
:1042080080BDC04680B500AF4EF60052CEF2000227
:104218004EF60053CEF20003DB6803F4E06140F28F
:104228000403C0F2FA5341EA0303D360FFF7CEFD5B
:10423800FEE7C04680B483B000AF78604EF6F05316
:10424800CEF20003DB6803F08073002B1BD04FF025
:104258006043D3F8803E03F00103DBB2002B12D099
:104268004FF06043D3F8003E03F00103DBB2002BAC
:1042780009D04FF060431B68002BFAD04FF0604321
:104288007A68D2B21A707B68184607F10C07BD46E7
:1042980080BC704780B483B000AF4FF0FF337B60C1
:1042A80044F6B053C2F200031A6845F6A523C5F6D2
:1042B800A5239A420ED044F6B053C2F200031B68FD
:1042C8007B6044F6B053C2F2000345F6A522C5F65A
:1042D800A5221A607B68184607F10C07BD4680BC0A
:1042E8007047C04680B400AF44F6B053C2F2000332
:1042F8001A6845F6A523C5F6A5239A4202D14FF0C0
:10430800000301E04FF001031846BD4680BC70472A
:1043180080B58CB000AF7860396038684FF0010123
:1043280001F06CFB024640F22473C2F200031A60EB
:104338003B6803F1010318464FF0010101F05EFBF1
:10434800024640F22873C2F200031A6040F2247356
:10435800C2F200031B68002B00F0818040F2287332
:10436800C2F200031B68002B79D044F204004FF01E
:1043780001010BF0D7FA4FF48063BB814FF00403BF
:10438800FB7307F10C0340F60000C4F20100194664
:104398000CF0AAFF4FF40073BB814FF00303BB730B
:1043A8004FF01803FB7307F10C0340F60000C4F24A
:1043B800010019460CF098FF7B68FB614FF0000381
:1043C8003B844FF000037B844FF00003BB844FF025
:1043D80000033B854FF00C03FB844FF00003BB82C6
:1043E8004FF00003FB824FF400733B834FF0000350
:1043F8007B8307F11C0343F60000C4F20100194651
:1044080005F0CCFF07F1140343F60000C4F20100E5
:10441800194606F0C9F843F60000C4F2010040F25C
:1044280025514FF0010206F02FF94FF025033B7498
:104438004FF00F037B744FF00003BB744FF0010380
:10444800FB7407F11003184611F0F4F843F6000066
:10445800C4F201004FF0010106F0F2F802E04FF05B
:104468000003FB62FB6A184607F13007BD4680BDB2
:1044780080B584B000AFF860B9607A6040F2247308
:10448800C2F200031B681846B9687A684FF0000347
:1044980001F09EFC0346002B02D04FF0010301E01F
:1044A8004FF00003184607F11007BD4680BDC0460F
:1044B80080B586B000AFF860B9601346FB80BB6872
:1044C8007B610CE07B691B785BB2F86819464FF09A
:1044D800000200F00DF87B6903F101037B617B6941
:1044E8001B78002BEED107F11807BD4680BDC046EA
:1044F80080B586B000AFF8600B467A60FB7240F278
:104508002873C2F200031A6807F10B031046194614
:104518007A684FF0000301F07FFB0346012B0DD1B1
:104528004FF001037B6143F60000C4F2010040F242
:1045380027714FF0010206F0A7F802E04FF00003E0
:104548007B617B69184607F11807BD4680BDC046E8
:1045580080B483B000AF786007F10C07BD4680BC1B
:104568007047C04680B582B000AF4FF000037B6053
:1045780043F60000C4F2010040F2277106F046FB42
:104588000346012B23D140F22873C2F200031968B5
:1045980007F1030207F10403084611461A4601F021
:1045A800DFFC0346012B08D1FB7843F60000C4F278
:1045B8000100194606F090F909E043F60000C4F23C
:1045C800010040F227714FF0000206F05DF843F653
:1045D8000000C4F2010040F2255106F017FB034623
:1045E800012B18D143F60000C4F2010006F086F949
:1045F8000346DBB2FB7040F22473C2F20003196871
:1046080007F1030207F10403084611461A464FF062
:10461800000301F091FB7B68002B01D001F0C8FE7C
:1046280007F10807BD4680BD80B58AB002AFF860C3
:10463800B9603B601346FB80FB881846396B01F074
:1046480095F80346BB61BB69002B00F09980BB69F4
:104658001A6BFB8803F1FF334FEA83031344FB61B2
:10466800FB6923F00703FB61FB880093B869B9680D
:10467800BA6A7B6B00F096FFF869F9683A6801F04E
:104688001FFE03461A46BB691A6001F09DFE40F6FC
:104698000403C2F200031B6803F1010240F604039D
:1046A800C2F200031A6040F60403C2F200031B685A
:1046B800012B08D140F22C73C2F20003BA691A60C8
:1046C80000F0AEFF15E040F61403C2F200031B68C9
:1046D800002B0ED140F22C73C2F200031B68DA6A79
:1046E800BB6A9A4205D840F22C73C2F20003BA6939
:1046F8001A60BB69DA6A40F60C03C2F200031B6851
:104708009A4206D9BB69DA6A40F60C03C2F2000382
:104718001A6040F62803C2F200031B6803F1010285
:1047280040F62803C2F200031A60BB69DA6A40F651
:104738001003C2F200031B689A4206D9BB69DA6A01
:1047480040F61003C2F200031A60BB69DA6A134626
:104758004FEA830313444FEA83031A4640F2307347
:10476800C2F200031A44BB6903F104031046194658
:1047780002F00EF84FF001037B6101F03BFE02E00E
:104788004FF0FF337B617B69012B17D1FB6A002B4C
:1047980002D0FB6ABA691A6040F61403C2F2000339
:1047A8001B68002B0AD040F22C73C2F200031B686E
:1047B800DA6ABB6A9A4201D201F0FAFD7B691846AF
:1047C80007F12007BD4680BD80B584B000AF786092
:1047D80001F0FAFD40F22C73C2F200031B687A68FC
:1047E8009A4202D14FF000037B607B68002B05D111
:1047F80040F22C73C2F200031B6800E07B68FB6088
:10480800FB6803F10403184602F024F8FB689B6A6E
:10481800002B05D0FB6803F11803184602F01AF8BC
:10482800FB6803F1040340F2D870C2F20000194695
:1048380001F0AEFF40F2EC73C2F200031B6803F113
:10484800010240F2EC73C2F200031A6040F628033A
:10485800C2F200031B6803F1010240F62803C2F20A
:1048680000031A6001F0C6FD40F61403C2F200030B
:104878001B68002B04D07B68002B01D101F098FD48
:1048880007F11007BD4680BD80B586B000AF7860DF
:1048980039604FF000037B6100F0FEFA7B681A680C
:1048A8003B681344FB607B681A6840F60803C2F251
:1048B80000031B689A4210D97B681A68FB689A4201
:1048C8001CD940F60803C2F200031B68FA689A4232
:1048D80016D94FF001037B6113E07B681A68FB6807
:1048E8009A4207D840F60803C2F200031B68FA6828
:1048F8009A4206D94FF001037B6102E000BF00E055
:1049080000BF7B68FA681A607B69002B39D040F2D7
:104918002C73C2F200031B6803F10403184601F06C
:1049280099FF40F22C73C2F200031B68FA685A60C0
:1049380040F60803C2F200031B68FA689A4210D2D4
:1049480040F2C073C2F200031A6840F22C73C2F23C
:1049580000031B6803F104031046194601F040FFE9
:104968000FE040F2BC73C2F200031A6840F22C73E5
:10497800C2F200031B6803F104031046194601F054
:104988002FFF00F09BFA03463B613B69002B01D1E6
:1049980001F00EFD07F11807BD4680BD80B584B053
:1049A80000AF78604FF00003FB607B68002B47D0B6
:1049B80000F072FA40F60803C2F200031A687B6836
:1049C8001344BB6040F22C73C2F200031B6803F16E
:1049D8000403184601F03EFF40F22C73C2F20003B4
:1049E8001B68BA685A6040F60803C2F200031B68E5
:1049F800BA689A4210D240F2C073C2F200031A6831
:104A080040F22C73C2F200031B6803F10403104642
:104A1800194601F0E5FE0FE040F2BC73C2F2000354
:104A28001A6840F22C73C2F200031B6803F10403F6
:104A38001046194601F0D4FE00F040FA0346FB6028
:104A4800FB68002B01D101F0B3FC07F11007BD464C
:104A580080BDC04680B584B000AF786001F0B4FC7A
:104A68007B68002B05D140F22C73C2F200031B684F
:104A780000E07B68BB60BB68DB6AFB6001F0BAFCE6
:104A8800FB68184607F11007BD4680BD80B586B0A3
:104A980000AF786039604FF000037B613B68042BFE
:104AA80002D94FF004033B6001F08EFC40F22C73F6
:104AB800C2F200031B687A689A4202D14FF00003E1
:104AC8007B607B68002B05D140F22C73C2F2000397
:104AD8001B6800E07B68FB60FB685B6C3B613A69C4
:104AE8003B689A4264D03A683B699A4206D97B6827
:104AF800002B0AD04FF001037B6107E07B68002B95
:104B080004D14FF001037B6100E000BFFB685A6CE1
:104B1800FB68DB6A9A4202D1FB683A68DA62FB6892
:104B28003A685A643B68C3F10502FB689A61FB68FE
:104B380059693A6913464FEA830313444FEA8303DA
:104B48001A4640F23073C2F20003134499422AD144
:104B5800FB6803F10403184601F07CFEFB68DA6A7F
:104B680040F61003C2F200031B689A4206D9FB689C
:104B7800DA6A40F61003C2F200031A60FB68DA6AC8
:104B880013464FEA830313444FEA83031A4640F25D
:104B98003073C2F200031A44FB6803F104031046A1
:104BA800194601F0F5FD7B69012B01D101F000FCEC
:104BB80001F020FC07F11807BD4680BD80B584B020
:104BC80000AF786001F000FC40F22C73C2F20003E1
:104BD8001B687A689A4202D14FF000037B607B68B9
:104BE800002B05D140F22C73C2F200031B6800E0D1
:104BF8007B68FB60FB6803F10403184601F02AFE9A
:104C0800FB689B6A002B05D0FB6803F11803184664
:104C180001F020FEFB6803F1040340F2F070C2F2D9
:104C28000000194601F0B4FD01F0E4FB7B68002B9D
:104C380001D101F0BDFB07F11007BD4680BDC0469C
:104C480080B485B000AF78604FF00003BB607B682C
:104C5800FB60FB685A6940F2F073C2F200039A42A3
:104C68000ED1FB689A6A40F2C473C2F200039A42FA
:104C780006D0FB689B6A002B02D14FF00103BB6092
:104C8800BB68184607F11407BD4680BC7047C0468C
:104C980080B584B000AF78607B68FB60FB68002B50
:104CA80048D040F22C73C2F200031B68FA689A429B
:104CB80040D001F089FBF868FFF7C2FF0346012BDB
:104CC80036D1FB6803F10403184601F0C3FDFB6805
:104CD800DA6A40F61003C2F200031B689A4206D94A
:104CE800FB68DA6A40F61003C2F200031A60FB6838
:104CF800DA6A13464FEA830313444FEA83031A46DA
:104D080040F23073C2F200031A44FB6803F1040353
:104D18001046194601F03CFDFB68DA6A40F22C7334
:104D2800C2F200031B68DB6A9A4201D301F040FB20
:104D380001F060FB07F11007BD4680BD80B584B067
:104D480000AF78604FF00003BB607B68FB60F868D9
:104D5800FFF776FF0346012B49D140F61803C2F24C
:104D680000031B68002B38D1FB68DA6A40F22C7309
:104D7800C2F200031B68DB6A9A4234BF0023012396
:104D8800BB60FB6803F10403184601F063FDFB6890
:104D9800DA6A40F61003C2F200031B689A4206D989
:104DA800FB68DA6A40F61003C2F200031A60FB6877
:104DB800DA6A13464FEA830313444FEA83031A4619
:104DC80040F23073C2F200031A44FB6803F1040393
:104DD8001046194601F0DCFC09E0FB6803F11803F2
:104DE80040F2C470C2F20000194601F0D1FCBB6861
:104DF800184607F11007BD4680BDC04680B586B08D
:104E080004AF40F6EC23C0F602034FF00002009214
:104E18004FF0000201924FF0000202924FF00002A0
:104E2800039245F28950C0F6000019464FF08002FF
:104E38004FF00003FFF7F8FB03467B607B68012B0C
:104E480013D14FF0BF0080F3118840F61403C2F26B
:104E580000034FF001021A6040F60803C2F2000393
:104E68004FF000021A6001F073FA07F10807BD4617
:104E780080BDC04680B500AF4FF0BF0080F31188F9
:104E880040F61403C2F200034FF000021A6001F06A
:104E980089FABD4680BDC04680B400AF40F618030D
:104EA800C2F200031B6803F1010240F61803C2F2C4
:104EB80000031A60BD4680BC7047C04690B583B0F9
:104EC80000AF4FF000033B6001F07EFA40F6180394
:104ED800C2F200031B6803F1FF3240F61803C2F266
:104EE80000031A6040F61803C2F200031B68002B87
:104EF80040F08C8040F60403C2F200031B68002BCC
:104F080000F084804FF000037B6036E004F1180362
:104F1800184601F09FFC04F10403184601F09AFCBE
:104F2800E26A40F61003C2F200031B689A4205D9F0
:104F3800E26A40F61003C2F200031A60E26A1346FE
:104F48004FEA830313444FEA83031A4640F230734F
:104F5800C2F200031A4404F104031046194601F092
:104F680017FCE26A40F22C73C2F200031B68DB6A8A
:104F78009A4202D34FF001037B6040F2C473C2F23D
:104F880000031B68002B06D040F2C473C2F2000372
:104F9800DB68DB6801E04FF000031C46002CB5D14C
:104FA80040F61C03C2F200031B68002B18D00DE06A
:104FB80000F054F840F61C03C2F200031B6803F12A
:104FC800FF3240F61C03C2F200031A6040F61C03CD
:104FD800C2F200031B68002BEAD14FF001037B608B
:104FE8007B68012B06D040F62003C2F200031B6841
:104FF800012B0BD14FF001033B6040F62003C2F2B6
:1050080000034FF000021A6001F0D2F901F0F2F942
:105018003B68184607F10C07BD4690BD80B582B0C5
:1050280000AF01F0D1F940F60803C2F200031B6893
:105038007B6001F0DFF97B68184607F10807BD4679
:1050480080BDC04680B400AF40F60403C2F200033E
:105058001B681846BD4680BC7047C04690B583B0F3
:1050680000AF40F61803C2F200031B68002B40F0A3
:10507800828040F60803C2F200031B6803F10102B4
:1050880040F60803C2F200031A6040F60803C2F2B1
:1050980000031B68002B58D140F2BC73C2F2000316
:1050A8001B687B6040F2C073C2F200031A6840F2CA
:1050B800BC73C2F200031A6040F2C073C2F200036C
:1050C8007A681A6040F62403C2F200031B6803F1F1
:1050D800010240F62403C2F200031A6035E0626858
:1050E80040F60803C2F200031B689A424FD804F145
:1050F8000403184601F0AEFBA36A002B04D004F1A8
:105108001803184601F0A6FBE26A40F61003C2F243
:1051180000031B689A4205D9E26A40F61003C2F2FE
:1051280000031A60E26A13464FEA830313444FEA06
:1051380083031A4640F23073C2F200031A4404F1A2
:1051480004031046194601F023FB40F2BC73C2F277
:1051580000031B681B68002B07D040F2BC73C2F227
:1051680000031B68DB68DB6801E04FF000031C46A6
:10517800002CB4D10BE040F61C03C2F200031B68FC
:1051880003F1010240F61C03C2F200031A6007F1A2
:105198000C07BD4690BDC04680B582B000AF40F652
:1051A8001803C2F200031B68002B07D040F6200347
:1051B800C2F200034FF001021A6090E040F22C7333
:1051C800C2F200031B681A6840F22C73C2F2000393
:1051D8001B681B6B9A4210D840F22C73C2F2000372
:1051E8001B681A4640F22C73C2F200031B6803F1D5
:1051F800340310461946FEF7ABFD40F22C73C2F299
:1052080000031B681B6B184643F21C21C0F6020101
:105218004FF0140217F0A6FC0346002B1ED040F2F4
:105228002C73C2F200031B681A4640F22C73C2F2B8
:1052380000031B6803F1340310461946FEF788FD86
:105248000DE040F61003C2F200031B6803F1FF32C1
:1052580040F61003C2F200031A6000E000BF40F6F7
:105268001003C2F200031A6813464FEA830313447B
:105278004FEA83031A4640F23073C2F20003134424
:105288001B68002BDDD040F61003C2F200031A6839
:1052980013464FEA830313444FEA83031A4640F246
:1052A8003073C2F2000313447B607B685B685A6802
:1052B8007B685A607B685A687B6803F108039A42E6
:1052C80004D17B685B685A687B685A607B685B6856
:1052D800DB681A4640F22C73C2F200031A6007F129
:1052E8000807BD4680BDC04680B584B000AF786071
:1052F800396040F22C73C2F200031B6803F11803F3
:105308007868194601F06CFA40F22C73C2F2000377
:105318001B6803F10403184601F09CFA3B68B3F1DB
:10532800FF3F0ED140F22C73C2F200031B6803F159
:10533800040340F2F070C2F20000194601F028FAA6
:1053480037E040F60803C2F200031A683B681344CA
:10535800FB6040F22C73C2F200031B68FA685A60C3
:1053680040F60803C2F200031B68FA689A4210D29A
:1053780040F2C073C2F200031A6840F22C73C2F202
:1053880000031B6803F104031046194601F028FACC
:105398000FE040F2BC73C2F200031A6840F22C73AB
:1053A800C2F200031B6803F104031046194601F01A
:1053B80017FA07F11007BD4680BDC04680B584B016
:1053C80000AF78607B681B68002B03D07B68DB68C4
:1053D800DB6801E04FF00003BB60BB6803F1180312
:1053E800184601F037FA40F61803C2F200031B68AA
:1053F800002B2BD1BB6803F10403184601F02AFAED
:10540800BB68DA6A40F61003C2F200031B689A42CE
:1054180006D9BB68DA6A40F61003C2F200031A60C4
:10542800BB68DA6A13464FEA830313444FEA8303DF
:105438001A4640F23073C2F200031A44BB6803F103
:1054480004031046194601F0A3F909E0BB6803F10B
:10545800180340F2C470C2F20000194601F098F92E
:10546800BB68DA6A40F22C73C2F200031B68DB6A7D
:105478009A4203D34FF00103FB6002E04FF00003B0
:10548800FB60FB68184607F11007BD4680BDC046A3
:1054980080B483B000AF786040F62403C2F2000302
:1054A8001A687B681A6040F60803C2F200031A689B
:1054B8007B685A6007F10C07BD4680BC7047C04640
:1054C80080B584B000AF7860396000F07DFF3B683C
:1054D8001B68B3F1FF3F03D14FF00003FB603AE0D4
:1054E8007B681A6840F62403C2F200031B689A42DC
:1054F8000CD07B685A6840F60803C2F200031B68A8
:105508009A4203D84FF00103FB6024E040F60803F9
:10551800C2F200031A687B685B68C3EB02023B684F
:105528001B689A4214D23B681A687B68596840F62F
:105538000803C2F200031B68C3EB01031A443B686B
:105548001A607868FFF7A4FF4FF00003FB6002E0E1
:105558004FF00103FB6000F04DFFFB68184607F1B0
:105568001007BD4680BDC04680B400AF40F620039A
:10557800C2F200034FF001021A60BD4680BC7047BA
:1055880080B582B000AF786000E000BF00F09AF804
:1055980040F23073C2F200031B68012BF5D900F00A
:1055A80007FFF3E780B584B000AFF860B9607A60B0
:1055B8003B60FB6803F134031A46BB681046194682
:1055C8004FF0100217F0BEFBFB684FF0000283F8A3
:1055D80043207B68042B02D94FF004037B60FB68EF
:1055E8007A68DA62FB687A685A64FB6803F1040334
:1055F800184601F0BFF8FB6803F11803184601F0DC
:10560800B9F8FB68FA681A617B68C3F10502FB68A0
:105618009A61FB68FA685A6207F11007BD4680BDB7
:1056280080B582B000AF4FF000037B6013E07A686A
:1056380013464FEA830313444FEA83031A4640F2A2
:105648003073C2F200031344184601F06FF87B6808
:1056580003F101037B607B68042BE8D940F2947066
:10566800C2F2000001F062F840F2A870C2F2000035
:1056780001F05CF840F2C470C2F2000001F056F884
:1056880040F2D870C2F2000001F050F840F2F07019
:10569800C2F2000001F04AF840F2BC73C2F2000303
:1056A80040F29472C2F200021A6040F2C073C2F271
:1056B800000340F2A872C2F200021A6007F108075C
:1056C800BD4680BD80B582B000AF40F2EC73C2F237
:1056D80000031B68002B43D0FFF7DEFB40F2D873B2
:1056E800C2F200031B68002B14BF002301233B6098
:1056F800FFF7E4FB3B68002B32D100F065FE40F277
:10570800D873C2F200031B68002B03D0164B5B68EA
:10571800DB6801E04FF000037B607B6803F1040362
:10572800184601F097F840F60403C2F200031B681C
:1057380003F1FF3240F60403C2F200031A6040F29C
:10574800EC73C2F200031B6803F1FF3240F2EC7302
:10575800C2F200031A6000F04DFE786800F07AF893
:1057680007F10807BD4680BDE007002080B584B07A
:1057780000AF03463960FB804FF0480000F0A6FEFA
:105788000346FB60FB68002B23D03B68002B07D146
:10579800FB884FEA8303184600F098FE034600E0B2
:1057A8003B68FA681363FB681B6B002B06D1F8682B
:1057B80000F066FF4FF00003FB600AE0FB681A6B1D
:1057C800FB884FEA830310464FF0A5011A4617F0ED
:1057D800E7F9FB68184607F11007BD4680BDC046CB
:1057E80090B482B000AF78604FF0000406E07B68A8
:1057F80003F101037B6004F101039CB27B681B7811
:10580800A52BF4D04FEA94039CB22346184607F11F
:105818000807BD4690BC704780B586B000AF786079
:105828007B68002B05D140F22C73C2F200031B6881
:1058380000E07B68FB60FB681B6B3B613869FFF726
:10584800CFFF03467B617B69184607F11807BD4601
:1058580080BDC04680B582B000AF78607B681B6BA6
:10586800184600F00DFF786800F00AFF07F10807F6
:10587800BD4680BD80B483B000AF40F22C73C2F245
:1058880000031B687B607B68184607F10C07BD4660
:1058980080BC704780B584B000AF78607B68FB60DF
:1058A800FB68DA6A40F22C73C2F200031B68DB6AF9
:1058B8009A4257D240F22C73C2F200031B68DB6A8B
:1058C800C3F10502FB689A61FB685969FB68DA6AEB
:1058D80013464FEA830313444FEA83031A4640F200
:1058E8003073C2F200031344994233D1FB6803F1C9
:1058F8000403184600F0AEFF40F22C73C2F2000316
:105908001B68DA6AFB68DA62FB68DA6A40F6100339
:10591800C2F200031B689A4206D9FB68DA6A40F6AD
:105928001003C2F200031A60FB68DA6A13464FEAF2
:10593800830313444FEA83031A4640F23073C2F2DA
:1059480000031A44FB6803F104031046194600F0EB
:105958001FFF07E040F22C73C2F200031B68DA6AEB
:10596800FB68DA6207F11007BD4680BD80B584B0D8
:1059780000AF78607B68FB607B68002B3AD0FB68DF
:10598800DA6AFB685B6C9A4234D0FB6803F1040363
:10599800184600F05FFFFB685A6CFB68DA62FB6828
:1059A800DB6AC3F10502FB689A61FB68DA6A40F6B4
:1059B8001003C2F200031B689A4206D9FB68DA6A30
:1059C80040F61003C2F200031A60FB68DA6A134655
:1059D8004FEA830313444FEA83031A4640F23073B5
:1059E800C2F200031A44FB6803F104031046194687
:1059F80000F0CEFE07F11007BD4680BD80B584B02B
:105A080000AF786039607B68002B55D04FF04C00B0
:105A180000F05CFD0346BB60BB68002B4CD07B6884
:105A28003A6802FB03F303F10103FB60F86800F036
:105A38004DFD03461A46BB681A60BB681B68002BFD
:105A480037D0BB681A687B68396801FB03F31A44CE
:105A5800BB685A60BB684FF000029A63BB681A685B
:105A6800BB689A60BB681A687B6803F1FF333968C2
:105A780001FB03F31A44BB68DA60BB687A68DA632F
:105A8800BB683A681A64BB684FF0FF325A64BB6857
:105A98004FF0FF329A64BB6803F11003184600F018
:105AA80045FEBB6803F12403184600F03FFEBB68BF
:105AB80004E0B86800F0E4FD4FF00003184607F171
:105AC8001007BD4680BDC04680B582B000AF4FF01C
