:020000040800F2
:1000000000000120B9A7010801B201080DB20108E2
:1000100015B201081DB2010825B201080000000058
:100020000000000000000000000000002DB20108E8
:1000300039B201080000000045B2010851B20108C0
:1000400059A8010859A8010859A8010859A8010888
:1000500059A8010859A8010859A8010859A8010878
:1000600059A8010859A8010859A8010859A8010868
:1000700059A8010859A8010859A8010859A8010858
:1000800059A8010859A8010859A8010859A8010848
:1000900059A8010859A8010859A8010859A8010838
:1000A00059A8010859A8010859A8010859A8010828
:1000B00059A8010859A8010859A8010859A8010818
:1000C00059A8010859A8010859A8010859A8010808
:1000D00059A801085DB2010859A8010859A80108EA
:1000E00059A8010859A8010859A8010800000000F2
:1000F0000000000000000000000000000000000000
:10010000000000000000000059A8010859A80108DB
:1001100059A8010859A8010859A8010859A80108B7
:1001200059A8010859A8010859A8010859A80108A7
:1001300059A8010859A8010859A8010859A8010897
:1001400059A8010859A8010859A80108A1B2010835
:10015000000000000000000000000000000000009F
:10016000000000000000000000000000000000008F
:10017000000000000000000000000000000000007F
:10018000000000000000000000000000000000006F
:10019000000000000000000000000000000000005F
:1001A000000000000000000000000000000000004F
:1001B000000000000000000000000000000000003F
:1001C000000000000000000000000000000000002F
:1001D000000000000000000000000000000000001F
:0401E0005FF8E0F1F3
:1001E400032AC9B270B407D822B10023C154013321
:1001F4009342FBD170BC704785070244034603D089
:1002040003F8011B9C07FBD10C02D51A64182604C1
:100214003F2D34441ADD1C605C609C60DC601C6112
:100224005C619C61DC611C625C629C62DC621C63DC
:100234005C639C63DC634033D51A3F2DEBDC05E043
:100244001C605C609C60DC601033D51A0F2DF7DCF9
:1002540002E043F8044BD51A032DFADC9342C9D2C9
:1002640003F8011B9342FBD1C4E700BF4FF0000425
:10027400EFF309842046704723461846034683F368
:10028400098870474FF00004EFF308842046704754
:1002940023461846034683F30888704790B482B017
:1002A40000AF4FF000037B60EFF312847C607B6847
:1002B400184607F10807BD4690BC704780B483B068
:1002C40000AF78607B6883F3118807F10C07BD46A3
:1002D40080BC704790B482B000AF4FF000037B60E5
:1002E400EFF310847C607B68184607F10807BD466D
:1002F40090BC704780B483B000AF78607B6883F3B0
:10030400108807F10C07BD4680BC704790B482B0DA
:1003140000AF4FF000037B60EFF313847C607B68D5
:10032400184607F10807BD4690BC704780B483B0F7
:1003340000AF78607B6883F3138807F10C07BD4630
:1003440080BC704790B482B000AF4FF000037B6074
:10035400EFF314847C607B68184607F10807BD46F8
:1003640090BC704780B483B000AF78607B6883F33F
:10037400148807F10C07BD4680BC704790B484B064
:1003840000AF78604FF00003FB607B681CBAFC6030
:10039400FB68184607F11007BD4690BC704700BFC4
:1003A40090B484B000AF0346FB804FF00003FB60C1
:1003B400FB885CBAFC60FB68184607F11007BD4671
:1003C40090BC704790B484B000AF0346FB804FF0FC
:1003D4000003FB60FB88DCBAFC60FB68184607F18D
:1003E4001007BD4690BC704790B484B000AF7860ED
:1003F4004FF00003FB607B6893FAA3F4FC60FB6896
:10040400184607F11007BD4690BC704790B484B0FD
:1004140000AF78604FF00003FB737B68D3E84F4F65
:10042400FC73FB7B184607F11007BD4690BC704770
:1004340090B484B000AF78604FF00003FB817B6818
:10044400D3E85F4FFC81FB89184607F11007BD46CE
:1004540090BC704790B484B000AF78604FF0000354
:10046400FB607B6853E8004FFC60FB68184607F1AB
:100474001007BD4690BC704790B484B000AF0346EB
:100484003960FB714FF00003FB603B68FA79C3E805
:10049400442FFC60FB68184607F11007BD4690BC6A
:1004A400704700BF90B484B000AF03463960FB804E
:1004B4004FF00003FB603B68FA88C3E8542FFC60EC
:1004C400FB68184607F11007BD4690BC704700BF93
:1004D40090B484B000AF786039604FF00003FB60E3
:1004E4003B687A6843E80024FC60FB68184607F11F
:1004F4001007BD4690BC704780B582B000AF0FF0C6
:100504000DF84FF08003BB704FF04003BB804FF0F9
:100514000003FB703B4618460FF0A0F84FF00003B1
:10052400BB703B4618460FF099F84FF000000FF0EF
:1005340053FA0346184619F0C5FC0FF0A9FA19F04E
:10054400C3F807F10807BD4680BD00BF80B586B07B
:1005540000AF13460246FA710A46BA71BB80FB79B2
:10056400BB73BB79FB73BB883B82FB7918460FF0E6
:10057400C7F907F10C0318460FF070F8FB795BB26A
:10058400002B0ADBFB7903F07F0318460FF024FAF3
:100594007861786919F096FC10E0FB7903F07F0329
:1005A40018460FF0FDF978617B694FF000021A7369
:1005B400FB7918464FF0200100F038F807F11807CE
:1005C400BD4680BD80B584B000AF0346FB714FF0DB
:1005D4000003FB60FB7903F07F0318460FF0E0F99A
:1005E400B860B86819F0A6FFF860FB68184607F110
:1005F4001007BD4680BD00BF80B584B000AF034680
:10060400FB714FF00003FB60FB7903F07F03184696
:100614000FF0E2F9B860B86819F08CFFF860FB6875
:10062400184607F11007BD4680BD00BF80B584B0F1
:1006340000AF03463960FB71FB7903F07F03184672
:100644000FF0AEF9F860FB79802B06D13B68102BD4
:1006540003D1FB684FF001025A70F868396819F049
:10066400CDFF07F11007BD4680BD00BF80B584B043
:1006740000AF03463960FB71FB7903F07F03184632
:100684000FF0AAF9F860F868396819F0B7FF07F1B4
:100694001007BD4680BD00BF80B500AF0FF0D8F98C
:1006A40080BD00BF80B500AF0FF0B2F980BD00BFC0
:1006B40080B582B000AF02460B46FA71BB80BB889E
:1006C400FA7910461946FFF7B1FF07F10807BD464E
:1006D40080BD00BF80B582B000AF02460B46FA7100
:1006E400BB80BB88FA7910461946FFF7BFFF07F1B4
:1006F4000807BD4680BD00BF80B582B000AF034689
:10070400FB71FB791846FFF75DFF03469BB2184661
:1007140007F10807BD4680BD80B582B000AF03462F
:10072400FB71FB791846FFF767FF03469BB2184637
:1007340007F10807BD4680BD80B582B000AF03460F
:10074400FB71FB7918464FF03001FFF76FFF07F19B
:100754000807BD4680BD00BF80B582B000AF034628
:10076400FB71FB7918464FF44051FFF77FFF07F107
:100774000807BD4680BD00BF80B582B000AF034608
:10078400FB71FB791846FFF71DFF0346102B14BFBE
:10079400002301239BB2184607F10807BD4680BD1C
:1007A40080B582B000AF0346FB71FB791846FFF7B2
:1007B40023FF0346B3F5805F14BF002301239BB2DC
:1007C400184607F10807BD4680BD00BF80B483B05A
:1007D40000AF02460B46FA71BB8007F10C07BD4619
:1007E40080BC704780B483B000AF02460B46FA71F8
:1007F400BB8007F10C07BD4680BC704780B485B050
:1008040000AF02460B46FA71BB714FF00003FB8147
:10081400BB799AB2FB794FEA03239BB213439BB291
:10082400FB81FB89184607F11407BD4680BC70475D
:1008340080B485B000AF0346FB804FF00003FB7328
:100844004FF00003BB81FB88FB73FB884FEA132343
:100854009BB29AB2FB7B4FEA03239BB213439BB236
:10086400BB81BB89184607F11407BD4680BC70479D
:1008740080B584B000AF0346FB71FA794CF2D873AB
:10088400C0F6010353F8223018464FF0010111F06D
:1008940019FCFA794CF2D073C0F6010333F8123024
:1008A400BB814FF01003FB734FF00303BB73FA7962
:1008B40040F20003C2F2000353F8222007F10C03B4
:1008C400104619460FF094FC07F11007BD4680BD91
:1008D40080B483B000AF0346FB71FA7940F20003A1
:1008E400C2F2000353F82220F9794CF2D073C0F617
:1008F400010333F81130136107F10C07BD4680BCC6
:10090400704700BF80B483B000AF0346FB71FA792F
:1009140040F20003C2F2000353F82220F9794CF2AA
:10092400D073C0F6010333F81130536107F10C079B
:10093400BD4680BC704700BF80B483B000AF03469F
:10094400FB71FA7940F20003C2F2000353F822204B
:10095400F97940F20003C2F2000353F82130D96858
:10096400F8794CF2D073C0F6010333F810304B40E1
:10097400D36007F10C07BD4680BC704780B586B0D4
:1009840000AF02460B46FA71BB71FA794CF2F87368
:10099400C0F6010353F8223043F0010318464FF028
:1009A400010111F08FFB4FF00403FB75FA794CF24F
:1009B400E873C0F6010333F81230BB82FA7940F2CF
:1009C4001003C2F2000353F8222007F11403104667
:1009D40019460FF00DFCBB79012B47D1FA794CF67F
:1009E4002803C0F6010333F81230DAB2F9794CF671
:1009F4003803C0F6010333F81130DBB21046194650
:100A040010F06EFBFA794CF61803C0F6010333F8C4
:100A14001230FB604FF000033B74FB79002B03D0D2
:100A24004FF00C037B7402E04FF008037B744FF02B
:100A34000103BB7407F10C0318461AF091F9FA7913
:100A44004CF64803C0F6010333F81230DBB23B72B4
:100A54004FF00F037B724FF00F03BB724FF0010393
:100A6400FB7207F10803184613F0D0FC07F11807CE
:100A7400BD4680BD80B582B000AF0346FB71FA79F4
:100A840040F21003C2F2000353F82220F9794CF229
:100A9400E873C0F6010333F81130104619460FF01D
:100AA40015FD0346184607F10807BD4680BD00BF83
:100AB40080B584B000AF03463960FB71FA794CF617
:100AC4006003C0F6010353F82220F9794CF6680359
:100AD400C0F6010353F82130134343F001031846D1
:100AE4004FF0010111F0EEFAFB79002B0CD1FA79E9
:100AF4004CF65803C0F6010353F8223018464FF061
:100B0400010111F0DFFA0BE0FA794CF65803C0F654
:100B1400010353F8223018464FF0010111F01CFB79
:100B24004FF01803FB73FA794CF67003C0F6010317
:100B340033F81230BB814FF00303BB73FA7940F2F0
:100B44003803C2F2000353F8222007F10C031046C5
:100B540019460FF04DFB4FF00403FB73FA794CF682
:100B64007403C0F6010333F81230BB81FA7940F202
:100B74004003C2F2000353F8222007F10C0310468D
:100B840019460FF035FBFA7940F23003C2F2000344
:100B940053F822301846396811F0E6FDFA7940F22C
:100BA4003003C2F2000353F8223018464FF001011B
:100BB40012F048F807F11007BD4680BD80B582B039
:100BC40000AF4FF000001AF063FC4FF000001AF081
:100BD4007DFC1AF069FB4FF4F853BB804FF004031B
:100BE400FB7107F104034FF48050C4F2010019466D
:100BF4000FF0FEFA4FF00403BB8007F104034FF437
:100C0400A050C4F2010019460FF0F2FA07F10807E8
:100C1400BD4680BD80B582B000AF4FF0B0004FF04C
:100C2400010111F04FFA4FF4F853BB804FF0030366
:100C3400BB714FF01803FB7107F104034FF48050AC
:100C4400C4F2010019460FF0D3FA4FF00403BB803D
:100C540007F104034FF4A050C4F2010019460FF049
:100C6400C7FA4FF40063BB804FF04803FB7107F1F0
:100C740004034FF4E050C4F2010019460FF0B8FA2F
:100C84004FF002004FF0010111F0D4F907F1080709
:100C9400BD4680BD80B58EB000AF786039604FF43A
:100CA4007040C1F2000016F053FB40F24440C4F21D
:100CB40002004FF0000116F015F848F28003C4F268
:100CC4000103FB607B683B614FF010037B613B6871
:100CD4004FEA9303BB614FF00003FB614FF08003C5
:100CE4003B624FF400737B624FF40063BB624FF0CE
:100CF4000003FB624FF400533B634FF000037B633C
:100D040007F10C0340F24440C4F20200194615F006
:100D14006FFE40F24440C4F202004FF0010115F0AE
:100D2400E1FF07F13807BD4680BD00BF80B58EB036
:100D340000AF786039604FF47040C1F2000016F0E3
:100D440007FB40F24440C4F202004FF0000115F0EA
:100D5400C9FF48F28003C4F20103FB607B683B6176
:100D64004FF000037B613B684FEA9303BB614FF094
:100D74000003FB614FF080033B624FF400737B621E
:100D84004FF40063BB624FF00003FB624FF4005367
:100D94003B634FF000037B6307F10C0340F24440D4
:100DA400C4F20200194615F023FE40F24440C4F296
:100DB40002004FF0010115F095FF07F13807BD4619
:100DC40080BD00BF80B500AF4FF40050C1F20000F9
:100DD40016F078F90346184680BD00BF80B582B08E
:100DE40000AF4FF44050C4F201004FF0000101F095
:100DF400D5FC4FF44050C4F2010001F063F94FF404
:100E040080504FF0000111F05DF94FF02003BB80DA
:100E14004FF00403FB7107F104034FF40060C4F2C4
:100E2400010019460FF0E4F94FF04003BB8007F1CD
:100E340004034FF40060C4F2010019460FF0D8F91E
:100E44004FF08003BB8007F104034FF40060C4F249
:100E5400010019460FF0CCF94FF00403BB8007F1F1
:100E640004034FF44060C4F2010019460FF0C0F9C6
:100E740007F10807BD4680BD80B582B000AF4FF0D2
:100E84000C004FF0010111F01DF94FF480504FF0A8
:100E9400010111F017F94FF02003BB804FF0030359
:100EA400BB714FF01803FB7107F104034FF40060AA
:100EB400C4F2010019460FF09BF94FF08003BB8088
:100EC40007F104034FF40060C4F2010019460FF067
:100ED4008FF94FF04003BB804FF00403FB7107F11F
:100EE40004034FF40060C4F2010019460FF080F9C6
:100EF4004FF00403BB804FF01003FB7107F10403B0
:100F04004FF44060C4F2010019460FF071F907F183
:100F14000807BD4680BD00BF80B582B000AF4FF466
:100F2400A840C4F200004FF0000116F073FD4FF426
:100F3400A840C4F2000016F0B5FB4FF400104FF0C7
:100F4400000111F009F94FF04003BB804FF0040396
:100F5400FB7107F104034FF44060C4F20100194629
:100F64000FF046F94FF08003BB8007F104034FF400
:100F74004060C4F2010019460FF03AF94FF0200323
:100F8400BB8007F104034FF44060C4F2010019462A
:100F94000FF02EF907F10807BD4680BD80B582B079
:100FA40000AF4FF400104FF0010111F0D5F84FF0ED
:100FB40008004FF0010111F085F84FF04003BB80A9
:100FC4004FF00303BB714FF01C03FB7107F10403E3
:100FD4004FF44060C4F2010019460FF009F94FF0D4
:100FE4008003BB8007F104034FF44060C4F20100A6
:100FF40019460FF0FDF84FF02003BB804FF0480373
:10100400FB7107F104034FF44060C4F20100194678
:101014000FF0EEF807F10807BD4680BD80B400AFBD
:101024004FF44053C4F202034FF001029A60BD46EC
:1010340080BC704780B483B000AF78604FF44053F5
:10104400C4F202037A681A604FF44053C4F20203F4
:101054001B68184607F10C07BD4680BC704700BFEB
:1010640080B485B000AF786039604FF00003FB6056
:101074004FF00003FB600EE04FF44053C4F2020350
:10108400FA684FEA820279688A1812681A60FB6863
:1010940003F10103FB60FA683B689A42ECD34FF416
:1010A4004053C4F202031B68184607F11407BD46F7
:1010B40080BC704780B400AF4FF44053C4F20203C5
:1010C4001B681846BD4680BC704700BF80B483B01F
:1010D40000AF0346FB714FF44053C4F20203FA79A4
:1010E4001A7107F10C07BD4680BC704780B400AF8D
:1010F4004FF44053C4F202031B79DBB21846BD46D9
:1011040080BC704780B584B000AF78604FF00003B6
:10111400FB607B68002B0DD07B68012B0AD07B68B9
:10112400022B07D04CF2D440C0F6010040F2031168
:101134001BF0C8F94FF40053C4F202031B68FB60B0
:10114400FB6803F03803FB60FA687B681343FB60B9
:101154004FF40053C4F20203FA681A6007F110074F
:10116400BD4680BD80B582B000AF78607B68082B37
:101174000AD07B68002B07D04CF2D440C0F60100A3
:101184004FF48E711BF09EF94FF40053C4F2020326
:101194004FF40052C4F20202126822F008021A60EC
:1011A4004FF40053C4F202034FF40052C4F202029B
:1011B40011687A680A431A6007F10807BD4680BDC2
:1011C40080B582B000AF78607B68102B0AD07B6852
:1011D400002B07D04CF2D440C0F6010040F22F118E
:1011E4001BF070F94FF40053C4F202034FF40052A1
:1011F400C4F20202126822F010021A604FF4005383
:10120400C4F202034FF40052C4F2020211687A6875
:101214000A431A6007F10807BD4680BD80B400AFD9
:101224004FF40053C4F2020340F22312C4F2675293
:101234005A604FF40053C4F2020348F6AB12CCF6E2
:10124400EF525A60BD4680BC704700BF80B400AF07
:101254004FF40053C4F2020340F22312C4F2675263
:101264005A604FF40053C4F2020348F6AB12CCF6B2
:10127400EF525A60BD4680BC704700BF80B400AFD7
:101284004FF40053C4F202034FF40052C4F20202BA
:10129400126942F080021A61BD4680BC704700BFEB
:1012A40080B400AF4FF40053C4F202034FF4005271
:1012B400C4F20202126942F080021A61BD4680BC87
:1012C400704700BF80B584B000AF78604FF004036E
:1012D400FB737A686FF078439A4206D97A684FF6BE
:1012E400FE73C0F60F039A4207D94CF2D440C0F6FD
:1012F400010040F2A7111BF0E5F84FF4302000F094
:10130400E9FD0346FB73FB7B042B30D14FF4005300
:10131400C4F202034FF40052C4F20202126942F012
:1013240002021A614FF40053C4F202037A685A614C
:101334004FF40053C4F202034FF40052C4F2020209
:10134400126942F040021A614FF4302000F0C2FDED
:101354000346FB734FF40053C4F202034FF40052EC
:10136400C4F20202116941F6FD720A401A61FB7B64
:10137400184607F11007BD4680BD00BF80B582B096
:1013840000AF4FF00403FB714FF4302000F0A2FDD6
:101394000346FB71FB79042B2AD14FF40053C4F2AA
:1013A40002034FF40052C4F20202126942F0040232
:1013B4001A614FF40053C4F202034FF40052C4F212
:1013C4000202126942F040021A614FF4302000F028
:1013D40081FD0346FB714FF40053C4F202034FF442
:1013E4000052C4F20202116941F6FB720A401A610A
:1013F400FB79184607F10807BD4680BD80B582B069
:1014040000AF4FF00403FB714FF4302000F088FD6F
:101414000346FB71FB79042B2AD14FF40053C4F229
:1014240002034FF40052C4F20202126942F00402B1
:101434001A614FF40053C4F202034FF40052C4F291
:101444000202126942F040021A614FF4302000F0A7
:1014540067FD0346FB714FF40053C4F202034FF4DB
:101464000052C4F20202116941F6FB720A401A6189
:10147400FB79184607F10807BD4680BD80B582B0E8
:1014840000AF4FF0A503FB804FF004037B7100F025
:10149400BBFB0346002B02D04FF00003FB804FF44C
:1014A400302000F017FD03467B717B79042B78D143
:1014B4004FF40053C4F2020340F22312C4F2675201
:1014C4009A604FF40053C4F2020348F6AB12CCF610
:1014D400EF529A604FF40053C4F202034FF40052E7
:1014E400C4F20202126942F020021A614FF400535E
:1014F400C4F202034FF40052C4F20202126942F031
:1015040040021A614FF4302000F0E4FC03467B7182
:101514007B79042B35D14FF40053C4F202034FF40A
:101524000052C4F20202116941F6DF720A401A61E4
:101534004FF40053C4F202034FF40052C4F2020207
:10154400126942F010021A614FF47843C1F6FF7336
:10155400FA881A804FF4005000F0BCFC03467B71FB
:101564007B79052B1DD04FF40053C4F202034FF4D2
:101574000052C4F20202116941F6EF720A401A6184
:101584000FE07B79052B0CD04FF40053C4F2020317
:101594004FF40052C4F20202116941F6EF720A409C
:1015A4001A617B79184607F10807BD4680BD00BF64
:1015B40080B584B000AF786039604FF00403FB73EA
:1015C4004FF00003BB607A686FF078439A4206D903
:1015D4007A684FF6FE73C0F60F039A4207D94CF2AD
:1015E400D440C0F6010040F2AF211AF06BFF4FF473
:1015F400005000F06FFC0346FB73FB7B042B43D1CC
:101604004FF40053C4F202034FF40052C4F2020236
:10161400126942F001021A617B683A6892B21A8038
:101624004FF4005000F056FC0346FB73FB7B042B85
:101634001DD17B6803F10203BB60BB683A684FEAC3
:10164400124292B21A804FF4005000F043FC034659
:10165400FB734FF40053C4F202034FF40052C4F27C
:101664000202116941F6FE720A401A610CE04FF45D
:101674000053C4F202034FF40052C4F2020211698F
:1016840041F6FE720A401A61FB7B184607F1100707
:10169400BD4680BD80B584B000AF78600B467B80CA
:1016A4004FF00403FB737A686FF078439A4206D9CB
:1016B4007A684FF6FE73C0F60F039A4207D94CF2CC
:1016C400D440C0F6010040F25E311AF0FBFE4FF444
:1016D400005000F0FFFB0346FB73FB7B042B21D17E
:1016E4004FF40053C4F202034FF40052C4F2020256
:1016F400126942F001021A617B687A881A804FF4F9
:10170400005000F0E7FB0346FB734FF40053C4F2B0
:1017140002034FF40052C4F20202116941F6FE7250
:101724000A401A61FB7B184607F11007BD4680BDCD
:1017340080B584B000AF78600B46FB704FF00403B3
:10174400FB737A684FF60403C1F6FF739A420ED016
:101754007A684FF60603C1F6FF739A4207D04CF23B
:10176400D440C0F6010040F2A5311AF0ABFE4FF4AC
:10177400005000F0AFFB0346FB73FB7B042B37D117
:101784004FF40053C4F2020340F22312C4F267522E
:101794009A604FF40053C4F2020348F6AB12CCF63D
:1017A400EF529A604FF40053C4F202034FF4005214
:1017B400C4F20202126942F010021A617B68FA78DC
:1017C40092B21A804FF4005000F084FB0346FB737E
:1017D400FB7B052B0CD04FF40053C4F202034FF4EF
:1017E4000052C4F20202116941F6EF720A401A6112
:1017F400FB7B184607F11007BD4680BD80B586B057
:1018040000AF78604FF6FF73BB824FF6FF737B82A5
:101814004FF6FF733B824FF6FF73FB814FF00403D7
:10182400FB757B68002B07D14CF2D440C0F6010055
:1018340040F2D6311AF046FE7B686FEA03037B6000
:101844007B689BB2DBB2BB827B6803F47F434FEAC5
:1018540013237B827B6803F47F034FEA13433B82A9
:101864007B684FEA1363FB814FF4005000F032FBB6
:101874000346FB75FB7D042B72D14FF40053C4F275
:10188400020340F22312C4F267529A604FF40053E9
:10189400C4F2020348F6AB12CCF6EF529A604FF44E
:1018A4000053C4F202034FF40052C4F2020212695C
:1018B40042F010021A61BB8AFF2B0BD04FF478431D
:1018C400C1F6FF73BA8A1A814FF4005000F002FB8C
:1018D4000346FB75FB7D042B0ED17B8AFF2B0BD0BB
:1018E4004FF47843C1F6FF737A8A5A814FF400505B
:1018F40000F0F0FA0346FB75FB7D042B0ED13B8A06
:10190400FF2B0BD04FF47843C1F6FF733A8A9A81C8
:101914004FF4005000F0DEFA0346FB75FB7D042B08
:101924000ED1FB89FF2B0BD04FF47843C1F6FF7324
:10193400FA89DA814FF4005000F0CCFA0346FB75C3
:10194400FB7D052B0CD04FF40053C4F202034FF47B
:101954000052C4F20202116941F6EF720A401A61A0
:10196400FB7D184607F11807BD4680BD80B584B0DD
:1019740000AF0346FB714FF00403FB73FB79002BAC
:101984000AD0FB79012B07D04CF2D440C0F60100F9
:1019940040F21D411AF096FD4FF4302000F09AFAFF
:1019A4000346FB73FB7B042B40F085804FF400530C
:1019B400C4F2020340F22312C4F267529A604FF455
:1019C4000053C4F2020348F6AB12CCF6EF529A600D
:1019D4004FF40053C4F202034FF40052C4F2020263
:1019E400126942F020021A614FF40053C4F2020358
:1019F4004FF40052C4F20202126942F040021A612A
:101A04004FF4302000F066FA0346FB73FB7B042B93
:101A140041D14FF40053C4F202034FF40052C4F214
:101A24000202116941F6DF720A401A614FF4005351
:101A3400C4F202034FF40052C4F20202126942F0EB
:101A440010021A61FB79002B07D04FF47843C1F6DA
:101A5400FF734FF000021A8006E04FF47843C1F69A
:101A6400FF734FF0A5021A804FF4302000F032FAD1
:101A74000346FB73FB7B052B1DD04FF40053C4F2CC
:101A840002034FF40052C4F20202116941F6EF72EC
:101A94000A401A610FE0FB7B052B0CD04FF4005376
:101AA400C4F202034FF40052C4F20202116941F677
:101AB400DF720A401A61FB7B184607F11007BD4626
:101AC40080BD00BF80B584B000AF13460246FA80E3
:101AD4000A46BA807B804FF00403FB73FB88012B1A
:101AE4000AD0FB88002B07D04CF2D440C0F601008A
:101AF40040F263411AF0E6FCBB88022B0AD0BB8893
:101B0400002B07D04CF2D440C0F6010040F26441EF
:101B14001AF0D8FC7B88042B0AD07B88002B07D0D2
:101B24004CF2D440C0F6010040F265411AF0CAFC00
:101B34004FF40053C4F2020340F22312C4F267527A
:101B44009A604FF40053C4F2020348F6AB12CCF689
:101B5400EF529A604FF4005000F0BCF90346FB7357
:101B6400FB7B042B30D14FF40053C4F202034FF437
:101B74000052C4F20202126942F010021A614FF4D8
:101B84007843C1F6FF737988BA880A4391B2FA8818
:101B94000A4392B242F0F80292B25A804FF40050D3
:101BA40000F098F90346FB73FB7B052B0CD04FF434
:101BB4000053C4F202034FF40052C4F2020211694A
:101BC40041F6EF720A401A61FB7B184607F11007D1
:101BD400BD4680BD80B400AF4FF40053C4F202038D
:101BE400DB694FEA93031846BD4680BC704700BFCB
:101BF40080B400AF4FF40053C4F202031B6A1846CA
:101C0400BD4680BC704700BF80B483B000AF4FF0C6
:101C14000003FB714FF40053C4F20203DB6903F0C9
:101C24000203002B03D04FF00103FB7102E04FF0DD
:101C34000003FB71FB79184607F10C07BD4680BC15
:101C4400704700BF80B483B000AF4FF00003FB7156
:101C54004FF40053C4F202031B6803F02003002B6B
:101C640003D04FF00103FB7102E04FF00003FB715E
:101C7400FB79184607F10C07BD4680BC704700BFCE
:101C840080B582B000AF78600B46FB707B6823F4AC
:101C9400A053002B02D17B68002B07D14CF2D44017
:101CA400C0F6010040F22D511AF00CFCFB78002B19
:101CB4000AD0FB78012B07D04CF2D440C0F60100C7
:101CC40040F22E511AF0FEFBFB78002B0CD04FF49F
:101CD4000053C4F202034FF40052C4F20202116929
:101CE4007A680A431A610DE04FF40053C4F2020308
:101CF4004FF40052C4F2020211697A686FEA0202D8
:101D04000A401A6107F10807BD4680BD80B584B05A
:101D140000AF78604FF00003FB737B68012B1FD08A
:101D24007B68202B1CD07B68042B19D07B68102B7C
:101D340016D07B68012B13D07B68202B10D07B68D6
:101D4400042B0DD07B68102B0AD07B68012B07D0A5
:101D54004CF2D440C0F6010040F27A511AF0B2FBC2
:101D64007B68012B11D14FF40053C4F20203DB69E9
:101D740003F00103DBB2002B03D04FF00103FB732C
:101D840013E04FF00003FB730FE04FF40053C4F271
:101D94000203DA687B681340002B03D04FF0010381
:101DA400FB7302E04FF00003FB73FB7B184607F163
:101DB4001007BD4680BD00BF80B582B000AF78601B
:101DC4007B6823F03503002B02D17B68002B07D1FD
:101DD4004CF2D440C0F6010040F2B6511AF072FB46
:101DE4004FF40053C4F202037A68DA6007F108077B
:101DF400BD4680BD80B483B000AF4FF00403FB71D7
:101E04004FF40053C4F20203DB6803F00103DBB2B6
:101E1400002B03D04FF00103FB711CE04FF400537F
:101E2400C4F20203DB6803F00403002B03D04FF079
:101E34000203FB710FE04FF40053C4F20203DB68AA
:101E440003F01003002B03D04FF00303FB7102E0F7
:101E54004FF00403FB71FB79184607F10C07BD46EC
:101E640080BC704780B483B000AF4FF00403FB71B3
:101E74004FF40053C4F20203DB6803F00103DBB246
:101E8400002B03D04FF00103FB711CE04FF400530F
:101E9400C4F20203DB6803F00403002B03D04FF009
:101EA4000203FB710FE04FF40053C4F20203DB683A
:101EB40003F01003002B03D04FF00303FB7102E087
:101EC4004FF00403FB71FB79184607F10C07BD467C
:101ED40080BC704780B584B000AF78604FF00403D5
:101EE400FB73FFF7BFFF0346FB7307E0FFF7BAFF7F
:101EF4000346FB737B6803F1FF337B60FB7B012BA1
:101F040002D17B68002BF1D17B68002B02D14FF00A
:101F14000503FB73FB7B184607F11007BD4680BD24
:101F240080B584B000AF78604FF00403FB73FFF713
:101F340099FF0346FB7307E0FFF794FF0346FB7327
:101F44007B6803F1FF337B60FB7B012B02D17B6851
:101F5400002BF1D17B68002B02D14FF00503FB73FA
:101F6400FB7B184607F11007BD4680BD80B582B0E3
:101F740000AF0346FB80FA8845F255539A420AD0D3
:101F8400FB88002B07D04CF2E840C0F601004FF06C
:101F940061011AF097FA4FF44053C4F20003FA882F
:101FA4001A6007F10807BD4680BD00BF80B582B046
:101FB40000AF0346FB71FB79002B19D0FB79012B91
:101FC40016D0FB79022B13D0FB79032B10D0FB79AD
:101FD400042B0DD0FB79052B0AD0FB79062B07D0F7
:101FE4004CF2E840C0F601004FF075011AF06AFAAD
:101FF4004FF44053C4F20003FA795A6007F108071A
:10200400BD4680BD80B582B000AF0346FB80FA8830
:1020140040F6FF739A4207D94CF2E840C0F601003B
:102024004FF082011AF04EFA4FF44053C4F2000309
:10203400FA889A6007F10807BD4680BD80B400AFF6
:102044004FF44053C4F200034AF6AA221A60BD4674
:1020540080BC704780B400AF4FF44053C4F2000317
:102064004CF6CC421A60BD4680BC704780B584B043
:1020740000AF0346FB804FF00003FB73FB88012B8A
:102084000AD0FB88022B07D04CF2E840C0F60100CE
:102094004FF0A7011AF016FA4FF44053C4F20003AC
:1020A400DA68FB881340002B03D04FF00103FB7365
:1020B40002E04FF00003FB73FB7B184607F11007A7
:1020C400BD4680BD80B582B000AF78607A684FF4B9
:1020D4004053C4F201039A4215D07A684FF4605316
:1020E400C4F200039A420ED07A684FF47053C4F2DB
:1020F40000039A4207D04CF2FC40C0F601004FF0B6
:102104007C011AF0DFF97A684FF44053C4F20103FA
:102114009A420CD14FF480504FF0010110F0ACF80A
:102124004FF480504FF0000110F0A6F826E07A68D2
:102134004FF46053C4F200039A420CD14FF4804030
:102144004FF0010110F0E2F84FF480404FF000012D
:1021540010F0DCF812E07A684FF47053C4F2000314
:102164009A420BD14FF400404FF0010110F0CEF829
:102174004FF400404FF0000110F0C8F807F10807D1
:10218400BD4680BD80B584B000AF786039604FF043
:102194000003FB817A684FF44053C4F201039A426E
:1021A40015D07A684FF46053C4F200039A420ED0FB
:1021B4007A684FF47053C4F200039A4207D04CF289
:1021C400FC40C0F601004FF0A5011AF07BF93B6812
:1021D4001B88002B16D03B681B88B3F5806F11D089
:1021E4003B681B88B3F5004F0CD03B681B88B3F5E4
:1021F400404F07D04CF2FC40C0F601004FF0A8015C
:102204001AF060F93B685B88B3F5827F0BD03B68BA
:102214005B88002B07D04CF2FC40C0F601004FF065
:10222400A9011AF04FF93B689B88B3F5006F0BD0F6
:102234003B689B88002B07D04CF2FC40C0F60100A1
:102244004FF0AA011AF03EF93B68DB88002B0BD053
:102254003B68DB88022B07D04CF2FC40C0F601003F
:102264004FF0AB011AF02EF93B681B89002B0BD001
:102274003B681B89012B07D04CF2FC40C0F60100DF
:102284004FF0AC011AF01EF93B685B89B3F5007F8F
:102294000BD03B685B89002B07D04CF2FC40C0F6A6
:1022A40001004FF0AD011AF00DF93B689B89002B3A
:1022B40023D03B689B89082B1FD03B689B89102B3C
:1022C4001BD03B689B89182B17D03B689B89202B1C
:1022D40013D03B689B89282B0FD03B689B89302BFC
:1022E4000BD03B689B89382B07D04CF2FC40C0F6DE
:1022F40001004FF0AE011AF0E5F83B68DB89002BD2
:102304000BD03B68DB89802B07D04CF2FC40C0F635
:1023140001004FF0AF011AF0D5F83B681B8A002B7F
:1023240007D14CF2FC40C0F601004FF0B0011AF0A6
:10233400C9F87B681B88FB81FB8903F44153FB814B
:102344003B681A883B685B8813439AB23B689B8856
:1023540013439AB23B68DB8813439AB23B681B89E8
:1023640013439AB23B685B8913439AB23B689B89D7
:1023740013439AB23B68DB8913439AB2FB89134334
:10238400FB817B68FA891A807B689B8B9BB223F460
:1023940000639AB27B689A833B681A8A7B681A82C4
:1023A40007F11007BD4680BD80B58CB000AF7860E2
:1023B40039604FF00003FB834FF00203FB854FF0BD
:1023C4000003BB854FF001037B854FF000037B6264
:1023D4004FF000033B627A684FF46053C4F2000389
:1023E4009A420ED07A684FF47053C4F200039A42B2
:1023F40007D04CF2FC40C0F601004FF0E5011AF0A2
:1024040061F83B681B88002B16D03B681B88B3F52A
:10241400807F11D03B681B88B3F5007F0CD03B68EC
:102424001B88B3F5407F07D04CF2FC40C0F6010096
:102434004FF0E6011AF046F83B685B88002B17D092
:102444003B685B88102B13D03B685B88202B0FD034
:102454003B685B88302B0BD03B685B88B02B07D084
:102464004CF2FC40C0F601004FF0E7011AF02AF8E4
:102474003B689B88002B13D03B689B88012B0FD0B3
:102484003B689B88032B0BD03B689B88052B07D0AC
:102494004CF2FC40C0F601004FF0E8011AF012F8CB
:1024A4003B68DB88B3F5007F0BD03B68DB88002BEF
:1024B40007D04CF2FC40C0F601004FF0E9011AF0DD
:1024C40001F83B689A6841F63F739A4207D93B6822
:1024D4009A684FF46E43C0F202039A420BD93B68E8
:1024E4009B68022B07D04CF2FC40C0F601004FF071
:1024F400EA0119F0E7FF3B689B89002B0BD03B688E
:102504009B89082B07D04CF2FC40C0F601004FF029
:10251400EB0119F0D7FF7B689B8B9BB223F47A63A2
:1025240023F01F039AB27B689A837B684FF0020200
:102534001A847B689B8BFB833B689B68022B06D1C8
:102544004FF00003BB854FF00203FB85A5E03B6819
:102554009B88002B03D14FF001037B8502E04FF0F1
:1025640002037B857A684FF46053C4F200039A42F5
:1025740003D14FF400337B6202E04FF480237B628B
:102584004FF48053C4F20203DA6A7B6A1340002BCF
:1025940034D04FF48053C4F20203DB6A03F4704373
:1025A4004FEA13337B627B6A052B07D97B6A0E2BB8
:1025B40004D87B6A03F102037B6205E07B6A0F2B7C
:1025C40002D14FF014037B624FF48053C4F2020330
:1025D400DB6A03F0F0034FEA131303F101033B62D8
:1025E40047F64003C0F27D133A6AB3FBF2F37A6A0A
:1025F40002FB03F34FEA43033B6206E007F10803DF
:1026040018460FF0E7FBBB683B623B68DB88B3F519
:10261400007F13D13B6A4FEA132213464FEA830328
:102624009B184FEA43031A463B689B68B2FBF3F3DB
:102634009BB203F105039BB27B6215E07B8D4FEAED
:1026440043133A6AB2FBF3F213464FEA83039B182F
:102654004FEA43031A463B689B68B2FBF3F39BB211
:1026640003F105039BB27B627A6A4CF6CD43CCF648
:10267400CC43A3FB02134FEAD3037B627B6A9BB276
:1026840003F00103BB85BB8D7A6AD31A4FEA530367
:10269400FB85BB8D4FEA0323BB85FB8D012B02D940
:1026A400FB8DFF2B05D94FF00203FB854FF0000390
:1026B400BB853B68DA88BB8D13439AB2FB8D134309
:1026C4009AB27B681A843B681A883B6859883B68CD
:1026D40098883B689B8903439BB20B439BB213438B
:1026E4009AB2FB8B13439BB243F40063FB837B6876
:1026F400FA8B9A8307F13007BD4680BD80B483B05E
:1027040000AF78607B684FF000021A807B684FF05E
:1027140000025A807B684FF000029A807B684FF079
:102724000002DA807B684FF000021A817B684FF068
:1027340000025A817B684FF000029A817B684FF057
:102744000002DA817B684FF007021A8207F10C0756
:10275400BD4680BC704700BF80B483B000AF7860D2
:102764007B684FF000021A807B684FF000025A80A9
:102774007B684FF000029A807B684FF00002DA8099
:102784007B684FF002029A607B684FF000029A81E6
:1027940007F10C07BD4680BC704700BF80B582B00E
:1027A40000AF78600B46FB707A684FF44053C4F274
:1027B40001039A4215D07A684FF46053C4F20003BF
:1027C4009A420ED07A684FF47053C4F200039A42CE
:1027D40007D04CF2FC40C0F601004FF4D87119F058
:1027E40071FEFB78002B0AD0FB78012B07D04CF24A
:1027F400FC40C0F6010040F2B11119F063FEFB7811
:10280400002B08D07B681B889BB243F040039AB22C
:102814007B681A8007E07B681B889BB223F0400327
:102824009AB27B681A8007F10807BD4680BD00BFD5
:1028340080B582B000AF78600B46FB707A684FF4C5
:102844006053C4F200039A420ED07A684FF4705376
:10285400C4F200039A4207D04CF2FC40C0F60100D7
:102864004FF4E47119F02EFEFB78002B0AD0FB78AC
:10287400012B07D04CF2FC40C0F6010040F2C91114
:1028840019F020FEFB78002B08D07B689B8B9BB251
:1028940043F480639AB27B689A8307E07B689B8BDE
:1028A4009BB223F480639AB27B689A8307F108078A
:1028B400BD4680BD80B584B000AF786013460A463B
:1028C400FA70BB704FF00003FB814FF00003BB8133
:1028D4007A684FF44053C4F201039A4215D07A68DF
:1028E4004FF46053C4F200039A420ED07A684FF456
:1028F4007053C4F200039A4207D04CF2FC40C0F675
:1029040001004FF4F47119F0DDFDBB78002B0AD0FF
:10291400BB78012B07D04CF2FC40C0F6010040F21A
:10292400E91119F0CFFDFB78712B0DD0FB78602BEA
:102934000AD0FB78502B07D04CF2FC40C0F60100C3
:102944004FF4F57119F0BEFDFB784FEA1313DBB2B7
:10295400FB81FB894FF0010202FA03F3BB81BB78D0
:10296400002B08D07B689B889AB2BB8913439AB228
:102974007B689A800AE07B689B889AB2BB896FEA7D
:1029840003039BB213409AB27B689A8007F1100745
:10299400BD4680BD80B582B000AF786013460A465C
:1029A4007A807B707A684FF44053C4F201039A42F0
:1029B40015D07A684FF46053C4F200039A420ED0E3
:1029C4007A684FF47053C4F200039A4207D04CF271
:1029D400FC40C0F6010040F20E2119F073FD7B7833
:1029E400002B0AD07B78012B07D04CF2FC40C0F6B8
:1029F400010040F20F2119F065FD7A884FF6FC734F
:102A04001340002B02D17B88002B07D14CF2FC40F1
:102A1400C0F601004FF4047119F054FD7B78002BCB
:102A240008D07B689B889AB27B8813439AB27B68F0
:102A34009A800AE07B689B889AB27B886FEA0303DA
:102A44009BB213409AB27B689A8007F10807BD468F
:102A540080BD00BF80B582B000AF78600B467B803C
:102A64007A684FF44053C4F201039A4215D07A684D
:102A74004FF46053C4F200039A420ED07A684FF4C4
:102A84007053C4F200039A4207D04CF2FC40C0F6E3
:102A940001004FF40A7119F015FD7B687A889A8158
:102AA40007F10807BD4680BD80B582B000AF7860ED
:102AB4007A684FF44053C4F201039A4215D07A68FD
:102AC4004FF46053C4F200039A420ED07A684FF474
:102AD4007053C4F200039A4207D04CF2FC40C0F693
:102AE40001004FF40E7119F0EDFC7B689B899BB2D9
:102AF400184607F10807BD4680BD00BF80B582B007
:102B040000AF78600B467B807A684FF44053C4F280
:102B140001039A4215D07A684FF46053C4F200035B
:102B24009A420ED07A684FF47053C4F200039A426A
:102B340007D04CF2FC40C0F6010040F24A2119F0E3
:102B4400C1FC7B88B3F5807F0CD07A884FF6FF6395
:102B54009A4207D04CF2FC40C0F6010040F24B21EF
:102B640019F0B0FC7A884FF6FF639A4208D07B686C
:102B74001B889BB243F480739AB27B681A8007E087
:102B84007B681B889BB223F480739AB27B681A809B
:102B940007F10807BD4680BD80B582B000AF7860FC
:102BA4000B46FB707A684FF44053C4F201039A4217
:102BB40015D07A684FF46053C4F200039A420ED0E1
:102BC4007A684FF47053C4F200039A4207D04CF26F
:102BD400FC40C0F6010040F2622119F073FCFB785E
:102BE400002B0AD0FB78012B07D04CF2FC40C0F636
:102BF400010040F2632119F065FCFB78002B08D03A
:102C04007B689B889BB243F004039AB27B689A80EA
:102C140007E07B689B889BB223F004039AB27B682D
:102C24009A8007F10807BD4680BD00BF80B582B019
:102C340000AF78600B467B807A684FF44053C4F24F
:102C440001039A4215D07A684FF46053C4F200032A
:102C54009A420ED07A684FF47053C4F200039A4239
:102C640007D04CF2FC40C0F601004FF41F7119F07C
:102C740029FC7B88B3F5006F0AD07B88002B07D032
:102C84004CF2FC40C0F6010040F27D2119F01AFC20
:102C94007B681B889BB223F400639AB27B681A801A
:102CA4007B681B889AB27B8813439AB27B681A802C
:102CB40007F10807BD4680BD80B582B000AF7860DB
:102CC4007A684FF44053C4F201039A4215D07A68EB
:102CD4004FF46053C4F200039A420ED07A684FF462
:102CE4007053C4F200039A4207D04CF2FC40C0F681
:102CF40001004FF4237119F0E5FB7B681B889BB23C
:102D040043F480539AB27B681A8007F10807BD46E2
:102D140080BD00BF80B582B000AF78600B46FB7009
:102D24007A684FF44053C4F201039A4215D07A688A
:102D34004FF46053C4F200039A420ED07A684FF401
:102D44007053C4F200039A4207D04CF2FC40C0F620
:102D540001004FF4277119F0B5FBFB78002B0AD062
:102D6400FB78012B07D04CF2FC40C0F6010040F286
:102D74009D2119F0A7FBFB78002B08D07B681B88EA
:102D84009BB243F400539AB27B681A8007E07B68D5
:102D94001B889BB223F400539AB27B681A8007F114
:102DA4000807BD4680BD00BF80B584B000AF786021
:102DB4000B46FB704FF00003FB817A684FF44053DD
:102DC400C4F201039A4215D07A684FF46053C4F2F6
:102DD40000039A420ED07A684FF47053C4F2000391
:102DE4009A4207D04CF2FC40C0F6010040F2B721F1
:102DF40019F068FBFB78002B0AD0FB78012B07D075
:102E04004CF2FC40C0F601004FF42E7119F05AFB4D
:102E1400FB78012B03D07B681B8BFB8102E07B6872
:102E24009B8AFB81FB89184607F11007BD4680BDCC
:102E340080B582B000AF78607A684FF44053C4F232
:102E440001039A4215D07A684FF46053C4F2000328
:102E54009A420ED07A684FF47053C4F200039A4237
:102E640007D04CF2FC40C0F6010040F2CF2119F02B
:102E740029FB7B681B8A9BB2184607F10807BD46ED
:102E840080BD00BF80B582B000AF78600B467B8008
:102E94007A684FF44053C4F201039A4215D07A6819
:102EA4004FF46053C4F200039A420ED07A684FF490
:102EB4007053C4F200039A4207D04CF2FC40C0F6AF
:102EC400010040F2E12119F0FDFA7A884BF6FF7314
:102ED4009A420BD07B88B3F5804F07D04CF2FC406C
:102EE400C0F6010040F2E22119F0ECFA7B88B3F558
:102EF400804F08D17B681B889BB243F480439AB20D
:102F04007B681A8007E07B681B889BB223F48043AC
:102F14009AB27B681A8007F10807BD4680BD00BFDE
:102F240080B584B000AF78600B467B804FF000031F
:102F3400FB737A684FF44053C4F201039A4215D0EC
:102F44007A684FF46053C4F200039A420ED07A6850
:102F54004FF47053C4F200039A4207D04CF2FC4081
:102F6400C0F601004FF4417119F0ACFA7B88802B54
:102F74001CD07B88402B19D07B88202B16D07B88D3
:102F8400102B13D07B88082B10D07B88042B0DD0FA
:102F94007B88022B0AD07B88012B07D04CF2FC40A3
:102FA400C0F6010040F2053119F08CFA7B681B89E8
:102FB4009AB27B8813409BB2002B03D04FF00103DD
:102FC400FB7302E04FF00003FB73FB7B184607F131
:102FD4001007BD4680BD00BF80B582B000AF7860E9
:102FE4000B467B807A684FF44053C4F201039A4243
:102FF40015D07A684FF46053C4F200039A420ED09D
:103004007A684FF47053C4F200039A4207D04CF22A
:10301400FC40C0F6010040F2293119F053FA7B88D4
:10302400102B07D04CF2FC40C0F6010040F22A31CC
:1030340019F048FA7B886FEA03039AB27B681A8115
:1030440007F10807BD4680BD80B584B000AF786045
:103054000B46FB704FF00003FB734FF00003BB8182
:103064004FF000037B814FF000033B817A684FF4FB
:103074004053C4F201039A4215D07A684FF4605366
:10308400C4F200039A420ED07A684FF47053C4F22B
:1030940000039A4207D04CF2FC40C0F6010040F213
:1030A400453119F00FFAFB78602B16D0FB78712BA1
:1030B40013D0FB78532B10D0FB78542B0DD0FB7816
:1030C400552B0AD0FB78562B07D04CF2FC40C0F6A7
:1030D400010040F2463119F0F5F9FB7803F00F03D3
:1030E4004FF0010202FA03F3BB81FB784FEA13139A
:1030F400DBB27B817B894FF0010202FA03F37B810F
:103104007B689B889AB27B8913403B817B681B89CF
:103114009AB2BB8913409BB2002B06D03B89002B8B
:1031240003D04FF00103FB7302E04FF00003FB7385
:10313400FB7B184607F11007BD4680BD80B584B0FF
:1031440000AF78600B46FB704FF00003FB817A6898
:103154004FF44053C4F201039A4215D07A684FF4F5
:103164006053C4F200039A420ED07A684FF470534D
:10317400C4F200039A4207D04CF2FC40C0F60100AE
:1031840040F2793119F09EF9FB78542B07D04CF2B8
:10319400FC40C0F6010040F27A3119F093F9FB7853
:1031A40003F00F034FF0010202FA03F3FB81FB89E2
:1031B4006FEA03039AB27B681A8107F11007BD46D0
:1031C40080BD00BF80B582B000AF0346FB80FB88A2
:1031D400002B0AD140F67C43C2F200031B684FF077
:1031E40001021A824FF000030DE040F6A443C2F23C
:1031F40000031B681B68984740F67C43C2F2000337
:103204001B6803F10A03184607F10807BD4680BD91
:1032140080B500AF40F67C43C2F200031B68DA7845
:1032240040F2B803C2F200035B789A4225D840F614
:103234007C43C2F200031B689B78002B1DD140F62F
:103244007C43C2F200031B689B88002B15D140F617
:103254007C43C2F200031A6840F67C43C2F20003C6
:103264001B68DB78937240F6A443C2F200031B6828
:103274005B6898474FF0000301E04FF002031846E3
:1032840080BD00BF80B582B000AF0346FB80FB88E1
:10329400002B0AD140F67C43C2F200031B684FF0B6
:1032A40001021A824FF000030DE040F6A443C2F27B
:1032B40000031B689B68984740F67C43C2F20003F6
:1032C4001B6803F10C03184607F10807BD4680BDCF
:1032D40080B582B000AF40F68043C2F200031B68A1
:1032E4009A6940F67C43C2F200031B68597940F6A0
:1032F4007C43C2F200031B68DB78084619469047FA
:103304000346FB7140F67C43C2F200031B689B7AC0
:10331400002B3AD0FB79002B0FD140F67C43C2F24C
:1033240000031B681B79002B07D140F67C43C2F2D3
:1033340000031B689B78002B02D04FF0020326E0A9
:10334400FB79002B21D140F6A443C2F200031B6891
:10335400DB68984740F67C43C2F200031A6840F6E3
:103364007C43C2F200031B685B79D37240F67C4352
:10337400C2F200031A6840F67C43C2F200031B68E1
:10338400DB7813734FF0000301E04FF0020318469B
:1033940007F10807BD4680BD80B584B000AF034681
:1033A400FB80FB88002B0AD140F67C43C2F2000369
:1033B4001B684FF002021A824FF00003B9E040F29A
:1033C4005813C2F200034FF000021A8040F67C4307
:1033D400C2F200031B681B7803F07F03002B47D164
:1033E40040F67C43C2F200031B685B7AFB73FB7BF1
:1033F40003F02003002B0DD040F25813C2F2000357
:103404001B7843F00203DAB240F25813C2F200030D
:103414001A700CE040F25813C2F200031B7823F038
:103424000203DAB240F25813C2F200031A70FB7BB3
:1034340003F04003002B0DD040F25813C2F20003F6
:103444001B7843F00103DAB240F25813C2F20003CE
:103454001A7063E040F25813C2F200031B7823F0A1
:103464000103DAB240F25813C2F200031A7055E0B5
:1034740040F67C43C2F200031B681B7803F07F0311
:10348400012B04D140F25813C2F2000351E040F67C
:103494007C43C2F200031B681B7803F07F03022BFA
:1034A40039D140F67C43C2F200031B685B79BB73DD
:1034B400BB7B03F00F037B73BB7B5BB2002B14DA83
:1034C4007B7B1846FDF77EF80346102B26D140F28D
:1034D4005813C2F200031B7843F00103DAB240F23E
:1034E4005813C2F200031A7018E07B7B1846FDF7EC
:1034F40083F80346B3F5805F10D140F25813C2F24B
:1035040000031B7843F00103DAB240F25813C2F20D
:1035140000031A7002E04FF000030AE040F6A443EF
:10352400C2F200031B681B69984740F25813C2F2A9
:103534000003184607F11007BD4680BD80B586B06C
:1035440000AF40F67C43C2F200031B681B7803F013
:103554007F033B613B69002B11D140F67C43C2F2EF
:1035640000031A6840F67C43C2F200031B685B7ACE
:1035740023F02003DBB253724FF000039FE03B695A
:10358400022B40F09A8040F67C43C2F200031B6891
:103594005B88002B07D140F67C43C2F200031B6812
:1035A4001B79002B02D04FF0020388E040F2B803ED
:1035B400C2F20003FB6040F67C43C2F200031B68C6
:1035C4005B79BB60BB6823F080037B607B683B60F6
:1035D40040F67C43C2F200031B685B79DBB25BB24A
:1035E400002B08DA3B68DBB21846FCF7EBFF034616
:1035F4009BB27B6107E03B68DBB21846FCF7FCFF3B
:1036040003469BB27B61FB681B781A467B689A422F
:103614000AD97B69002B07D040F67C43C2F2000331
:103624001B689B7A002B02D14FF0020347E0BB6872
:1036340003F08003002B0FD03B68DBB21846FCF785
:10364400C1FF0346102B2ED13B68DBB218464FF066
:103654003001FDF72DF826E03B68DBB21846FCF795
:10366400CBFF0346B3F5805F1DD13B68002B13D11C
:103674003B68DAB240F2BC03C2F2000393F82C3088
:1036840010461946FDF7AEF83B68DBB218464FF416
:103694004051FCF7EBFF06E03B68DBB218464FF401
:1036A4004051FCF7E3FF40F6A443C2F200031B6859
:1036B4005B6998474FF0000301E04FF0020318469E
:1036C40007F11807BD4680BD80B584B000AF40F651
:1036D4007C43C2F200031B685B79BB60BB6823F0C8
:1036E40080037B607B683B6040F67C43C2F200034E
:1036F4001B685B79DBB25BB2002B08DA3B68DBB298
:103704001846FCF75FFF03469BB2FB6007E03B688B
:10371400DBB21846FCF770FF03469BB2FB6040F235
:10372400B803C2F200031B781A463B689A4212D9C6
:1037340040F67C43C2F200031B685B88002B0AD16D
:10374400FB68002B07D040F67C43C2F200031B68E1
:103754009B7A002B02D14FF002031CE0BB6803F0FC
:103764008003002B07D03B68DBB218464FF01001F2
:10377400FCF75CFF06E03B68DBB218464FF480516F
:10378400FCF774FF40F6A443C2F200031B689B6974
:1037940098474FF00003184607F11007BD4680BD57
:1037A40080B500AF40F67C43C2F200031A6840F6CD
:1037B4007C43C2F200031B685B7A43F02003DBB254
:1037C400537240F6A443C2F200031B68DB699847B6
:1037D4004FF00003184680BD80B485B000AF0346A7
:1037E4003960FB8040F67C43C2F200031B685B8AAD
:1037F400FB60FB88002B0ED140F67C43C2F2000331
:103804001B683A689188FA6892B28A1A92B21A824C
:103814004FF0000303E03B681A68FB68D3181846AE
:1038240007F11407BD4680BC704700BF80B584B063
:1038340000AF40F67C43C2F200031B6803F110039F
:10384400BB60BB681B887B60BB689B68002B28D06F
:103854007B68002B25D0BB689B88FB60FA687B687B
:103864009A4201D97B68FB60BB689B68FA6892B294
:10387400104698473860BB681A88FB689BB2D31A15
:103884009AB2BB681A80BB685A88FB689BB2D3188B
:103894009AB2BB685A804FF000003968FA680BF09E
:1038A40053FFBB681B88002B13D040F64C23C2F295
:1038B40000034FF440521A804FF000004FF0000113
:1038C400FCF784FF40F64E23C2F200034FF03002AF
:1038D4001A80BB681A88BB689B889A4208D340F652
:1038E4007C43C2F200031B684FF003021A7227E004
:1038F400BB681B88002B08D040F67C43C2F200034F
:103904001B684FF005021A721AE0BB681B88002B73
:1039140016D140F67C43C2F200031B684FF0060246
:103924001A724FF000004FF000014FF000020BF04C
:1039340057FF40F64E23C2F200034FF030021A80C4
:1039440007F11007BD4680BD80B586B000AF40F6D4
:103954007C43C2F200031B6803F11003FB60FB68A5
:103964001B88BB6040F67C43C2F200031B681B7AD1
:103974007B61BB68002B2FD17B69042B2CD140F2D7
:103984005C13C2F200031B78012B19D14FF0000025
:103994004FF000014FF000020BF022FF40F64E23DF
:1039A400C2F200034FF030021A804FF004037B612F
:1039B40040F25C13C2F200034FF000021A7050E0B0
:1039C4004FF007037B614FF000004FF000014FF010
:1039D40000020BF0B9FE44E0FB689B883B61BA68C7
:1039E4003B699A4202D84FF0040301E04FF002030E
:1039F4007B613A69BB689A4201D9BB683B61FB6849
:103A04009B683A6992B21046984778604FF000007C
:103A140079683A690BF0E4FE3B699BB24FF0000011
:103A24001946FCF7D3FEFB681A883B699BB2D31A8C
:103A34009AB2FB681A80FB685A883B699BB2D31818
:103A44009AB2FB685A8040F64E23C2F200034FF04C
:103A540030021A8040F64C23C2F200034FF4405265
:103A64001A8040F67C43C2F200031B687A69D2B222
:103A74001A7207F11807BD4680BD00BF80B584B037
:103A840000AF4FF00203FB7340F67C43C2F2000325
:103A94001B685B787B6040F67C43C2F200031B68C2
:103AA4001B7803F07F03002B7FD17B68092B04D1A3
:103AB400FFF7AEFB0346FB73A7E07B68052B32D10F
:103AC40040F67C43C2F200031B68DB78DBB25BB2D6
:103AD400002B17DB40F67C43C2F200031B689B7883
:103AE400002B0FD140F67C43C2F200031B689B8875
:103AF400002B07D140F67C43C2F200031B689B7A7B
:103B0400002B03D04FF00803BB60AEE04FF000037E
:103B1400FB7340F67C43C2F200031B68DB78184653
:103B240000F084FC71E07B68032B18D140F67C43E1
:103B3400C2F200031B68DB78012B0CD140F67C43F6
:103B4400C2F200031B689B88002B04D1FFF728FEF8
:103B54000346FB7359E04FF00203FB7356E07B68A6
:103B6400012B52D140F67C43C2F200031B68DB7880
:103B7400012B16D140F67C43C2F200031B689B88DC
:103B8400002B0ED140F67C43C2F200031B685B7A23
:103B940003F02003002B04D0FFF7D0FC0346FB7393
:103BA40034E04FF00203FB732FE040F67C43C2F293
:103BB40000031B681B7803F07F03012B07D17B688C
:103BC4000B2B23D1FFF784FB0346FB731EE040F667
:103BD4007C43C2F200031B681B7803F07F03022BB3
:103BE4000FD17B68012B04D1FFF7A8FC0346FB73BC
:103BF4000CE07B68032B09D1FFF766FD0346FB73DA
:103C040004E04FF00203FB7300E000BFFB7B002BDA
:103C140012D040F68043C2F200031B685B697A68E5
:103C2400D2B2104698470346FB73FB7B032B03D1A8
:103C34004FF00903BB6018E0FB7B002B03D04FF06F
:103C44000803BB6011E04FF00603BB604FF00000B7
:103C54004FF000014FF000020BF0C2FD40F64E237E
:103C6400C2F200034FF030021A8040F67C43C2F2E5
:103C740000031B68BA68D2B21A7207F11007BD4676
:103C840080BD00BF80B58AB000AF40F67C43C2F26D
:103C940000031B685B78BB614FF000037B624FF04D
:103CA40000037B61BB69062B33D140F67C43C2F22F
:103CB40000031B681B7803F07F03002B40F0348162
:103CC40040F67C43C2F200031B689B78FB74FB7CC8
:103CD400012B07D140F68043C2F200031B68DB6965
:103CE4007B6221E1FB7C022B07D140F68043C2F2C8
:103CF40000031B681B6A7B6216E1FB7C032B40F00C
:103D0400138140F68043C2F200031B685B6A7B6246
:103D14000AE1BB69002B40F0AD8040F67C43C2F25F
:103D240000031B685B88002B40F0A48040F67C43B2
:103D3400C2F200031B68DB88022B40F09B8040F634
:103D44007C43C2F200031B681B79002B40F0928075
:103D540040F67C43C2F200031B681B7803F07F0328
:103D6400002B0DD140F67C43C2F200031B689B88F4
:103D7400002B05D143F29D33C0F600037B62D2E0F1
:103D840040F67C43C2F200031B681B7803F07F03F8
:103D9400012B22D140F68043C2F200031B689A69CA
:103DA40040F67C43C2F200031B685B7918464FF06F
:103DB400000190470346002B40F0B58040F67C4359
:103DC400C2F200031B689B7A002B00F0AC8043F224
:103DD4009D33C0F600037B62A5E040F67C43C2F24B
:103DE40000031B681B7803F07F03022B40F09B80C9
:103DF40040F67C43C2F200031B685B7903F00F03B7
:103E0400FB6040F67C43C2F200031B685B7903F05D
:103E14007003BB6040F67C43C2F200031B685B790D
:103E2400DBB25BB2002B08DAFB68DBB21846FCF7A6
:103E3400C9FB03469BB2FB6107E0FB68DBB2184693
:103E4400FCF7DAFB03469BB2FB6140F2B803C2F213
:103E540000031B781A46FB689A4264D9BB68002B9E
:103E640061D1FB69002B5ED043F29D33C0F60003A1
:103E74007B6258E0BB69082B0FD140F67C43C2F249
:103E840000031B681B7803F07F03002B4CD143F223
:103E9400C913C0F600037B6246E0BB690A2B43D119
:103EA40040F67C43C2F200031B681B7803F07F03D7
:103EB400012B39D140F67C43C2F200031B689B7A84
:103EC400002B31D040F67C43C2F200031B685B88B0
:103ED400002B29D140F67C43C2F200031B681B79F6
:103EE400002B21D140F67C43C2F200031B68DB881F
:103EF400012B19D140F68043C2F200031B689A6972
:103F040040F67C43C2F200031B685B7918464FF00D
:103F1400000190470346002B06D143F28923C0F6E3
:103F240000037B6200E000BF7B6A002B17D040F6E1
:103F34007C43C2F200031B687A6992B25A8240F64B
:103F44007C43C2F200031B687A6A9A617B6A4FF071
:103F5400000098474FF0000387F823301DE040F637
:103F64008043C2F200031B681A6940F67C43C2F224
:103F740000031B685B7818469047034687F8233094
:103F840097F82330032B08D140F67C43C2F2000398
:103F94001B684FF009021A72ACE040F67C43C2F28F
:103FA40000031B681A8A4FF6FF739A4208D140F641
:103FB4007C43C2F200031B684FF009021A7299E0B5
:103FC40097F82330022B07D040F67C43C2F200035B
:103FD4001B681B8A002B08D140F67C43C2F2000305
:103FE4001B684FF008021A7284E040F67C43C2F268
:103FF40000031B681B78DBB25BB2002B6ADA40F665
:104004007C43C2F200031B68DB887B6040F67C4380
:10401400C2F200031B681B8A1A467B689A4208D9BD
:1040240040F67C43C2F200031B687A6892B21A829B
:1040340040E040F67C43C2F200031B681A8A40F653
:104044007C43C2F200031B68DB889A4232D240F6FA
:104054007C43C2F200031B681A8A40F68043C2F212
:1040640000031B6893F82C309A4207D240F25C1389
:10407400C2F200034FF000021A701BE040F67C43CA
:10408400C2F200031B681B8A1A4640F68043C2F240
:1040940000031B6893F82C3092FBF3F103FB01F34C
:1040A400D31A002B06D140F25C13C2F200034FF086
:1040B40001021A7040F67C43C2F200031A6840F60B
:1040C4008043C2F200031B6893F82C309382FFF7FD
:1040D4003BFC0EE040F67C43C2F200031B684FF049
:1040E40003021A7240F64C23C2F200034FF440520A
:1040F4001A8000BF07F12807BD4680BD90B585B082
:1041040000AF4FF00003FB814FF000000BF064FCA4
:10411400B860BB685B697B6040F67C43C2F2000315
:104124001B681B7A092B4DD040F67C43C2F2000376
:104134001A687B681978117003F101037B6040F6FB
:104144007C43C2F200031A687B681978517003F14A
:1041540001037B607A68FB894FEA4303D3187B60D1
:1041640040F67C43C2F200031C687B681A8803F1A2
:1041740002037B601046FCF75BFB034663807A68AE
:10418400FB894FEA4303D3187B6040F67C43C2F2B9
:1041940000031C687B681A8803F102037B601046E5
:1041A400FCF746FB0346A3807A68FB894FEA430386
:1041B400D3187B6040F67C43C2F200031B687A6824
:1041C4001288DA8040F67C43C2F200031B684FF089
:1041D40001021A7240F67C43C2F200031B68DB88BA
:1041E400002B02D1FFF74AFC01E0FFF74BFD00F082
:1041F400A7F80346184607F11407BD4690BD00BF53
:1042040080B582B000AF40F67C43C2F200031B6865
:104214001B7A7B607B68022B02D07B68042B09D15C
:10422400FFF792FB40F67C43C2F200031B681B7A43
:104234007B6032E07B68062B2CD140F67C43C2F2D3
:1042440000031B685B78052B19D140F67C43C2F24E
:1042540000031B681B7803F07F03002B0FD140F68B
:104264007C43C2F200031B68DB78184600F0DEF8DA
:1042740040F6A443C2F200031B681B6A984740F649
:104284008043C2F200031B689B6898474FF0080301
:104294007B6002E04FF008037B6040F67C43C2F28F
:1042A40000031B687A68D2B21A7200F049F8034618
:1042B400184607F10807BD4680BD00BF80B582B02F
:1042C40000AF40F67C43C2F200031B681B7A7B609C
:1042D4007B68022B02D07B68042B03D14FF00803C8
:1042E4007B601DE07B68032B02D07B68052B09D122
:1042F400FFF79CFA40F67C43C2F200031B681B7A6A
:104304007B600DE07B68072B07D140F68043C2F247
:1043140000031B68DB68984702E04FF008037B60EA
:1043240040F67C43C2F200031B687A68D2B21A7268
:1043340000F006F80346184607F10807BD4680BD9D
:1043440080B582B000AF40F2BC03C2F2000393F820
:104354002C304FF000001946FCF744FA40F67C4339
:10436400C2F200031B681B7A082B0ED140F64C23C3
:10437400C2F200034FF480521A8040F64E23C2F278
:1043840000034FF010021A803FE040F67C43C2F273
:1043940000031B681B7A032B07D040F67C43C2F250
:1043A40000031B681B7A072B13D14FF000000BF09E
:1043B400F7FA78607B684FF000025A70786815F05D
:1043C400DFFE40F64E23C2F200034FF030021A80A3
:1043D4001BE040F67C43C2F200031B681B7A022BED
:1043E40007D040F67C43C2F200031B681B7A062BFD
:1043F4000BD14FF000000BF0D3FA78607B684FF0DC
:1044040001025A70786815F0BBFE40F67C43C2F294
:1044140000031B681B7A092B14BF00230123DBB2A2
:10442400184607F10807BD4680BD00BF80B582B0BD
:1044340000AF0346FB71FB7918460BF08DFA07F1C8
:104444000807BD4680BD00BF80B400AFBD4680BC38
:10445400704700BF80B582B000AF4FF000037B60AF
:1044640015F01CFA0346002B00F0878015F028FA9B
:1044740003463B603B68002B02D14FF000037DE014
:10448400FB7823F07F03DBB2002B05D001F000F9A9
:1044940003467A6813437B607B7803F00803DBB23E
:1044A400002B14D040F24013C2F200031B78DBB29D
:1044B400002B02D014F0E6FE03E04FF0020014F0EB
:1044C400EDFE00F07FFD03467A6813437B603B7882
:1044D40003F00803DBB2002B13D040F26013C2F2E6
:1044E40000031B78DBB203F10103DAB240F260137C
:1044F400C2F200031A7000F01DFC03467A681343ED
:104504007B603B7803F01003DBB2002B05D000F096
:104514002BFC03467A6813437B607B7803F020030B
:10452400DBB2002B05D000F031FE03467A6813435A
:104534007B607B7803F01003DBB2002B05D000F026
:104544005BFD03467A6813437B60BB7803F0040386
:10455400DBB2002B05D000F099FE03467A681343C2
:104564007B60BB7803F00803DBB2002B05D000F0BE
:10457400A7FF03467A6813437B607B68184607F1FC
:104584000807BD4680BD00BF80B500AFFBF7B4FF90
:104594004FF00003184680BD80B584B000AF0346D9
:1045A400B9607A60FB73FB7B1846B9687A680BF0D4
:1045B40017F94FF00003184607F11007BD4680BDF8
:1045C40080B584B000AF03463960FB714FF000033F
:1045D400FB60FB7918460BF0FFF9B860BB689B6978
:1045E400FB60FB7918463968FA680BF0ADF8FB6894
:1045F400184607F11007BD4680BD00BF80B483B0E4
:1046040000AF03463960FB7197F90730002B10DACD
:104614004FF46D43CEF20003FA7902F00F02A2F1D7
:1046240004013A68D2B24FEA0212D2B25B181A7687
:104634000DE04FF46143CEF2000397F907103A6896
:10464400D2B24FEA0212D2B25B1883F8002307F108
:104654000C07BD4680BC704780B582B000AF78605F
:104664007A686FF07F439A4202D94FF001031FE04A
:104674004EF21003CEF200037A6822F07F4202F178
:10468400FF325A604FF0FF304FF00F01FFF7B6FFD3
:104694004EF21003CEF200034FF000029A604EF285
:1046A4001003CEF200034FF007021A604FF000032C
:1046B400184607F10807BD4680BD00BF80B400AFAF
:1046C400BD4680BC704700BF80B500AF4FF000000E
:1046D4000DF052FA4FF480504FF001010DF0AAFC96
:1046E40080BD00BF80B400AF40F6A843C2F200030F
:1046F4004FF003021A60BD4680BC704780B483B09B
:1047040000AF40F68843C2F200037B607B689B7A6B
:10471400002B07D040F6A843C2F200034FF0050275
:104724001A6006E040F6A843C2F200034FF001020B
:104734001A6007F10C07BD4680BC704780B582B093
:1047440000AF4FF4C0600FF033FE4FF043033B71F2
:104754004FF001037B714FF00003BB714FF0010375
:10476400FB7107F1040318460FF050FE4FF02503C8
:104774003B714FF000037B7107F1040318460FF0FF
:1047840045FE07F10807BD4680BD00BF80B582B075
:1047940000AF0346FB71FB79002B08D04FF4406057
:1047A400C4F201004FF480410CF09AF807E04FF492
:1047B4004060C4F201004FF480410CF03FF807F16F
:1047C4000807BD4680BD00BF80B500AF40F264134A
:1047D400C2F200034FF416521A6040F26413C2F29C
:1047E40000034FF000029A8040F26413C2F2000307
:1047F4004FF00002DA8040F26413C2F200034FF477
:10480400C0621A8140F26413C2F200034FF0000246
:104814009A8140F26413C2F200034FF00C025A81F1
:104824004FF0000040F26411C2F20001FCF740F9BD
:104834004FF46050C4F2010040F225514FF00102E0
:104844000EF058FA80BD00BF80B500AF40F2B0034F
:10485400C2F200031B79012B0BD0022B11D0002BC9
:1048640017D140F26413C2F200034FF00002DA8061
:1048740014E040F26413C2F200034FF44052DA80B1
:104884000CE040F26413C2F200034FF40052DA80E9
:1048940004E0FFF799FF4FF0000377E040F2B00324
:1048A400C2F200035B79012B0BD0022B11D0002B39
:1048B40017D140F26413C2F200034FF000021A81D0
:1048C40014E040F26413C2F200034FF480621A81D0
:1048D4000CE040F26413C2F200034FF4C0621A8188
:1048E40004E0FFF771FF4FF000034FE040F2B00324
:1048F400C2F200039B79072B02D0082B08D01EE0DC
:1049040040F26413C2F200034FF000029A801BE0ED
:1049140040F26413C2F200031B89002B07D140F25A
:104924006413C2F200034FF000029A800CE040F2DC
:104934006413C2F200034FF480529A8004E0FFF73C
:1049440043FF4FF0000321E040F2B003C2F2000342
:104954001A6840F26413C2F200031A6040F264134E
:10496400C2F200034FF000029A8140F26413C2F2D3
:1049740000034FF00C025A814FF0000040F2641122
:10498400C2F20001FCF794F84FF00103184680BD11
:1049940080B582B000AF78600B46FB70FB784FF0B7
:1049A400810079681A46FFF7F7FD4FF00100FBF725
:1049B400C3FE07F10807BD4680BD00BF80B582B0C5
:1049C40000AF40F68013C2F200031B78012B00F005
:1049D400A98040F67813C2F200031B68B3F5006F98
:1049E40006D140F67813C2F200034FF000021A60B9
:1049F40040F67813C2F200031A6840F67413C2F248
:104A040000031B689A4207D140F68013C2F20003E8
:104A14004FF000021A7085E040F67813C2F20003EA
:104A24001A6840F67413C2F200031B689A420CD948
:104A340040F67813C2F200031B68C3F5006240F627
:104A44007C13C2F200031A600FE040F67413C2F242
:104A540000031A6840F67813C2F200031B68D21AE6
:104A640040F67C13C2F200031A6040F67C13C2F2D3
:104A740000031B68402B21D940F67813C2F20003CF
:104A84001B68BB804FF04003FB8040F67813C2F2F2
:104A940000031B6803F1400240F67813C2F20003DE
:104AA4001A6040F67C13C2F200031B68A3F14002B3
:104AB40040F67C13C2F200031A6022E040F6781339
:104AC400C2F200031B68BB8040F67C13C2F20003F1
:104AD4001B68FB8040F67813C2F200031A6840F6A4
:104AE4007C13C2F200031B68D21840F67813C2F29A
:104AF40000031A6040F67C13C2F200034FF0000278
:104B04001A6040F68013C2F200034FF001021A70DB
:104B1400FB884FF001001946FBF758FE4FF00100E7
:104B2400FBF70AFE07F10807BD4680BD98B500AF44
:104B340040F2B003C2F200039B79072B15D140F673
:104B44007413C2F200031C684FF46050C4F20100F5
:104B54000EF00AFC0346DBB203F07F03DAB240F244
:104B64007413C2F200031A5518E040F2B003C2F203
:104B740000039B79082B11D140F67413C2F2000391
:104B84001C684FF46050C4F201000EF0EDFB0346C4
:104B9400DAB240F27413C2F200031A5540F67413E9
:104BA400C2F200031B6803F1010240F67413C2F25F
:104BB40000031A6040F67413C2F200031B68B3F5D5
:104BC400006F06D140F67413C2F200034FF00002E6
:104BD4001A6098BD80B584B000AF4FF2E873C1F697
:104BE400FF731B68FB604FF2EC73C1F6FF731B6825
:104BF400BB604FF2F073C1F6FF731B687B60FA6809
:104C04007B68D318FB60FB68002B0BD0F86807495E
:104C14004FF0080200F00EF8B86805494FF004029E
:104C240000F008F807F11007BD4680BD820000209F
:104C34009200002080B487B000AFF860B9601346DA
:104C4400FB714FF00003FB754FF00003FB7531E07F
:104C5400FB684FEA1373092B0DD8FB7D4FEA43031E
:104C6400BA68D318FA684FEA1272D2B202F130026B
:104C7400D2B21A700CE0FB7D4FEA4303BA68D31832
:104C8400FA684FEA1272D2B202F13702D2B21A7043
:104C9400FB684FEA0313FB60FB7D4FEA430303F118
:104CA4000103BA68D3184FF000021A70FB7D03F1B8
:104CB4000103FB75FA7DFB799A42C9D307F11C07FE
:104CC400BD4680BC704700BF80B588B000AF786037
:104CD4004FF004000FF0B0FC07F10C0318460DF080
:104CE40079F83A694DF68363C4F21B33A3FB0213CC
:104CF4004FEA93437A6802FB03F31846FFF7ACFCD0
:104D04004EF21003CEF200034EF21002CEF2000275
:104D1400126822F002021A6000BF4EF21003CEF2B3
:104D240000031B6803F48033002BF6D007F120073F
:104D3400BD4680BD80B582B000AF4FF000037B60FC
:104D44000FF05CF97B6843F008037B6040F6B043E6
:104D5400C2F200031B687A685A614FF001031846D7
:104D640007F10807BD4680BD80B584B000AF4FF0A1
:104D74000003BB604FF000037B60BB6843F010038B
:104D8400BB6040F6B043C2F200031A6840F6B04379
:104D9400C2F200031B689969BB686FEA03030B4006
:104DA400936140F6B043C2F200031B681B6A7B6048
:104DB4007B68C3F30303DBB218460AF00DFEF86008
:104DC4007B68C3F34343DBB203F1FF33052B00F2EB
:104DD4009F8001A252F823F0154F0008F54D0008FA
:104DE400154F0008154F0008154F0008D74E00084E
:104DF400BA8847F6F07313409BB2002B61D0FB686E
:104E04009B68012B3BD1FFF71FFB40F64823C2F2FE
:104E140000031A6840F64423C2F20003D2187B68E8
:104E2400C3F30A139BB21046194614F009FB40F66B
:104E34004823C2F200031A6840F64423C2F2000376
:104E4400D218FB685A6140F64823C2F200031B687B
:104E5400012B07D140F64823C2F200034FF00002B1
:104E64001A601DE040F64823C2F200031B6803F1F8
:104E7400010240F64823C2F200031A6010E07B6886
:104E8400C3F30A139BB240F6C410C2F200001946E1
:104E940014F0D6FAFA6840F6C413C2F20003536160
:104EA4007B68C3F30A139BB21A46FB689A61FB68DA
:104EB400DA697B68C3F30A139BB2D218FB68DA6120
:104EC40027E07B68C3F30A139BB21A46FB689A6116
:104ED4001FE040F6C410C2F200004FF0080114F0C5
:104EE400AFFAFA6840F6C413C2F200035361FB68D8
:104EF400DA697B68C3F30A139BB2D218FB68DA61E0
:104F04007B68C3F30A139BB21A46FB689A6100E0FC
:104F140000BFFFF799FA40F6B043C2F200031A68E3
:104F240040F6B043C2F200031B689969BB680B43A7
:104F340093614FF00103184607F11007BD4680BD89
:104F440080B500AFFFF780FA4FF00103184680BD2B
:104F540080B500AFFFF778FA4FF00103184680BD23
:104F640080B582B000AF4FF000037B604FF00003C8
:104F74003B60FFF769FA3B6843F480633B6040F6AB
:104F8400B043C2F200031A6840F6B043C2F2000311
:104F94001B6899693B686FEA03030B4093617B6864
:104FA40043F480637B6040F6B043C2F200031B68A5
:104FB4007A685A614FF00103184607F10807BD46A5
:104FC40080BD00BF80B582B000AF4FF000037B60AE
:104FD400FFF73AFA7B6843F400637B6040F6B04322
:104FE400C2F200031B687A685A614FF00103184645
:104FF40007F10807BD4680BD80B588B000AF4FF00B
:105004000003FB614FF00003BB614FF000037B61C1
:105014004FF000033B614FF00003FB604FF00003CF
:10502400BB604FF000037B60BB6843F00103BB60CF
:1050340040F6B043C2F200035A6840F6B043C2F2ED
:1050440000035B685968BB686FEA03030B40536055
:105054004FF0000014F07EFB4FF00003FB611BE0F7
:1050640040F6B043C2F20003FA6902F1020253F8B7
:1050740022304FF0FF029A6040F6B043C2F20003C0
:10508400FA6902F1060253F822304FF0FF029A60E7
:10509400FB6903F10103FB61FB69032BE0D940F6D3
:1050A400B043C2F200035B684FF0FF329A61BB6900
:1050B4004FF0010262F30F03BB61BB694FF00102C1
:1050C40062F31F43BB6140F6B043C2F200035B6866
:1050D400BA69DA617B6943F008037B617B6943F059
:1050E40040037B617B6943F001037B617B6943F08F
:1050F40002037B6140F6B043C2F200035B687A6945
:105104005A613B6943F001033B613B6943F0080387
:105114003B613B6943F002033B6140F6B043C2F29A
:1051240000035B683A691A6140F6B043C2F20003B7
:105134005B681B68FB60FB686FF30A13FB6040F657
:10514400B043C2F200035B68FA681A600AF0A0FC7C
:105154004FF000037B607B6843F480537B6040F630
:10516400B043C2F200031B687A685A6140F2BC0380
:10517400C2F200035B689847FFF766F94FF001033A
:10518400184607F12007BD4680BD00BF80B582B038
:1051940000AF4FF000037B604FF000033B6014F05E
:1051A40079FD40F6B043C2F200031B68DB683B6044
:1051B4003B684FF0090262F38D233B6040F6B04335
:1051C400C2F200031B683A68DA60FFF73DF97B68B6
:1051D40043F400537B6040F6B043C2F200031B6803
:1051E4007A685A614FF00103184607F10807BD4673
:1051F40080BD00BF80B582B000AF4FF000037B607C
:10520400FFF722F97B6843F480437B6040F6B043A8
:10521400C2F200031B687A685A614FF00103184612
:1052240007F10807BD4680BD80B582B000AF4FF0DE
:1052340000037B604FF000033B603B6843F4004392
:105244003B6040F6B043C2F200031A6840F6B04334
:10525400C2F200031B6899693B686FEA03030B40C1
:105264009361FFF7F1F87B6843F400437B6040F6F9
:10527400B043C2F200031B687A685A614FF001031D
:10528400184607F10807BD4680BD00BF80B586B04B
:1052940000AF4FF000037B614FF000033B614FF020
:1052A4000003FB604FF000037B6015F021F9786187
:1052B400F8E07B6903F00103DBB2002B00F0EA8025
:1052C40038690AF06DFBB860B86800F0FBF9034672
:1052D4007B603B7903F00103DBB2002B50D0BB6849
:1052E4001B784FF0010202FA03F3FB6040F6B0436F
:1052F400C2F200035A6840F6B043C2F200035B688E
:10530400596BFB686FEA03030B4053634FF00003D0
:105314007B607B6843F001037B6040F6B043C2F2DC
:1053240000033A6902F1020253F822307A689A6063
:105334003B69002B1AD1FEF763FF3B69DAB240F6F2
:105344004C23C2F200031B889BB210461946FBF79C
:105354008DF93B69DAB240F64E23C2F200031B8892
:105364009BB210461946FBF761F909E03B6903F16A
:10537400FF3240F24803C2F2000353F82230984748
:105384003B7903F00803DBB2002B11D04FF000038C
:105394007B607B6843F008037B6040F6B043C2F255
:1053A40000033A6902F1020253F822307A689A60E3
:1053B4003B7903F01003DBB2002B11D04FF0000354
:1053C4007B607B6843F010037B6040F6B043C2F21D
:1053D40000033A6902F1020253F822307A689A60B3
:1053E4003B7903F04003DBB2002B11D04FF00003F4
:1053F4007B607B6843F040037B6040F6B043C2F2BD
:1054040000033A6902F1020253F822307A689A6082
:105414003B7923F07F03DBB2002B1FD03B69002BC9
:1054240007D03B69DBB21846FBF7CCF80346302BB8
:1054340002D1386900F082F94FF000037B607B6889
:1054440043F080037B6040F6B043C2F200033A6944
:1054540002F1020253F822307A689A603B7903F031
:105464000203DBB2002B15D0BB684FF000021A73A5
:105474004FF000037B607B6843F002037B6040F6DF
:10548400B043C2F200033A6902F1020253F8223037
:105494007A689A603B6903F101033B617B694FEAD7
:1054A40053037B617B69002B7FF403AFFEF7CCFFD2
:1054B4004FF00103184607F11807BD4680BD00BF31
:1054C40080B584B000AF4FF00003FB604FF00003E1
:1054D400BB604FF000033B6014F0C6FFF86095E03A
:1054E400FB6803F00103DBB2002B00F08780B8688F
:1054F4000AF072FA7860786814F0D6FF03463B60CD
:105504003B7803F00103DBB2002B21D04FF0000302
:105514003B603B6843F001033B6040F6B043C2F29A
:105524000003BA6802F1060253F822303A689A601E
:10553400BB68002B02D1FEF7C1FE09E0BB6803F192
:10554400FF3240F26403C2F2000353F8223098475A
:105554003B7803F00203DBB2002B11D04FF00003C1
:105564003B603B6843F002033B6040F6B043C2F249
:105574000003BA6802F1060253F822303A689A60CE
:105584003B7803F00803DBB2002B21D0BB68002B6F
:105594000CD1FEF7B3FD40F64E23C2F200031B8884
:1055A4009BB24FF080001946FBF740F84FF0000320
:1055B4003B603B6843F008033B6040F6B043C2F2F3
:1055C4000003BA6802F1060253F822303A689A607E
:1055D4003B7803F04003DBB2002B0FD0BB68002BF9
:1055E4000CD1FEF78BFD40F64E23C2F200031B885C
:1055F4009BB24FF080001946FBF718F8BB6803F123
:105604000103BB60FB684FEA5303FB60FB68002B9C
:105614007FF466AFFEF718FF4FF00103184607F159
:105624001007BD4680BD00BF80B582B000AF4FF00B
:1056340000037B60FEF708FF7B6843F480137B6004
:1056440040F6B043C2F200031B687A685A614FF017
:105654000103184607F10807BD4680BD80B582B036
:1056640000AF4FF000037B60FEF7EEFE7B6843F46F
:1056740000237B6040F6B043C2F200031B687A68E3
:105684005A614FF00103184607F10807BD4680BD73
:1056940080B582B000AF4FF000037B60FEF7D4FE0C
:1056A4007B6843F000437B6040F6B043C2F20003E2
:1056B4001B687A685A614FF00103184607F108071E
:1056C400BD4680BD80B487B000AF78604FF0000362
:1056D4007B614FF000033B614FF00003FB6040F639
:1056E400B043C2F200035B681B693B6140F6B04300
:1056F400C2F200035B685B6BFB607B681B78FA6833
:1057040022FA03F34FEAC313DBB23A6913433B6152
:105714007B681B781A4640F6B043C2F2000302F1DC
:10572400020253F822309A683B6913407B617B691B
:10573400184607F11C07BD4680BC704780B588B089
:1057440000AF78604FF00003FB614FF00003BB61D2
:105754004FF000037B614FF00003FB6078680AF0B0
:105764001FF938613B699A693B69DB69D31AFB61AC
:105774003B691A69FB699A4202D23B691B69FB6166
:10578400FB6903F103034FEA9303BB6140F6B043A3
:10579400C2F200037A6802F1020253F822309B69D4
:1057A400FB6052E03B699A693B69DB69D31AFB6190
:1057B4003B691A69FB699A4202D23B691B69FB6126
:1057C400FB6903F103034FEA9303BB613B69596926
:1057D4007B68DAB2FB699BB2084611461A4613F09D
:1057E400EDFD3B69DA69FB69D2183B69DA613B6913
:1057F4005A69FB69D2183B695A6140F6B043C2F258
:1058040000037A6802F1020253F822309B69FB60BC
:105814003B699A693B69DB699A4216D13B691B78FB
:105824004FF0010202FA03F37B6140F6B043C2F287
:1058340000035A6840F6B043C2F200035B68596B38
:105844007B696FEA03030B405363BB891A46BB6948
:105854009A4209D93B69DA693B699B699A4203D246
:105864003B699B69002B9DD14FF00103184607F15A
:105874002007BD4680BD00BF80B582B000AF786010
:105884007A684FF41053C4F201039A4215D07A682F
:105894004FF42053C4F201039A420ED07A684FF4B5
:1058A4007053C4F201039A4207D04CF20C50C0F674
:1058B40001004FF0B80116F005FE7A684FF410535A
:1058C400C4F201039A420CD14FF400704FF001016D
:1058D4000CF0D2FC4FF400704FF000010CF0CCFC43
:1058E40026E07A684FF42053C4F201039A420CD1A3
:1058F4004FF480604FF001010CF0BEFC4FF4806067
:105904004FF000010CF0B8FC12E07A684FF47053C9
:10591400C4F201039A420BD14FF400404FF001014D
:105924000CF0AAFC4FF400404FF000010CF0A4FC72
:1059340007F10807BD4680BD80B584B000AF78602C
:1059440039604FF00003FB604FF00003FB727A688C
:105954004FF41053C4F201039A4215D07A684FF4FD
:105964002053C4F201039A420ED07A684FF4705364
:10597400C4F201039A4207D04CF20C50C0F6010065
:105984004FF0E10116F09EFD3B681B68002B34D0FC
:105994003B681B68B3F5803F2FD03B681B68B3F5A9
:1059A400003F2AD03B681B68B3F5403F25D03B68D5
:1059B4001B68B3F5802F20D03B681B68B3F5A02F7C
:1059C4001BD03B681B68B3F5C02F16D03B681B681F
:1059D400B3F5E02F11D03B681B68B3F5002F0CD052
:1059E4003B681B68B3F5102F07D04CF20C50C0F67F
:1059F40001004FF0E20116F065FD3B681B79002BB6
:105A04000BD03B681B79012B07D04CF20C50C0F62D
:105A140001004FF0E30116F055FD3B685B79002B64
:105A24000BD03B685B79012B07D04CF20C50C0F6CD
:105A340001004FF0E40116F045FD3B689B68002B24
:105A440047D03B689B68B3F5003F42D03B689B68F6
:105A5400B3F5802F3DD03B689B68B3F5C02F38D099
:105A64003B689B68B3F5002F33D03B689B68B3F564
:105A7400202F2ED03B689B68B3F5402F29D03B687C
:105A84009B68B3F5602F24D03B689B68002B20D023
:105A94003B689B68B3F5003F1BD03B689B68B3F53C
:105AA400C02F16D03B689B68B3F5002F11D03B681C
:105AB4009B68B3F5202F0CD03B689B68B3F5402F4F
:105AC40007D04CF20C50C0F601004FF0E50116F07F
