:020000040800F2
:1000000000000120E58C010811E200081DE2000853
:1000100025E200082DE2000835E20008000000009B
:10002000000000000000000000000000A58D010895
:100030003DE2000800000000A58D0108A58D010823
:10004000A58D0108A58D0108A58D0108A58D0108C4
:10005000A58D0108A58D0108A58D0108A58D0108B4
:10006000A58D0108A58D0108A58D0108A58D0108A4
:10007000A58D0108A58D0108A58D0108A58D010894
:10008000A58D0108A58D0108A58D0108A58D010884
:10009000A58D0108A58D0108A58D0108A58D010874
:1000A000A58D0108A58D0108A58D0108A58D010864
:1000B0006DE10008A58D0108A58D0108A58D010839
:1000C000A58D0108A58D0108A58D0108A58D010844
:1000D000A58D01089DE40008A58D0108A58D0108E6
:1000E000A58D0108A58D0108A58D0108000000005F
:1000F0000000000000000000000000000000000000
:100100000000000000000000A58D0108A58D010879
:10011000A58D0108A58D0108A58D0108A58D0108F3
:10012000A58D0108A58D0108A58D0108A58D0108E3
:10013000A58D0108A58D0108A58D0108A58D0108D3
:10014000A58D0108A58D0108A58D010800000000FE
:10015000000000000000000000000000000000009F
:10016000000000000000000000000000000000008F
:10017000000000000000000000000000000000007F
:10018000000000000000000000000000000000006F
:10019000000000000000000000000000000000005F
:1001A000000000000000000000000000000000004F
:1001B000000000000000000000000000000000003F
:1001C000000000000000000000000000000000002F
:1001D000000000000000000000000000000000001F
:0401E0005FF8E0F1F3
:1001E80010402DE928409FE50030D4E5000053E396
:1001F8000500001A1C009FE5000050E318009F1539
:1002080000F020130110A0E30010C4E51040BDE881
:100218001EFF2FE138060020000000003C170208EE
:1002280008402DE934309FE5000053E330009F1566
:1002380030109F1500F020132C009FE5001090E56A
:10024800000051E30300000A20309FE5000053E35B
:100258000FE0A01113FF2F110840BDE81EFF2FE18A
:10026800000000003C1702083C0600203006002071
:100278000000000081F0004102E000BF83F000436D
:1002880030B54FEA41044FEA430594EA050F08BF29
:1002980090EA020F1FBF54EA000C55EA020C7FEAED
:1002A800645C7FEA655C00F0E2804FEA5454D4EB6A
:1002B8005555B8BF6D420CDD2C4480EA020281EA34
:1002C800030382EA000083EA010180EA020281EA6C
:1002D8000303362D88BF30BD11F0004F4FEA0131BE
:1002E8004FF4801C4CEA113102D0404261EB4101CD
:1002F80013F0004F4FEA03334CEA133302D0524253
:1003080063EB430394EA050F00F0A780A4F101040E
:10031800D5F1200E0DDB02FA0EFC22FA05F2801848
:1003280041F1000103FA0EF2801843FA05F359412E
:100338000EE0A5F120050EF1200E012A03FA0EFCAD
:1003480028BF4CF0020C43FA05F3C01851EBE371D7
:1003580001F0004507D54FF0000EDCF1000C7EEBF4
:1003680000006EEB0101B1F5801F1BD3B1F5001F32
:100378000CD349085FEA30004FEA3C0C04F1010451
:100388004FEA445212F5800F80F09A80BCF1004F7A
:1003980008BF5FEA500C50F1000041EB045141EAFC
:1003A800050130BD5FEA4C0C404141EB010111F4FD
:1003B800801FA4F10104E9D191F0000F04BF0146A8
:1003C8000020B1FA81F308BF2033A3F10B03B3F186
:1003D80020020CDA0C3208DD02F1140CC2F10C0216
:1003E80001FA0CF021FA02F10CE002F11402D8BF74
:1003F800C2F1200C01FA02F120FA0CFCDCBF41EA40
:100408000C019040E41AA2BF01EB0451294330BD0E
:100418006FEA04041F3C1CDA0C340EDC04F11404EB
:10042800C4F1200220FA04F001FA02F340EA0300C2
:1004380021FA04F345EA030130BDC4F10C04C4F108
:10044800200220FA02F001FA04F340EA03002946E8
:1004580030BD21FA04F0294630BD94F0000F83F432
:10046800801306BF81F480110134013D4EE77FEA15
:10047800645C18BF7FEA655C29D094EA050F08BF61
:1004880090EA020F05D054EA000C04BF1946104642
:1004980030BD91EA030F1EBF0021002030BD5FEA86
:1004A800545C05D14000494128BF41F0004130BDAE
:1004B80014F580043CBF01F5801130BD01F0004502
:1004C80045F0FE4141F470014FF0000030BD7FEA75
:1004D800645C1ABF194610467FEA655C1CBF0B4670
:1004E800024650EA013406BF52EA033591EA030F87
:1004F80041F4002130BD00BF90F0000F04BF00217F
:10050800704730B54FF4806404F132044FF00005B1
:100518004FF0000150E700BF90F0000F04BF00212A
:10052800704730B54FF4806404F1320410F0004590
:1005380048BF40424FF000013EE700BF42004FEA8B
:10054800E2014FEA31014FEA02701FBF12F07F4308
:1005580093F07F4F81F06051704792F0000F14BF05
:1005680093F07F4F704730B54FF4607401F0004549
:1005780021F0004120E700BF50EA010208BF7047A0
:1005880030B54FF000050AE050EA010208BF704795
:1005980030B511F0004502D5404261EB41014FF4FE
:1005A800806404F132045FEA915C3FF4DCAE4FF002
:1005B80003025FEADC0C18BF03325FEADC0C18BFE9
:1005C800033202EBDC02C2F1200300FA03FC20FA3A
:1005D80002F001FA03FE40EA0E0021FA02F1144487
:1005E800C1E600BF70B54FF0FF0C4CF4E06C1CEA9C
:1005F80011541DBF1CEA135594EA0C0F95EA0C0F11
:1006080000F0DEF82C4481EA030621EA4C5123EA83
:100618004C5350EA013518BF52EA033541F48011B2
:1006280043F4801338D0A0FB02CE4FF00005E1FB65
:1006380002E506F00042E0FB03E54FF00006E1FBAF
:1006480003569CF0000F18BF4EF0010EA4F1FF04F2
:10065800B6F5007F64F5407404D25FEA4E0E6D4132
:1006680046EB060642EAC62141EA55514FEAC52043
:1006780040EA5E504FEACE2EB4F1FD0C88BFBCF5BF
:10068800E06F1ED8BEF1004F08BF5FEA500E50F170
:10069800000041EB045170BD06F0004646EA010136
:1006A80040EA020081EA0301B4EB5C04C2BFD4EB68
:1006B8000C0541EA045170BD41F480114FF0000E61
:1006C800013C00F3AB8014F1360FDEBF002001F0CF
:1006D800004170BDC4F10004203C35DA0C341BDC49
:1006E80004F11404C4F1200500FA05F320FA04F01B
:1006F80001FA05F240EA020001F0004221F000414F
:1007080010EBD37021FA04F642EB06015EEA430EC1
:1007180008BF20EAD37070BDC4F10C04C4F12005F1
:1007280000FA04F320FA05F001FA04F240EA0200A4
:1007380001F0004110EBD37041F100015EEA430E75
:1007480008BF20EAD37070BDC4F1200500FA05F295
:100758004EEA020E20FA04F301FA05F243EA020314
:1007680021FA04F001F0004121FA04F220EA020023
:1007780000EBD3705EEA430E08BF20EAD37070BD69
:1007880094F0000F0FD101F00046400041EB010149
:1007980011F4801F08BF013CF7D041EA060195F02B
:1007A800000F18BF704703F00046520043EB0303E5
:1007B80013F4801F08BF013DF7D043EA06037047D2
:1007C80094EA0C0F0CEA135518BF95EA0C0F0CD0DD
:1007D80050EA410618BF52EA4306D1D181EA030123
:1007E80001F000414FF0000070BD50EA410606BF1D
:1007F8001046194652EA430619D094EA0C0F02D162
:1008080050EA013613D195EA0C0F05D152EA0336A6
:100818001CBF104619460AD181EA030101F00041C4
:1008280041F0FE4141F470014FF0000070BD41F00D
:10083800FE4141F4780170BD70B54FF0FF0C4CF4E7
:10084800E06C1CEA11541DBF1CEA135594EA0C0F06
:1008580095EA0C0F00F0A7F8A4EB050481EA030E53
:1008680052EA03354FEA013100F088804FEA03333A
:100878004FF0805545EA131343EA12634FEA022208
:1008880045EA111545EA10654FEA00260EF00041C9
:100898009D4208BF964244F1FD0404F5407402D21B
:1008A8005B084FEA3202B61A65EB03055B084FEAAC
:1008B80032024FF480104FF4002CB6EB020E75EBA9
:1008C800030E22BFB61A754640EA0C005B084FEAD1
:1008D8003202B6EB020E75EB030E22BFB61A75464E
:1008E80040EA5C005B084FEA3202B6EB020E75EB99
:1008F800030E22BFB61A754640EA9C005B084FEA11
:100908003202B6EB020E75EB030E22BFB61A75461D
:1009180040EADC0055EA060E18D04FEA051545EA0C
:1009280016754FEA06164FEAC30343EA52734FEAB5
:10093800C2025FEA1C1CC0D111F4801F0BD141EA2E
:1009480000014FF000004FF0004CB6E711F4801F93
:1009580004BF01430020B4F1FD0C88BFBCF5E06F73
:100968003FF6AFAEB5EB030C04BFB6EB020C5FEA83
:10097800500C50F1000041EB045170BD0EF0004ED8
:100988004EEA113114EB5C04C2BFD4EB0C0541EA0A
:10099800045170BD41F480114FF0000E013C90E607
:1009A80045EA060E8DE60CEA135594EA0C0F08BFCB
:1009B80095EA0C0F3FF43BAF94EA0C0F0AD150EACA
:1009C80001347FF434AF95EA0C0F7FF425AF10465D
:1009D80019462CE795EA0C0F06D152EA03353FF485
:1009E800FDAE1046194622E750EA410618BF52EA02
:1009F80043067FF4C5AE50EA41047FF40DAF52EAD6
:100A080043057FF4EBAE12E74FF0FF3C06E000BF72
:100A18004FF0010C02E000BF4FF0010C4DF804CD7F
:100A28004FEA410C7FEA6C5C4FEA430C18BF7FEA3F
:100A38006C5C1BD001B050EA410C0CBF52EA430C6D
:100A480091EA030F02BF90EA020F0020704710F1ED
:100A5800000F91EA030F58BF994208BF90422CBF7C
:100A6800D8176FEAE37040F0010070474FEA410C75
:100A78007FEA6C5C02D150EA013C07D14FEA430C93
:100A88007FEA6C5CD6D152EA033CD3D05DF8040B04
:100A9800704700BF8446104662468C461946634636
:100AA80000E000BF01B5FFF7B7FF002848BF10F10D
:100AB800000F01BD4DF808EDFFF7F4FF0CBF012052
:100AC80000205DF808FB00BF4DF808EDFFF7EAFFCE
:100AD80034BF012000205DF808FB00BF4DF808ED89
:100AE800FFF7E0FF94BF012000205DF808FB00BF7E
:100AF8004DF808EDFFF7CEFF94BF012000205DF808
:100B080008FB00BF4DF808EDFFF7C4FF34BF012014
:100B180000205DF808FB00BF032A70B424D941EA1D
:100B280000050346AD070C4611D00578431C0C7828
:100B38008218A54206D01BE013F8015B11F8014F9B
:100B4800A54215D19342F7D1002070BC70472146C9
:100B580018460434043306680D68AE4204D1043ADA
:100B6800032AF4D821461846002ADED11046ECE7BD
:100B7800281BEAE7032A2DE9F00109D82AB1002346
:100B8800CC5CC45401339342FAD1BDE8F0017047FC
:100B980085070244034605D011F8014B03F8014BC1
:100BA8009C07F9D111F0030542D0D41A6E42032CE8
:100BB8008F5912DDC5F1040CED004FEACC0C04315D
:100BC80027FA05F88C59274604FA0CF444EA080475
:100BD80043F8044BD41A032CF1DC9A42D5D90022ED
:100BE8008D5C9D540132A242FAD1CEE70C681C609C
:100BF8004C685C608C689C60CC68DC600C691C612B
:100C08004C695C618C699C61CC69DC610C6A1C6212
:100C18004C6A5C628C6A9C62CC6ADC620C6B1C63FA
:100C28004C6B5C638C6B9C63CC6B4031DC634033F6
:100C3800D41A3F2CDADC0AE00C681C604C685C6053
:100C48008C689C60CC681031DC601033D41A0F2C8F
:100C5800F2DC04E051F8044B43F8044BD41A032C9B
:100C6800F8DCBAE7032AC9B270B407D822B1002366
:100C7800C15401339342FBD170BC704785070244CD
:100C8800034603D003F8011B9C07FBD10C02D51ABD
:100C9800641826043F2D34441ADD1C605C609C6097
:100CA800DC601C615C619C61DC611C625C629C6252
:100CB800DC621C635C639C63DC634033D51A3F2DA4
:100CC800EBDC05E01C605C609C60DC601033D51ACE
:100CD8000F2DF7DC02E043F8044BD51A032DFADC9C
:100CE8009342C9D203F8011B9342FBD1C4E700BF6A
:100CF8000EB410B5044683B018B183690BB904F07B
:100D0800D1F9204606AC059A23468168019401F082
:100D1800CBFB03B0BDE8104003B070470FB440F2FE
:100D28000403C2F2000310B582B01C6824B1A369A1
:100D380013B9204604F0B6F9204605AC049A2346B8
:100D48008168019401F0B0FB02B0BDE8104004B026
:100D5800704700BF38B50C460968054609B1FFF76A
:100D6800F9FF28462146BDE8384004F089BA00BF9B
:100D780040F20403C2F2000370B505461B689842AE
:100D880048D0426AF2B1D368BBB10022164653F884
:100D9800221009B908E021460C68284604F070FAC8
:100DA800002CF8D16B6ADB680136202E3246EED172
:100DB8002846194604F064FA6A6A116811B128468F
:100DC80004F05EFA696911B1284604F059FA696AB3
:100DD80011B1284604F054FAA96B11B1284604F061
:100DE8004FFAE96B11B1284604F04AFA296C11B19F
:100DF800284604F045FAAB6C2BB1D3F8881011B132
:100E0800284604F03DFA696B11B1284604F038FA17
:100E1800AB6903B970BDAB6A28469847D5F8D810B6
:100E28000029F7D02846BDE87040FFF793BF00BF00
:100E380070B5064690B1B36C5BB15D686C1E08D4A2
:100E4800023503EB850555F8043D013C9847631CC2
:100E5800F9D1B36A0BB13046984770BD40F204032C
:100E6800C2F200031E68E6E70CB44FF4027370B5D3
:100E78009CB020AC0E46ADF8103001A954F8042BF4
:100E88004FF0FF33ADF812306FF00045234601965E
:100E98000596039506951B9400F09AF8019B00228D
:100EA8001A701CB0BDE8704002B070470EB440F232
:100EB8000403F0B59CB021ACC2F20003064601A9B8
:100EC80054F8042B6FF0004518684FF40277234656
:100ED800019605964FF0FF36ADF81070ADF8126028
:100EE800039506951B9400F073F8019B00221A7075
:100EF8001CB0BDE8F04003B0704700BF20F003010C
:100F080010F00300C0F1000051F8043B00F1040C9C
:100F18004FEACC0C6FF000021CBF22FA0CF213430C
:100F28004FF0010C4CEA0C2C4CEA0C4CA3EB0C02D5
:100F380022EA030212EACC1204BF51F8043B04303F
:100F4800F4D013F0FF0F1FBF013013F47F4F0130AF
:100F580013F47F0F18BF0130704700BF41EA000348
:100F680013F0030F034670B414BF00240124032AAE
:100F780094BF002404F001040D46C4B9AAB10C784A
:100F8800013A03F8014B4CB11C4672B111F8016FDC
:100F9800013A04F8016B2346002EF6D12AB19A18BB
:100FA800002103F8011B9342FBD170BC704729460E
:100FB80055F8044BA4F1013626EA040616F0803FE2
:100FC800DCD1043A43F8044B032AF0D82946D5E784
:100FD8002DE9F04FC7B08B46924610930E9004F05F
:100FE800A7FA00681990FFF789FFBBF80C301B06B9
:100FF8001C9004D5DBF81030002B01F0F1803BAADF
:101008000DF1EB0146F267600023089221AEC6F2AB
:101018006660521A0F9307911A931B9317931E93A6
:101028000C931D901F923B963D933C939AF8003089
:101038001A1C18BF0122252B0CBF002302F0010344
:10104800002B00F0B9805246574612F8013F01378D
:10105800191C18BF0121252B0CBF002301F0010327
:10106800002BF2D1B7EB0A080FD03C9D3D9C01350F
:10107800C6F800A0072D4444C6F804803C953D946A
:101088007EDC08360C9B43440C933B78002B7FD0C6
:10109800002207F1010A13468DF817217A784FF0DC
:1010A800FF37119309930AF1010AA2F12001582987
:1010B80000F22F83DFE811F041032D032D034803CD
:1010C8002D032D032D032D032D032D034F03820024
:1010D8002D035D0086002D03A200A900A900A90028
:1010E800A900A900A900A900A900A9002D032D03A2
:1010F8002D032D032D032D032D032D032D032D0368
:10110800BA002C022D032C022D032D032D032D03D1
:1011180068022D032D036F022D032D032D032D03CC
:101128002D038D022D032D039A022D032D032D036C
:101138002D032D032D032D032D032D032D039003C4
:1011480075032C022C022C02890375032D032D0331
:10115800F7022D0309031803A403C4022D03CB02CD
:101168002D035C032D032D03C003119910904942F0
:101178001191099A42F0040209929AF8002092E724
:101188000E9859463BAA05F081FB40B921AE79E794
:101198003D9B23B10E9859463BAA05F077FBBBF857
:1011A8000C3013F0400F0C9B18BF4FF0FF330C931B
:1011B8000C9847B0BDE8F08F574666E79AF80020CC
:1011C8002B2370E7514611F8012B2A2A01F03681AA
:1011D800A2F13000002709288A463FF666AF0027AB
:1011E80011F8012B07EB870700EB4707A2F1300046
:1011F80009288A46F4D947EAE77756E7099941F07A
:10120800800109919AF800204DE750460021A2F18B
:10121800300510F8012B01EB8101A2F13004824660
:10122800092C05EB4101F2D911913EE70998169274
:1012380040F01000099009998DF817318C0640F19B
:10124800B782109AD31D23F0070303F1080010900A
:10125800D3E9002314461D46002A73F10000C0F2AA
:10126800F08554EA05019DF817810CBF002301237E
:101278000122002FA2BF099820F080000990002FBA
:1012880018BF43F00103002B00F07083012A00F01F
:10129800B584022A18BF3BAA02D100F093BC62466B
:1012A800E308E80843EA457304F0070105461C46CD
:1012B80001F1300354EA050102F1FF3C02F8013C58
:1012C800EDD10998CDF848C0C00700F1A18508986C
:1012D800CCEB00030D930D9900221397B942B8BFC8
:1012E800394618920A91B8F1000F02D00A9A0132D1
:1012F8000A92099B13F00203149302D00A98023051
:101308000A90099B13F08403159340F0BA82119850
:101318000A99471A002F40F3B482102F4CF27048F4
:101328003D9CC0F601083C9D22DD23464FF0100984
:101338004446DDF8388002E0103F102F16DD0135F5
:10134800103386E810020836072D3C953D93F3DDEF
:10135800404659463BAA21AE05F098FA00287FF48A
:101368001EAF103F3D9B102F3C9DE8DCA0461C465D
:101378000135E419072DC6F8008077603C953D9447
:1013880000F374829DF817810836B8F1000F0DD06C
:101398003C9D45AB0333336001350123072D1C44C5
:1013A80073603C953D9400F3AC830836149B63B19D
:1013B8003C9D45AB336002230135E418072D73606B
:1013C8003C953D9400F3A8830836159B802B00F0CC
:1013D800E18213980D9BC71A002F35DD102F3C9D15
:1013E800D8BFDFF8288A24DDDFF8208A23464FF0AB
:1013F80010094446DDF8388002E0103F102F16DD52
:101408000135103386E810020836072D3C953D93C8
:10141800F3DD404659463BAA21AE05F037FA0028CD
:101428007FF4BDAE103F3D9B102F3C9DE8DCA046ED
:101438001C460135E419072DC6F8008077603C95F5
:101448003D9400F3538308360999CA0500F13282A6
:101458003C9D0D9B01351298072D1C44736030602C
:101468003D943C9500F31B82083609994B0740D5FB
:10147800119A0A9BD71A002F3BDD102F4CF27048A7
:101488003C9DC0F6010822DD23464FF01009444672
:10149800DDF8388002E0103F102F16DD01351033DB
:1014A80086E810020836072D3C953D93F3DD40464B
:1014B80059463BAA21AE05F0E9F900287FF46FAE42
:1014C800103F3D9B102F3C9DE8DCA0461C46013593
:1014D8003C19072DC6F8008077603C953D9408DDDF
:1014E8000E9859463BAA05F0D1F900287FF457AE6B
:1014F8003D9C0C980A9A11998A42ACBF80184018F2
:101508000C90002C40F0E382002321AE3C938DE543
:1015180010988DF81731C31D169223F0070303F1B5
:10152800080110911A681A925B681A981B931B9904
:1015380005F01CF801281A9840F092840022002334
:101548001B99FFF7C1FA9DF8178118B14FF02D08C4
:101558008DF817810320002141F2DC6241F2D86343
:101568000A90C0F602031391C0F602020999169870
:1015780021F0800109914728D8BF1A46002312920A
:10158800032218930D92AEE6099A42F008020992D6
:101598009AF8002087E50999169241F010010991FF
:1015A800099B13F0200200F0A58010980022C31DAB
:1015B80023F0070303F108011091D3E9004554EA29
:1015C80005030CBF002301234FF000088DF8178195
:1015D8004FE60999169241F010010991099A90066F
:1015E80040F1CB8010980122C31DE1E78DF8173137
:1015F80041F2E861099BC0F6020116929B06179119
:1016080040F126811098C31D23F0070303F1080158
:101618001091D3E9004554EA0501099A0CBF00234B
:1016280001231A4200F04983169B42F002020992F4
:1016380002228DF8153130238DF814310123C3E7C8
:10164800099941F0200109919AF800202BE5109B97
:1016580000241692191D8DF817411B6810911293DA
:10166800002B00F05286002F1298C0F20F862146F8
:101678003A4604F0B1FA002800F07D8612991394D6
:10168800401A0D90B8421894C5BF27EAE7720D9723
:101698000D9B0A92D7BF23EAE3739DF817810A933B
:1016A8009DF817811FE69AF8002051466C2A05BF5D
:1016B8000AF1010A099A099842F0200215BF40F080
:1016C8001000099209904A78EDE409988DF81731CD
:1016D800820640F1148410990C9A0B680431109119
:1016E800D1171A605960A1E4099B169213F02002E1
:1016F8007FF45BAF099810F0100300F0EF831099A6
:101708000B68043110911C46003318BF01230025D3
:101718005AE716928DF81731002A3FF439AD0023A5
:10172800012031A90A9098468DF8C4208DF8173108
:101738000D90139318931291DBE59AF80020002B73
:101748007FF4B1AC2023AEE4099A42F00102099279
:101758009AF80020A7E41098109900681190081DC5
:10176800119A002AFFF601AD9AF8002010909AE429
:101778001692099A90063FF535AF0998C10600F10F
:101788009E82099A520640F19A82109B00250122F6
:101798001C880433109354EA05000CBF002301236E
:1017A80012E7099916928C068DF817313FF549AD65
:1017B8000999C80640F18483109A1368043210927C
:1017C8001C461A46DD172B4646E5099840F04000AE
:1017D80009909AF8002066E4109B0120109916924F
:1017E80000221B68904604318DF817211392189235
:1017F80031AA0A9010910D908DF8C430129278E5B4
:10180800109B002510987821099A1B68043042F033
:101818000202109009921C46302241F2FC605B1BC8
:101828008DF8142118BF0123C0F602008DF8151198
:10183800022217901691C7E68DF81731099B169268
:1018480041F2FC629B06C0F6020217923FF5DAAE3F
:10185800099AD50600F13E8209994C0640F13A8270
:10186800109A0025148804321092D4E60E9859462E
:101878003BAA05F00BF800287FF491AC9DF817817E
:1018880021AE3D9C81E5A0461C460135C6F8008086
:10189800072D77603C443C953D947FF7E5AD0E9865
:1018A80059463BAA04F0F2FF00287FF478AC21AE39
:1018B8003D9CDAE51699652940F3A9801A9800221B
:1018C80000231B99FFF7F6F8002800F030813C9DB3
:1018D80041F21873C0F60203336001350123072D66
:1018E8001C4473603C953D9400F314830836429B76
:1018F8000F9A934203DB099BDB077FF5B6AD3C9D4E
:101908001C9801351999072D0444706031603D9485
:101918003C9500F3788308360F9A571E002F7FF7FF
:10192800A4AD102F3C9D40F34E85DFF8E08423469C
:101938004FF010094446DDF8388002E0103F102FC0
:10194800A1DD0135103386E810020836072D3C95D5
:101958003D93F3DD404659463BAA21AE04F096FF7D
:1019680000287FF41CAC3D9B3C9DE7E7002A40F033
:10197800B8800998C1075EBF0D923BA812907FF509
:10198800AAAC1F9930230DF1EB028DF8EB301292BF
:101998000D91A0E411980A99471A002F7FF719AD05
:1019A800102F3C9DD8BFDFF8648424DDDFF85C8409
:1019B80023464FF010094446DDF8388002E0103F16
:1019C800102F16DD0135103386E810020836072D72
:1019D8003C953D93F3DD404659463BAA21AE04F0C1
:1019E80055FF00287FF4DBAB103F3D9B102F3C9D3B
:1019F800E8DCA0461C460135E419072DC6F800802E
:101A080077603C953D9400F310820836E1E40F9B23
:101A18003C9D012B40F3C781013512990134012304
:101A2800072D736031603D943C9500F3E3810836DF
:101A380001351C9B199A072D1C443C957360326034
:101A48003D9400F3CB8108361A98002200231B9995
:101A5800FFF730F8002840F006810F9801351299F9
:101A6800431E3C954A1C072D1C4486E80C003D94F7
:101A780021DC083601351E98072D3EAB044433603F
:101A880070603D943C957FF7EFAC0E9859463BAAA1
:101A980004F0FCFE00287FF482AB3D9C21AEE4E418
:101AA800A0461C460135E419072DC6F8008077606A
:101AB8003C953D94DDDD0E9859463BAA04F0E6FEC0
:101AC80000287FF46CAB21AE3D9C3C9DD2E70E987C
:101AD80059463BAA04F0DAFE00283FF415ADFFF79B
:101AE8005EBB0D933BAB1293FFF7F5BB0E985946BF
:101AF8003BAA04F0CBFE00287FF451AB3D9C21AEFD
:101B0800A2E40E9859463BAA04F0C0FE00287FF4D0
:101B180046AB3D9C21AE49E40E9859463BAA04F0D9
:101B2800B5FE00287FF43BAB3D9C21AE4DE4429FBF
:101B3800002F40F3FA810F9F1899129A8F42A8BF7D
:101B48000F460F9B002F1A440D920BDD3C9DE419A4
:101B5800129B01357760072D3D9433603C9500F367
:101B6800A2830836189827EAE777C71B002F40F3A7
:101B7800C280102F3C9DD8BFDFF8908240F394813B
:101B8800DFF8888223464FF010094446DDF8388094
:101B980003E0103F102F40F385810135103386E8AC
:101BA80010020836072D3C953D93F2DD4046594614
:101BB8003BAA21AE04F06AFE00287FF4F0AA3D9B00
:101BC8003C9DE6E7DDF85C900DF1EB02B44604F0CD
:101BD8000F01230943EA05732E0919F801001C4671
:101BE80035461146013A54EA05030870EFD1089BBF
:101BF800664612915B1A0D93FFF76DBB0A2C75F1BF
:101C0800000022BFCDF828A00DF1EB09B24609D299
:101C18001F9930340DF1EB028DF8EB4012920D91C3
:101C2800FFF759BB204629460A22002307F05AFA33
:101C38004E4620462946002309F1FF3902F13004B7
:101C48000A22347007F04EFA04460D4654EA05039A
:101C5800E8D112965646DDF828A00898129BC31AB8
:101C68000D93FFF738BB0F9A571E002F7FF702AF6F
:101C7800102FDFF898817FF715AF23464FF0100932
:101C88004446DDF8388003E0103F102F7FF708AF97
:101C98000135103386E810020836072D3C953D9330
:101CA800F2DD404659463BAA21AE04F0EFFD00287C
:101CB8007FF475AA3D9B3C9DE6E7022284E41099D7
:101CC80001220B68043110911C46003318BF012310
:101CD800002579E4109800250368043010901C460C
:101CE80099E40E9859463BAA04F0D0FD00287FF4E9
:101CF80056AA3D9C21AE429B0F998B4245DB099A1F
:101D0800D10742D41298189942180F980D99C31AFE
:101D18008F1ABB42B8BF1F46002F0ADD3C9DE4194D
:101D2800326001357760072D3D943C9500F3DF82E2
:101D3800083627EAE777DF1B002F7FF796AB102FCF
:101D48003C9D40F34083DFF8C48023464FF01009E0
:101D58004446DDF8388003E0103F102F7FF793AD3D
:101D68000135103386E810020836072D3C953D935F
:101D7800F2DD404659463BAA21AE04F087FD002813
:101D88007FF40DAA3D9B3C9DE6E73C9D1C980135E0
:101D98001999072D0444706031603D943C9500F317
:101DA8009A820836AEE70998C2073FF535AE129B0E
:101DB800013501343C953D9433600123072D736050
:101DC8007FF757AE0E9859463BAA04F05FFD0028EE
:101DD8007FF4E5A93D9C21AE3C9D4BE60E98594603
:101DE8003BAA04F053FD00287FF4D9A93D9C21AEFD
:101DF8003C9D29E60E9859463BAA04F047FD002869
:101E08007FF4CDA93D9C21AE3C9D11E680C401081C
:101E1800302B3FF422AF089B911E12915B1A0D9351
:101E2800302302F8023CFFF756BA0E9859463BAAEF
:101E380004F02CFD00287FF4B2A93D9C21AEFFF7E9
:101E4800C8BA644265EB45054FF02D0854EA05020F
:101E58008DF817810CBF002301230122FFF709BA6F
:101E68001B9904F083FB002840F0D880139041F2BE
:101E7800E46241F2E0631698C0F60203C0F602027B
:101E88004728D8BF1A46139B03210A910999129231
:101E9800032221F080019DF8178109910D92189372
:101EA800FFF721BAA0461C460135E419072DC6F8EC
:101EB800008077603C953D943FF713AF08361AE7EA
:101EC800099B590640F195801098B0F900400430FC
:101ED80010902246E5172B46FFF7BEB9099810F077
:101EE80040026FD0109900251A460C8804311091D1
:101EF80054EA05030CBF00230123FFF765BB099AC9
:101F0800D3066AD510980C990368043010901960AC
:101F1800FFF78CB80E9859463BAA04F0B7FC002886
:101F28007FF43DA93D9C21AEE1E43C9D41F218734C
:101F3800C0F60203336001350123072D1C4473608A
:101F48003C953D9400F3648108362FB90F9B1BB96B
:101F58000998C0077FF589AA3C9D1C990135199AF3
:101F6800072D0C44716032603D943C9500F30E825D
:101F780008367F42002F40F37C81102FDFF824853C
:101F880040F39E8123464FF010094446DDF838801F
:101F980003E0103F102F40F391810135103386E89C
:101FA80010020836072D3C953D93F2DD4046594610
:101FB8003BAA21AE04F06AFC00287FF4F0A83D9B00
:101FC8003C9DE6E710980368043010901C460033E7
:101FD80018BF01230025FFF7F7BA099A570640F101
:101FE8000F8110980C990368043010901980FFF73E
:101FF8001DB810990B68043110911C461A46DD175C
:102008002B46FFF729B90E9859463BAA04F03EFC27
:1020180000287FF4C4A83D9C21AE7DE47A1C00F022
:1020280003811699A1F167056B4243EB0503472924
:1020380008BF43F00103994623B14FF001090FB9D6
:102048000127B9461B9B099A002B42F4807209921A
:10205800C0F2B181DDF86C800020139016993D46DE
:10206800169AA1F16604614241EB040103238C46F0
:102078000D91462A08BF4CF0010CBCF1000F0DD1A0
:10208800A2F16500434243EB0003452A08BF43F031
:102098000103002B00F094817D1C02231A9842A9A9
:1020A800CDF82C8000930A90DDE90A230E9802915E
:1020B80043A9CDF818C0039144A90195049101F0F2
:1020C8003BFF169ADDF818C0B2F1670318BF012369
:1020D800472A0CBF002303F00103129023B9099B80
:1020E800D90758BF449C14D512984419BCF1000F65
:1020F80005D00378302B00F0A480429D64191A980B
:10210800002200234146FEF7D5FC002800F0268176
:1021180044941299641A0F94B9F1000F00F00881E1
:10212800429BDA1C02DB9F4280F20981169A023A2E
:102138001692013B1698002B42938DF8F800C0F2D6
:102148006D812B228DF8F920092B40F32C8141ADAC
:102158001D9F0335294687FB0320DA170C46C2EB7F
:10216800A00202EB8200A3EB400013463030092A9C
:1021780001F8010DEFDC22463033194602F8023D22
:10218800954298BF0DF1FA010BD90DF1FA030DF53F
:10219800837001E012F8011F824203F8011B1946FF
:1021A800F8D10F983EABCB1A1E93012803440D9328
:1021B80040F339810D9B0020189001330D9323EAD9
:1021C800E3710A91139A9DF81781002A3FF48BA8AE
:1021D8004FF02D0800238DF817811393FFF786B869
:1021E8000E98402103F03AFACBF80000CBF8100023
:1021F800002800F047814023CBF81430FEF7FFBEDB
:10220800109A0C981368043210921860FEF70EBFEB
:102218000E9859463BAA04F039FB00287EF4BFAF5C
:10222800429F21AE3D9C90E61698A0F14707D7F152
:10223800000949EB07090627672808BF49F0010983
:1022480000E71A98002200234146FEF733FC0028D5
:102258007FF453AFC5F1010542954FE70E985946F3
:102268003BAA04F013FB00287EF499AF3D9C21AEF5
:102278003C9D01350F98129B072D04443C957060D6
:1022880033603D947FF7F0A8FFF709BB1394FEF77E
:1022980035FE139C9DF8178118940D9020EAE07084
:1022A8000A90FFF720B80E9859463BAA04F0EEFAB8
:1022B80000287EF474AF3D9C21AE53E4A0461C4632
:1022C8000135E419072DC6F8008077603C953D94E8
:1022D800C4DC0836CDE70E9859463BAA04F0D6FA76
:1022E80000287EF45CAF429B21AE3D9C0AE50E9827
:1022F80059463BAA04F0CAFA00287EF450AF429B24
:1023080021AE0F9A3D9CD31A13E5062F28BF062746
:1023180041F210729846C0F6020227EAE7730D9759
:102328000A93CDF84C80CDF860801292FEF7DBBF9F
:10233800169B652B70DD0D9A429B002A5ED10F9A81
:102348009A4244DC0998C10750D5581C672120EAF5
:10235800E0720D9016910A92189333E7449B9C42C1
:1023680098BF1C467FF6D5AE302203F8012BA34256
:102378004493FAD1CDE6139027EAE770139B0A90AD
:102388009DF817810D971893FEF7ADBF0E98594623
:102398003BAA04F07BFA00287EF401AF429F21AEED
:1023A8003D9C3C9DE5E5303330223FA98DF8FA206D
:1023B8008DF8FB30F5E603F100482D2313934DE625
:1023C8003D4602236AE6DFF8DC80FFF75EBA002BA1
:1023D8000F98D4BFC3F102020122121867210D928F
:1023E80022EAE27216910A921893EBE623EAE37165
:1023F80067220A910D9316921893E3E6002B34DDB9
:102408004FBB0998C40726D423EAE37166220A91D0
:102418000D9316921893D5E6429B8AE62D225B42CD
:102428008DF8F92090E6099911F001037FF4C2AE06
:102438000D9A189322EAE2720A92C3E610989AF863
:1024480001208A46076804301090002FB8BF4FF06B
:10245800FF37FEF728BE01376620DF19169027EAF6
:10246800E7710D970A911893ACE617B9099AD00746
:1024780010D50237662027EAE7710D9716900A9162
:1024880018939FE60E994FF0FF300C230C900B60C9
:10249800FEF78EBE012066210A9016910D901893C2
:1024A80090E600BF80C401082DE9F04FADF5AE6D90
:1024B80083B08A46934610930C9003F039F800686D
:1024C8001790FEF71BFD0C9C1A901CB1A369002BFA
:1024D80000F080814CF2F043C0F601039A4500F009
:1024E80083814CF2D043C0F601039A4500F0A987D6
:1024F8004CF2B043C0F601039A4504BF0C9CD4F8D3
:102508000CA0BAF80C40A3B298040AD444F40054BE
:10251800DAF86420AAF80C40A3B222F40052CAF8F0
:102528006420190740F1DB80DAF81020002A00F057
:10253800D68003F01A030A2B00F0E0800DF5AA6498
:102548000DF59C66043408940DF5AA640023033441
:10255800079446F267640798C6F266641D94089C5F
:102568000C360F93241A1B931C9318931E930D93E8
:102578001F94CDF85465CDF85C35CDF858359BF8E7
:1025880000301A1C18BF0122252B0CBF002302F0B3
:102598000103002B00F02C815A465F4612F8013FD8
:1025A8000137191C18BF0121252B0CBF002301F08E
:1025B8000103002BF2D1B7EB0B0814D0DDF8585506
:1025C800DDF85C450135C6F800B0072D4444C6F86F
:1025D8000480CDF85855CDF85C4500F3D680083610
:1025E8000D9C44440D943B78002B00F0DA800022C7
:1025F80007F1010B13468DF877257A784FF0FF37EE
:10260800119309930BF1010BA2F12001582900F253
:10261800F983DFE811F00D04F703F7031504F70356
:10262800F703F703F703F703F7031D04EF00F703B6
:102638005D00F300F7030F01050305030503050318
:1026480005030503050305030503F703F703F7036C
:10265800F703F703F703F703F703F703F7037D031C
:102668001601F7031601F703F703F703F7039802B8
:10267800F703F7039F02F703F703F703F703F703DB
:10268800F802F703F7031603F703F703F703F70353
:10269800F703F703F703F703F703F70340035703B9
:1026A80016011601160176035703F703F7032B04E7
:1026B800F7033E044E046A049803F7039F03F703E5
:1026C800CC03F703F703DD03119C109064421194C7
:1026D800099C44F0040409949BF8002092E70C98A4
:1026E800514601F007FB002841F04682BAF80C4039
:1026F800A3B203F01A030A2B7FF420AFBAF80E50E6
:102708002A043FF51BAFDAF864600DF59061DAF83A
:1027180020E00431DAF828C05A460C984FF4806754
:10272800109B24F00204CDF8E864ADF8904421AC85
:10273800ADF89254CDF88444CDF894440024CDF8F3
:10274800A4E4CDF8ACC4CDF88C74CDF89874CDF869
:102758009C44FFF7A9FE00280D900BDB0DF5906156
:102768000C98043102F05CFB0D9C002818BF4FF058
:10277800FF340D94BDF890345B0625D5BAF80C30BB
:1027880043F04003AAF80C301EE00DF5AA620C983D
:102798005146043204F02AFE68B90DF59C660C36E1
:1027A8001EE7DDF85C3533B10DF5AA620C98514689
:1027B800043204F01BFEBAF80C300D9C13F0400FE5
:1027C80018BF4FF0FF340D940D985FB00DF5806D74
:1027D800BDE8F08F204602F065FC4CF2F043C0F6ED
:1027E80001039A457FF47DAE0C9CD4F804A088E6DA
:1027F8005F46F8E69BF800202B2303E7594611F8BB
:10280800012B2A2A01F04C82A2F130000027092866
:102818008B463FF6F9AE002711F8012B07EB870727
:1028280000EB4707A2F1300009288B46F4D947EAA4
:10283800E777E9E6099C44F0800409949BF80020B6
:10284800E0E6109C8DF87735E31D169223F0070318
:1028580003F1080410941C681B945B681B981C9374
:102868001C9903F083FE01281B9840F0038700227F
:1028780000231C99FEF728F99DF87785002841F078
:102888009880032441F2DC6241F2D8630A94002460
:102898001394169CC0F60203C0F60202472CD8BF58
:1028A8001A46099C0023129224F080041993099473
:1028B80003240E94B8F1000F02D00A9C01340A9444
:1028C800099B13F00203149302D00A9C02340A9461
:1028D800099B13F08403159340F03283119C0A98E6
:1028E800271A002F40F32C83102F4CF29048DDF864
:1028F8005C45C0F60108DDF858552ADD23464FF03F
:1029080010094446DDF8308002E0103F102F1EDD2C
:102918000135103386E810020836072DCDF85855D2
:10292800CDF85C35F1DD0DF5AA620DF59C664046E3
:10293800514604320C3604F059FD00287FF43BAFB1
:10294800103FDDF85C35102FDDF85855E0DCA04667
:102958001C460135E419072DC6F800807760CDF8CC
:102968005855CDF85C4500F3DC829DF8778508362C
:10297800B8F1000F11D0DDF858550DF5AE630733E7
:10298800336001350123072D1C447360CDF8585579
:10299800CDF85C4500F353840836149B8BB1DDF801
:1029A80058550DF5AE630433336001350223072D06
:1029B8001C447360CDF85855CDF85C4500F350843D
:1029C8000836159B802B00F0598313980E9BC71A65
:1029D800002F40DD102FDDF85855D8BFDFF8388BB1
:1029E8002CDDDFF8348B23464FF010094446DDF820
:1029F800308002E0103F102F1EDD0135103386E8CD
:102A080010020836072DCDF85855CDF85C35F1DDA4
:102A18000DF5AA620DF59C664046514604320C3607
:102A280004F0E4FC00287FF4C6AE103FDDF85C3506
:102A3800102FDDF85855E0DCA0461C460135E41996
:102A4800072DC6F800807760CDF85855CDF85C455D
:102A580000F3E58308360999CA0500F19282DDF88A
:102A680058550E9B01351298072D1C447360306031
:102A7800CDF85C45CDF8585500F3738208360999AE
:102A88004B074ED5119A0A9BD71A002F49DD102FF4
:102A98004CF29048DDF85855C0F601082ADD234667
:102AA8004FF010094446DDF8308002E0103F102F47
:102AB8001EDD0135103386E810020836072DCDF8E3
:102AC8005855CDF85C35F1DD0DF5AA620DF59C661B
:102AD8004046514604320C3604F088FC00287FF446
:102AE8006AAE103FDDF85C35102FDDF85855E0DC94
:102AF800A0461C4601353C19072DC6F800807760B2
:102B0800CDF85855CDF85C450BDD0DF5AA620C984B
:102B18005146043204F06AFC00287FF44CAEDDF81C
:102B28005C450D980A9A11998A42ACBF80184018E2
:102B38000D90002C40F061830DF59C6600230C3647
:102B4800CDF858351BE5099C44F0080409949BF816
:102B5800002057E5099C169244F010040994099C3A
:102B680014F0200200F0AB81109C0022E31D23F03A
:102B7800070303F108041094D3E9004554EA05005B
:102B88000CBF002301234FF000088DF87785002F34
:102B9800A2BF099820F080000990002F18BF43F0C9
:102BA8000103002B00F05982012A00F0E283022A77
:102BB8000DF5AA6200F0C383043200E06246E30820
:102BC800E80843EA457304F0070105461C4601F18D
:102BD800300354EA050102F1FF3C02F8013CEDD153
:102BE800099CCDF848C0E00700F12985089CCCEB8A
:102BF80004030E930E9C1397BC42B8BF3C460A943C
:102C08000024199456E6099C169244F0100409947D
:102C1800099CA00640F1D080109C0122E31DA6E784
:102C280058460021A2F1300510F8012B01EB810173
:102C3800A2F130048346092C05EB4101F2D9119128
:102C4800E2E441F2E8648DF87735C0F6020418949E
:102C5800099C1692A30640F1C780109CE31D23F03F
:102C6800070303F108041094D3E9004554EA05006A
:102C780009990CBF002301230222194283D0169A16
:102C8800302341F002018DF87435099101238DF844
:102C98007525022277E7109B01240A94109C1B6873
:102CA800043416921094002201240E940DF5A464A5
:102CB80090460C348DF87725139219928DF82C359F
:102CC8001294FDE5099C1692A4068DF8773529D54E
:102CD800109CE31D23F0070303F108041094D3E9C3
:102CE800002314461D46002A73F10000C0F2B38485
:102CF80054EA05019DF877850CBF002301230122C2
:102D080045E7099C44F0400409949BF8002079E4C5
:102D1800099C169244F010040994099C8DF87735A3
:102D2800A406D5D4099CE00600F16483099C6106D9
:102D380040F160831098B0F90040043010902246AA
:102D4800E5172B46CFE7099C44F0200409949BF82B
:102D5800002057E4109B00241692191D8DF8774522
:102D68001B6810911293002B00F0CC86002F12984C
:102D7800C0F2768621463A4602F02EFF002800F07F
:102D8800008712991394401A139BB8420E90C5BF3E
:102D980027EAE7740E970E9C0A94D7BF24EAE474D6
:102DA8009DF877850A949DF87785199382E5099CA3
:102DB8001692A0063FF530AF099CE10600F12A8380
:102DC800099C620640F1268310980122048883E05A
:102DD80041F2FC648DF87735C0F602041894099C1A
:102DE8001692A3063FF539AF099CE50600F10B835F
:102DF800099C640640F10783109800250488043074
:102E0800109033E716928DF87735002A3FF4C9AC55
:102E1800002301240A9498460E940DF5A4640C34FA
:102E28008DF82C258DF8773513931993129447E56F
:102E38009BF80020002B7FF4E5AB2023FFF7E2BBD3
:102E4800099C44F0010409949BF80020FFF7DABBC1
:102E5800109C24681194109C201D119C002CFFF6D6
:102E680033AC9BF800201090FFF7CCBB9BF80020F8
:102E780059466C2A05BF0BF1010B099C099C44F0CB
:102E880020040BBF4A7844F0100409940994FFF712
:102E9800B9BB099C8DF87735A30640F1EE84109CE8
:102EA8000D9A23680434D11710941A605960FFF7FB
:102EB80066BB099C169214F020027FF455AE099C5B
:102EC80014F0100340F0B282099C14F0400200F0A4
:102ED800AD8210981A4604880025043054EA05018A
:102EE80010900CBF002301234DE6109B0025109C79
:102EF8007821302241F2FC6004341B681094C0F63B
:102F08000200099C8DF8742544F0020409941C46BB
:102F18005B1B18BF01238DF87515189002221691B6
:102F280031E60DF5AA620C985146043204F05EFAB7
:102F380000287FF440AC0DF59C669DF877850C362B
:102F4800DDF85C4514E5A0461C460135C6F800804E
:102F5800072D77603C44CDF85855CDF85C457FF790
:102F68008DAD0DF5AA620C985146043204F03EFA74
:102F780000287FF420AC0DF59C66DDF85C450C3626
:102F88007DE51699652940F3C1801B98002200232E
:102F98001C99FDF78FFD002800F07381DDF8585566
:102FA80041F21873C0F60203336001350123072D7F
:102FB8001C447360CDF85855CDF85C4500F3738414
:102FC8000836DDF868350F9A934203DB099BDB0767
:102FD8007FF555ADDDF858551A9801351799072D25
:102FE800044470603160CDF85C45CDF8585500F365
:102FF800068508360F9A571E002F7FF740AD102F11
:10300800DDF8585540F3F985DFF80C8523464FF075
:1030180010094446DDF8308002E0103F102F92DDA1
:103028000135103386E810020836072DCDF85855BB
:10303800CDF85C35F1DD0DF5AA620DF59C664046CC
:10304800514604320C3604F0D1F900287FF4B3ABB2
:10305800DDF85C35DDF85855DFE7002A40F0D98007
:10306800099CE10740F165811F9C30238DF8533599
:103078000E940DF5AA6403341294BBE511980A99CD
:10308800471A002F7FF7A1AC102FDDF85855D8BF8D
:10309800DFF884842CDDDFF8808423464FF01009A4
:1030A8004446DDF8308002E0103F102F1EDD013568
:1030B800103386E810020836072DCDF85855CDF89C
:1030C8005C35F1DD0DF5AA620DF59C66404651466A
:1030D80004320C3604F08AF900287FF46CAB103FF8
:1030E800DDF85C35102FDDF85855E0DCA0461C46AD
:1030F8000135E419072DC6F800807760CDF85855DA
:10310800CDF85C4500F38A8208365EE40F9BDDF853
:103118005855012B40F313820135129901340123CC
:10312800072D73603160CDF85C45CDF8585500F334
:103138002982083601351A9B179A072D1C44CDF8A9
:10314800585573603260CDF85C4500F32D8208361F
:103158001B98002200231C99FDF7ACFC002840F0C6
:1031680017810F9801351299431ECDF858554A1CFE
:10317800072D1C4486E80C00CDF85C452BDC08368E
:1031880001351E98072D0DF5AC630444336070605B
:10319800CDF85C45CDF858557FF770AC0DF5AA62AF
:1031A8000C985146043204F021F900287FF403AB4F
:1031B8000DF59C66DDF85C450C3660E4A0461C46BF
:1031C8000135E419072DC6F800807760CDF8585509
:1031D800CDF85C45D3DD0DF5AA620C985146043252
:1031E80004F004F900287FF4E6AA0DF59C66DDF8E2
:1031F8005C450C36DDF85855C2E70DF5AA620C9807
:103208005146043204F0F2F800283FF495ACFFF779
:10321800D2BA0DF5AA640E9304341294EAE40DF5BB
:10322800AA620C985146043204F0E0F800287FF4B2
:10323800C2AA0DF59C66DDF85C450C360BE40DF56D
:10324800AA620C985146043204F0D0F800287FF4A2
:10325800B2AA0DF59C66DDF85C450C36FFF79DBB00
:103268000DF5AA620C985146043204F0BFF8002804
:103278007FF4A1AA0DF59C66DDF85C450C36FFF7D6
:10328800A0BBDDF86875002F40F31E830F9F1999C6
:10329800129A8F42A8BF0F460F9B002F1A440E9216
:1032A8000EDDDDF85855E419129B01357760072DBE
:1032B800CDF85C453360CDF8585500F3DE83083609
:1032C800199827EAE777C71B002F40F3CE80102F05
:1032D800DDF85855D8BFDFF8408240F3C082DFF8E8
:1032E800388223464FF010094446DDF8308003E069
:1032F800103F102F40F3B1820135103386E81002D9
:103308000836072DCDF85855CDF85C35F0DD0DF5AC
:10331800AA620DF59C664046514604320C3604F00C
:1033280065F800287FF447AADDF85C35DDF85855C4
:10333800DEE70DF5AA640E92043412945AE4DDF81F
:1033480060900332B44604F00F01230943EA057381
:103358002E0919F8010011461C463546013A087035
:1033680054EA0500EFD1089B664612915B1A0E934A
:1033780040E40A2C75F1000080F028811F99303450
:103388008DF853450DF5AA64033412940E9131E477
:103398000F9A571E002F7FF7F3AE102FDFF87881B2
:1033A8007FF70EAF23464FF010094446DDF8308012
:1033B80003E0103F102F7FF701AF0135103386E887
:1033C80010020836072DCDF85855CDF85C35F0DDDC
:1033D8000DF5AA620DF59C664046514604320C363E
:1033E80004F004F800287FF4E6A9DDF85C35DDF880
:1033F8005855DEE7109C2368043410941A461C467E
:10340800DD172B466FE4109C0025236804341094C4
:103418001C462BE4109C01222368043410941C469B
:10342800003318BF01230025FFF7ADBB109C2368AC
:10343800043410941C46003318BF01230025FFF7FD
:10344800A2BB0C9CD4F808A0FFF75BB80DF5AA62E4
:103458000C985146043203F0C9FF00287FF4ABA949
:103468000DF59C66DDF85C450C36DDF868350F997E
:103478008B4253DB099AD10750D4129819994218F4
:103488000F980E99C31A8F1ABB42B8BF1F46002F58
:103498000DDDDDF85855E419326001357760072DE8
:1034A800CDF85C45CDF8585500F31883083627EA5F
:1034B800E777DF1B002F7FF7E2AA102FDDF85855BA
:1034C80040F39B83DFF8508023464FF010094446B1
:1034D800DDF8308003E0103F102F7FF734AD013561
:1034E800103386E810020836072DCDF85855CDF868
:1034F8005C35F0DD0DF5AA620DF59C664046514637
:1035080004320C3603F072FF00287FF454A9DDF86A
:103518005C35DDF85855DEE7A0C40108DDF85855DC
:103528001A9801351799072D044470603160CDF859
:103538005C45CDF8585500F3BF8208369DE70998D9
:10354800C2073FF5E9AD129B01350134CDF8585556
:10355800CDF85C4533600123072D73607FF70FAE0C
:103568000DF5AA620C985146043203F03FFF00287B
:103578007FF421A90DF59C66DDF85C450C36DDF875
:103588005855FDE50DF5AA620C985146043203F032
:103598002DFF00287FF40FA90DF59C66DDF85C452A
:1035A8000C36DDF85855C5E50DF5AA620C9851465C
:1035B800043203F01BFF00287FF4FDA80DF59C667C
:1035C800DDF85C450C36DDF85855C1E50DF5AA69FE
:1035D800CDF828B009F10309B346204629460A2246
:1035E800002305F07FFD4E4620462946002309F1B9
:1035F800FF3902F130040A22347005F073FD0446E5
:103608000D4654EA0500E8D112965E46DDF828B06A
:10361800089C129BE31A0E93FFF7ECBA0DF5AA6209
:103628000C985146043203F0E1FE00287FF4C3A849
:103638000DF59C66DDF85C450C36FFF7C6B9302BF6
:10364800E6D0089B941E12941B1B0E93302302F89D
:10365800023CFFF7CFBA644265EB45054FF02D08F1
:1036680054EA05028DF877850CBF00230123012257
:10367800FFF78DBA1C9902F079FF002800F07E81CF
:103688007A1C169C00F0A082A4F16700434243EB29
:103698000003472C08BF43F00103994623B14FF0BC
:1036A80001090FB90127B9461C9B099C002B44F45A
:1036B80080740994C0F28382DDF87080002413942A
:1036C800169C3D46A4F166014C4244EB01040E945D
:1036D800A446169C0323462C08BF4CF0010CBCF1F1
:1036E800000F0DD1A4F16502534243EB0203452CB0
:1036F80008BF43F00103002B00F072827D1C0223F7
:103708001B980DF5AD61CDF82C8000930A90DDE98A
:103718000A2302910DF5AC610C980C31CDF818C054
:1037280003910DF5AE610195049100F005FC169C1E
:10373800DDF818C0B4F1670318BF0123472C0CBF8C
:10374800002303F0010312902BB9099CE30758BF2B
:10375800DDF8704516D512984419BCF1000F06D053
:103768000378302B00F03D81DDF8685564191B980B
:10377800002200234146FDF79DF9002800F0ED8165
:10378800CDF870451299641A0F94B9F1000F00F042
:10379800CA81DDF86835DC1C02DB9F4280F2CD81EE
:1037A800169C023C1694013B169C002BCDF86835FC
:1037B8008DF86045C0F247822B228DF86125092BD0
:1037C80040F311820DF590651D9F0B35294687FB47
:1037D8000320DA170C46C2EBA00202EB8200A3EB2F
:1037E800400013463030092A01F8010DEFDC22466B
:1037F8003033194602F8023D954240F266820DF5D3
:10380800AC630DF5906002330A3001E012F8011F35
:10381800824203F8011B1946F8D10F9C0DF5AC63E1
:10382800CB1A1E93012C23440E9340F301820E9B66
:103838000024199401330E9323EAE3740A94139C29
:103848009DF87785002C3FF435A84FF02D0800230C
:103858008DF877851393FFF730B8A0461C460135DD
:10386800E419072DC6F800807760CDF85855CDF8D3
:103878005C453FF7EBAD0836F7E5099CE7060AD447
:10388800099C640607D5109C2368043410940D9C89
:103898001C80FEF774BE109C2368043410940D9CA1
:1038A8001C60FEF76CBE0DF5AA620C9851460432F6
:1038B80003F09CFD00287EF47EAF0DF59C66DDF8D4
:1038C8005C450C36FFF77DBBDDF8585541F218739F
:1038D800C0F60203336001350123072D1C447360D1
:1038E800CDF85855CDF85C4569DC08362FB90F9BE3
:1038F8001BB90998C0077FF5C2A8DDF858551A9971
:103908000135179A072D0C4471603260CDF85C457B
:10391800CDF8585500F33F8108367F42002F40F319
:103928009080102FDFF8AC8340F3B98023464FF026
:1039380010094446DDF8308003E0103F102F40F3B3
:10394800AC800135103386E810020836072DCDF813
:103958005855CDF85C35F0DD0DF5AA624046514664
:10396800043203F043FD0DF59C660C3600287EF406
:1039780022AFDDF85C35DDF85855DEE7032441F267
:10398800E46241F2E0630A94169CC0F60202C0F6B3
:1039980002031390472CD8BF1A46099C129224F0B0
:1039A80080049DF877850994032419900E94FEF7F6
:1039B80081BF4FF02D088DF87785FEF762BF0DF5B2
:1039C800AA620C985146043203F010FD00287EF4D8
:1039D800F2AE0DF59C66DDF868750C36DDF85C45D1
:1039E80084E71B98002200234146FDF763F800286E
:1039F8007FF4BAAEC5F10105CDF86855B6E60DF508
:103A0800AA620C985146043203F0F0FC00287EF4B8
:103A1800D2AE0DF59C66DDF85C450C36FFF7EABAC8
:103A28000DF5AA620C985146043203F0DFFC002819
:103A38007EF4C1AE0DF59C66DDF85C45DDF85855A1
:103A48000C3601350F98129B072D0444CDF85855B4
:103A580070603360CDF85C457FF710A8FFF781BA36
:103A68001394FDF74BFA139B9DF87785199320EA79
:103A7800E0740E900A94FEF71DBF0DF5AA620C982B
:103A88005146043203F0B2FC00287EF494AE0DF5E2
:103A98009C66DDF85C450C3612E4A0461C460135F0
:103AA800E419072DC6F800807760CDF85855CDF891
:103AB8005C45B5DC0836C4E70DF5AA620C9851469A
:103AC800043203F093FC00287EF475AE0DF59C6675
:103AD800DDF868350C36DDF85C45CEE40DF5AA62F4
:103AE8000C985146043203F081FC00287EF463AE42
:103AF800DDF868350DF59C660F9A0C36DDF85C45E7
:103B0800D31AD4E4062F28BF0627984627EAE77475
:103B18000A9441F210740E97C0F602041393199395
:103B28001294FEF7C7BE169C652C40F39F800E9C2E
:103B3800DDF86835002C40F08B800F9C9C4260DCDF
:103B4800099CE2076CD55C1C0E94672416940E9CA5
:103B5800199324EAE4740A9471E6DDF870359C42FE
:103B680098BF1C467FF60EAE302203F8012BA34205
:103B7800CDF87035F9D105E64FF0FF340D94FEF716
:103B880023BE27EAE77413900A949DF877850E9769
:103B98001990FEF78FBE0DF5AA620C9851460432B3
:103BA80003F024FC00287EF406AE0DF59C66DDF8D3
:103BB80068750C36DDF85C45DDF85855ADE62D2402
:103BC80003F1004813947BE5A4F14705D5F10009FA
:103BD80049EB05090627672C08BF49F0010963E589
:103BE8003D4602238CE50DF5AC61303330220431BB
:103BF8008DF862258DF863350FE6DFF8D880FFF77A
:103C0800A4B9002B0F9CD4BFC3F1020201221219E0
:103C1800199367240E92169422EAE2740A940EE627
:103C280023EAE3740E930A9467241993169406E61C
:103C3800099C14F001037FF4FAAD0E9C199324EA51
:103C4800E4740A94FBE52D225B428DF86125B6E504
:103C5800002B18DD6FB9099CE0070AD423EAE37446
:103C68000E930A94662419931694E8E5DDF86835EE
:103C780099E501376624DF1916940E9727EAE77449
:103C880019930A94DBE517B9099CE10715D50237A2
:103C980066240E97169427EAE77419930A94CEE5DA
:103CA800109C9BF801208B46201D10902768002F40
:103CB800B8BF4FF0FF37FEF7A5BC012419930A944B
:103CC8006624169401240E94B9E50DF5AC61023111
:103CD800A3E500BFA0C4010830B440F20404C2F256
:103CE80000040D46134601462A46206830BCFEF7FC
:103CF800DBBB00BF70B540F20405C2F20005064602
:103D08000C46286810B18369002B51D04CF2F0435F
:103D1800C0F601039C4253D04CF2D043C0F60103D5
:103D28009C425CD04CF2B043C0F601039C4204BFF5
:103D38002B68DC68A28993B2190748BF21691DD492
:103D4800D8064FD5590758BF216913D5616B49B1BA
:103D580004F14403994203D0304601F091FAA28954
:103D68000023636322F024022169002363601204A4
:103D78002160120C42F00803A3819BB219B313F01F
:103D8800010207D063690022A2605B42A36139B1D6
:103D9800002070BD9B0758BF6269A2600029F7D157
:103DA800A38913F0800F14BF4FF0FF30002070BDBF
:103DB80001F078F94CF2F043C0F601039C42ABD114
:103DC8002B685C68B6E703F42072B2F5007FD6D0A2
:103DD8002146304601F0BEFBA3892169CFE72B6855
:103DE8009C68A7E74FF0FF3070BD00BF00000000DF
:103DF8000A6903692DE9F04F9A4283B080468946E3
:103E0800009200F396800332009B01F114059200A2
:103E18005C1E00F1140301938B1882181F1D59684A
:103E28005068013104F0F8FF0646002842D000200F
:103E3800019A2B46864653F804CB11681FFA8CFB6F
:103E48004FEA1C4C1FFA81FA06FB0B0BD64406FB03
:103E58000CF000EB1B401FFA8BFBCBEB0E0A1FFA92
:103E680080FE000CCEEB114E9F420EEB2A4E1FFA3D
:103E78008AFC4CEA0E414FEA2E4E42F8041BDAD275
:103E8800221D08EB82035968A1B9019898420FD204
:103E980058F8222062B9009A911EC243D218A1EBA9
:103EA800920102E053F8042D12B9013C8C42F9D179
:103EB800C8F810404046494602F054F9002834DB5F
:103EC800019B01364FF0000C55F8040B19681FFAD6
:103ED80080F9000C8AB2C0EB1141C9EB0202AF4273
:103EE800944401EB2C421FFA8CFC4CEA02414FEA45
:103EF800224C43F8041BE7D2221D08EB82035968C1
:103F080099B9019898420ED258F822205AB9C1435B
:103F1800C91821F00301591A02E053F8042D12B907
:103F2800013C8B42F9D1C8F81040304603B0BDE8D7
:103F3800F08F0020FAE700BF2DE9F04F9FB0456AE7
:103F4800064692469B462B9C002D00F0E2822B6889
:103F580053B16A680125194695409D605A6001F081
:103F6800B7FE736A00221A60BBF10005C0F2E88050
:103F78000023236000231A46C7F6F073C7F6F072D1
:103F88002B40934200F0C780002200235046594638
:103F9800D046D9460124FCF78DFD88B914F0FF0FEF
:103FA80012D12A9D41F218702C9C0123C0F6020000
:103FB8002B6014B1804B581E23601FB0BDE8F08FF2
:103FC800002414F0FF0FECD0304642464B461DA9A2
:103FD80000911CA9019102F0CDF9C5F30A540C9087
:103FE800002C40F0C5801C9F6FF482631D9C3C1917
:103FF8009C42C0F2A8824FF60E4304F58262CFF6C7
:10400800FF7302321B1B2AFA02F215FA03F343EA82
:104018000200FCF771FA013C012517950B46024690
:10402800CDE90823099BA3F1F87309930023002223
:10403800C3F6F873DDE90801FCF720F958A3D3E9C2
:104048000023FCF7CFFA58A3D3E90023FCF718F9AB
:10405800804620468946FCF75FFA55A3D3E900233A
:10406800FCF7C0FA02460B4640464946FCF708F9F9
:104078008046894605F00EF849460022002307903D
:104088004046FCF721FD50B10798FCF745FA424637
:104098004B46FCF70FFD10B9079D013D0795079D9D
:1040A800162D00F266814CF228515246C0F60101E5
:1040B8005B4601EBC501D1E90001FCF723FD0028AF
:1040C80000F03E82079D013D0795002515953C1B94
:1040D800013C00F1308200250B940E95079C002CC2
:1040E800C0F220820B9D14942D1900240B95129474
:1040F800289D092D62D8052D40F38E86043D28950C
:104108000025289CA31E032B5AD8DFE813F0BC0314
:10411800A8036502B9032A9C41F2287042F20F7382
:10412800C0F602002360BAF1000F0FD02C9D002DBD
:104138003FF443AFC378C3B9C31C2C9C23603CE74E
:1041480025F000450123AB46236013E741F21C72BA
:1041580041F22873C5F31300C0F60202C0F6020349
:1041680000280CBF10461846E0E700F10803E4E712
:1041780049464046CDE90801A4F57E740999002511
:10418800073C1C9F21F07F43179523F4700343F0ED
:104198007E5343F4E003099348E700BFAFF3008080
:1041A80061436F63A787D23FB3C8608B288AC63F35
:1041B800FB799F501344D33F191702080024289411
:1041C800746A0023194630464FF0FF35299363601F
:1041D80010950D9501F048FD736A0125139520602F
:1041E8001B680F931D9B079DDC43E40F0E2DCCBF6E
:1041F800002404F00104002C00F0BE80299C4CF23D
:104208002853C0F60103E50F0D9C002CCCBF0025F8
:1042180005F00105079C03EBC403D3E90001CDE9D0
:104228000401002D40F0BC8102460B465046594619
:10423800FCF702FB0F9C04F02DFF8046FCF76CF99D
:10424800DDE90423FCF7CEF90B46024659465046F1
:10425800FCF714F808F1300304F8013BA146119467
:104268000D9C012C82468B464BD000230022C4F2C1
:1042780024030124FCF7B6F90022002382468B466A
:10428800FCF718FC00B12C4614F0FF0F00F02D814C
:104298000F9D0D98119C2B180A961F460DE0FCF7F0
:1042A800A1F90022002382468B46FCF703FC00B1EB
:1042B800002616F0FF0F00F0E984DDE904235046DC
:1042C80059460126FCF7B8FA04F0E4FE8046FCF7EC
:1042D80023F9DDE9042308F13005FCF783F90246E8
:1042E8000B4650465946FBF7C9FF002304F8015B0B
:1042F8000022BC42C4F22403A14682468B46CED19A
:104308000A9E52465B4650465946FBF7B9FF04469B
:104318000D462246DDE904012B46FCF7D5FB60B9C2
:10432800DDE9040122462B46FCF7C4FB002800F017
:10433800DC8018F0010F00F0D880079D19F8014CB7
:104348001A954B46119A02E013F8024C013B392C9E
:10435800994640F0D3849342F6D1119D30231A9C9C
:1043680005F8013C2B4601340794312403F8014C2D
:10437800BBE001251595AAE6139D002D40F0EB80C2
:10438800139B129C0E9D0893002D0B98D4BF0023FD
:1043980001230028D4BF002303F001034BB10346D7
:1043A8000E99AB42A8BF2B46ED1AC91AC01A0E9136
:1043B8000B90129A002A1ADD139B002B00F06884D8
:1043C800002C10DD08992246304601F01DFE0C9A9B
:1043D80008903046089901F079FD0C990746304657
:1043E80001F076FC0C971298021B40F074840121AE
:1043F800304601F061FD14990029044605DD214687
:104408003046149A01F000FE0446289A012A40F327
:104418003D82002714990123002940F0B6830B9AA6
:104428009B1813F01F0300F0FB82C3F12002042A3B
:1044380040F3ED84C3F11C030E980B99ED18C018D6
:104448000E90C9180B910E99002905DD30460C997C
:104458000E9A01F029FE0C900B9A002A04DD2146E1
:10446800304601F021FE0446159B002B40F0968350
:1044780028980D990228D4BF002301230029CCBF16
:10448800002303F00103002B00F04D82002940F0C7
:104498009C80214605220D9B304601F035FC0446E0
:1044A8000C98214601F05EFE002840F38E80079D9F
:1044B8003123DDF83C9001350795002509F8013BCB
:1044C8002146304601F004FC089C74B12B1C18BF2F
:1044D8000123A5420CBF002303F00103002B40F089
:1044E8009A823046089901F0F3FB30460C9901F0A6
:1044F800EFFB079D2A9C00226B1C2C9D89F800204D
:104508000F982360002D3FF458ADC5F800900F9820
:1045180053E5102001F092F87062456085600560EF
:10452800C56021E5079C0E9D2D1B0E956542002454
:1045380012951494DCE564420E9400240B94CDE5A6
:1045480000251595C3E54FF6EE32CFF6FF72121B24
:104558000AFA02F05DE5289D012D40F3C6830D9D02
:104568006B1E129D9D42AFBFC3EB0504129D1293B3
:10457800C5EB0302BEBF149DAD1814950D9D002D0B
:10458800C0F2C6830E9D0D9B0E9A30460121D218AB
:104598000E920B9AD2180B9201F08EFC0890F3E65B
:1045A8000D9D002D40F09E8300230022C4F21403C9
:1045B800DDE90401FCF716F852465B46FCF798FA69
:1045C8000D9C089400283FF472AF299DDDF83C90BB
:1045D800ED430795002573E701241394299C002CCB
:1045E80040F3FE8220460E2C8CBF002505F0010505
:1045F80010940D94746A00231728636009D9012266
:1046080004235B00174603F1140101328142F8D9F3
:1046180067603046616801F027FB736A20601B6899
:104628000F93002D3FF4DEAD079C52465B46CDE963
:104638000823002C40F3138204F00F024CF2285395
:10464800C0F60103241103EBC2030227E106D3E9F4
:1046580000890ED54CF218635046C0F6010359463E
:1046680004F00F040327D3E90823FCF7E5F8824692
:104678008B468CB14CF21865C0F60105E20740463E
:10468800494606D5D5E900230137FBF7ABFF80463D
:10469800894608356410F1D15046594642464B4682
:1046A800FCF7CAF882468B46159C002C00F008815E
:1046B8000023504659460022C3F6F0730124FCF744
:1046C80003FA00B900240D9D002DD4BF002404F086
:1046D8000104002C00F0F480109C002C40F3AA8107
:1046E80000230022C4F2240350465946FBF77AFF00
:1046F800079D013D1A958246781C8B46FBF70CFFF7
:1047080002460B4650465946FBF76CFF0023002231
:10471800C4F21C03FBF7B4FDDDF840C08046A1F1EC
:104728005079139D002D00F0C6814CF228530F9C40
:10473800C0F60103002103EBCC030020C3F6E071AF
:10474800CDF80CC053E902231194FCF775F84B46D9
:104758004246FBF793FDCDE918015946504604F04F
:1047680099FC0446FBF7D8FE3034E4B202460B4607
:1047780050465946FBF782FD119D05F8014BA946A5
:10478800119582468B465246DDE918015B46FCF7D7
:10479800B9F9002840F02C83002152465B460020DE
:1047A800C3F6F071FBF76AFD02460B46DDE9180116
:1047B800FCF7A8F9DDF80CC000287FF4C2ADBCF105
:1047C800010F40F337810F9C1B9604EB0C07119DDA
:1047D8001697DDE9186710E000210020C3F6F07194
:1047E800FBF74CFD32463B46FCF76EF9002840F0DB
:1047F8008C82169CA54200F01C8100230022C4F282
:10480800240330463946FBF7EDFE00230022C4F2AC
:10481800240306460F4650465946FBF7E3FE8946F1
:10482800804604F037FC0446FBF776FE3034E4B2E9
:1048380002460B4640464946FBF720FD32463B46BA
:1048480005F8014BA94682468B46FCF73DF95246CE
:104858005B460028C0D01A9C1B9E079445E600249E
:1048680013940798299C24181094601C002840F37E
:10487800AD810E288CBF002505F001050D90B9E625
:1048880001241394EDE700241394A7E6BAF1000F6E
:104898007FF4BFADCBF313035746002B7FF4BAADBB
:1048A800C7F6F0730BEA03031F46002B3FF4B2ADC3
:1048B8000E9B01270B9801330E9301300B90A9E54D
:1048C8003846FBF729FE52465B46FBF78BFE002372
:1048D8000022C4F21C03FBF7D3FC0D9DA1F1507418
:1048E8008046A146002D40F0B58000230022C4F286
:1048F800140350465946FBF7C1FC424623468246FC
:104908008B46FCF7FFF8002840F03C8142465046B1
:10491800594604F10043FCF7D7F8002800F08A80D4
:104928000D9C089451E61398002800F05E81002D34
:1049380005DD304608992A4601F0B6FB0890DDF8F7
:104948002080002F40F00B820F9D01230B941F46FF
:104958000C9C0AEA03000A95089D0E900B992046C4
:10496800FFF746FA29464FF0010B0890204601F060
:10497800F9FB089B0B99424630330C93814630462D
:1049880001F010FCC3688246002B3ED030465146E9
:1049980001F09EF928985BEA000003D10E990029DE
:1049A80000F01982B9F1000FC0F2B681289859EACF
:1049B800000003D10E99002900F0AE81BBF1000F71
:1049C80000F3F2810D990A980C9B8F4200F8013B85
:1049D80081460A9000F0E28121460A2200233046EF
:1049E80001F092F9454504462AD029460A220023B7
:1049F800304601F089F941460A220023013705466D
:104A0800304601F081F98046A8E72046514601F07A
:104A1800A9FB8346BAE73046294601F059F960E513
:104A28001C230E9AED180B98D2180E92C0180B90F2
:104A380009E51B9EDDE9080182468B46FFF7D2BBDC
:104A4800294630460A22002301F05EF9013705465F
:104A5800804683E7079CDDF834C01A9461E6079D19
:104A68006C42002C00F0108104F00F024CF2285325
:104A7800C0F60103504603EBC2035946D3E90023AD
:104A8800FBF7B0FD241182468B4600F0FD804CF206
:104A980018650227C0F60105E3075046594606D5B2
:104AA800D5E900230137FBF79DFD82468B46083583
:104AB8006410F1D1F8E50CF1FF354CF22851C0F63D
:104AC80001010F9C01EBC5014B464246CDF80CC0D5
:104AD800D1E9000116951194FBF784FDCDE9180181
:104AE8005946504604F0D6FA0446FBF715FD0B4626
:104AF800024659465046FBF7C1FB119D04F13003AD
:104B080005F8013BA946DDF80CC01195BCF1010F71
:104B180082468B4621D00F9D6F1E2C46674400238A
:104B28000022C4F22403FBF75DFD8946804604F0A9
:104B3800B1FA0546FBF7F0FC303502460B46404615
:104B48004946FBF79BFB04F8015FBC42E7D1119C87
:104B58008246169D8B4604EB050900230022C3F606
:104B6800E073DDE91801FBF78BFB02460B46504664
:104B78005946FBF7C7FF002800F0928019F8014C4E
:104B8800FFF7DFBB0D9C089491E4236904EB8303D2
:104B9800186901F045F9C0F1200340E40C9821465A
:104BA80001F0E0FA0028BFF663AC0C9930460A22FF
:104BB800002301F0A9F813990C9007980138079081
:104BC800002940F01981109B0D9351E40E280D9097
:104BD8008CBF00230123746A1D400023636018E51D
:104BE800012310930D932993F5E7139DDDF834A065
:104BF800DDF83080DDF83C9002E001F085F8804671
:104C080021464046FFF7F4F80A220023414600F106
:104C1800300709F8057001353046AA45EDDC0D9DD1
:104C2800DDF83C90CDF83080012DACBFA94409F1E6
:104C380001091D4601220C99304601F035FA21463A
:104C48000C9001F08FFA002814DD19F8012C0F9848
:104C58004B46411C02E013F8022C013B392A9946C5
:104C680078D18B42F7D10798312301F8013C013004
:104C7800079025E401D1FB07E7D44B46994613F882
:104C8800012D302AFAD01BE402270DE50A9E2CE4F8
:104C980030460C99129A01F0B7F90C90FFF7A7BBB0
:104CA8000021DDE918230020C3F6E071FBF7E6FADE
:104CB80002460B4650465946FBF706FF00283FF4CC
:104CC800B9AE4B469946013B19F8012C302AF9D068
:104CD8001A9C079409E430460C9901F095F90C9058
:104CE800FFF785BB002408946FE4179C002C4ED076
:104CF80003F58663129C03330E9D45E41A9D013427
:104D080003F8014C0795FFF7F0BB1B9EFFF719BB93
:104D18000E980023451B37E4BBF1000F0C9F0C9441
:104D28000B9C0FDD01220C99304601F0BDF921469C
:104D38000C9001F017FA002856DD392F42D0089B55
:104D480003F13107DDF82890CDF8208009F8017BC0
:104D5800FFF7B6BB013203F8012CFFF7B1BB089D82
:104D68003046696800F080FF089B03F10C01054696
:104D78000898026905F10C0002329200FBF7FAFE6E
:104D880030462946012201F08FF98046DCE51C9B5C
:104D9800129C0E9DC3F13603FFF7F6BB0C9FCDF8AE
:104DA80020800C940B9C45E70C9F0C94392F0B9C8E
:104DB80008D0DDF828900137CDF8208009F8017B6C
:104DC800FFF77EBBDDF828903923CDF820801A46FE
:104DD80009F8013B3BE70C9F0C94392F0B9CF1D051
:104DE800B9F1000FABDCADE7ACD1FA07AAD5A4E75F
:104DF8001A9D0795FFF779BB0A22304608990023C8
:104E080000F082FF109A0D920890FFF731BB3FF433
:104E18001AABC3F13C0304E60125FFF772B900BFE2
:104E28002DE9F0410C460E698046002E49D018B194
:104E38008369002B00F089804CF2F043C0F601032F
:104E48009C4208BFD8F8044010D04CF2D043C0F6BA
:104E580001039C4208BFD8F8084007D04CF2B04381
:104E6800C0F601039C4208BFD8F80C40A689002E62
:104E780027D033B213F0080026D026690EB39B075B
:104E88002568266008BF6369C6EB050518BF0023BF
:104E9800002DA36002DC97E0002D6FDD32462B4623
:104EA800A76A4046216AB8470028C0EB05050644B2
:104EB800F2DCA3894FF0FF3043F04003A381BDE843
:104EC800F0813046BDE8F081626846F40063A38152
:104ED800002A56DDE66A002EF3D09BB2002213F4B6
:104EE8008057D8F80050C8F8002018BF626D2FD03E
:104EF800590705D56168636B521A0BB1236CD21A36
:104F080000234046216AB047431C2CD0A3890021C6
:104F1800226923F4006361601B0422601B0CA381D7
:104F2800D90402D5421C31D06065616BC8F80050C5
:104F3800002931D004F14403994202D0404600F0E0
:104F48009FF900206063BDE8F08100F0ABF873E7DB
:104F58003A4601234046216AB047431C02461ED008
:104F6800A389E66AC4E7D8F800301D2BA1D84FF40E
:104F78000172C8F200029A40C8D49AE70020BDE83E
:104F8800F081226C002AA5DCBDE8F081D8F8003059
:104F9800002BCAD16065C8E70846BDE8F081D8F89B
:104FA8000030002BDCD0A3F11D0CDCF1000141EB3B
:104FB8000C01162B14BF0B4641F0010333B1C8F89E
:104FC80000503846BDE8F0810020DDE7A38943F0B2
:104FD8004003A381BDE8F08138B140F204030146E3
:104FE800C2F200031868FFF71BBF4CF2105344F6D7
:104FF8002961C0F60103C0F60001186800F02EBA56
:10500800002070470020704748F27521C0F6000163
:1050180000F0FEB910B5044600235C30A1811946A2
:10502800E281082223606360A36063662361636191
:10503800A361FBF717FE46F22D6046F2556146F272
:105048008D6246F2B163C0F60000C0F60001C0F6FA
:105058000002C0F6000324626062A162E262236378
:1050680010BD00BF70B568250E4605FB01F505F1BA
:105078000C0100F0F3FA044648B100F10C030021DA
:1050880046602A4618462160A360FBF7EBFD2046E0
:1050980070BD00BF4CF21053C0F601031868FFF74B
:1050A800B3BF00BF70B50446866906B170BD45F24E
:1050B80011030125C0F6000385618362C0F8D8603A
:1050C800C0F8DC60C0F8E06000F01AF860602046C4
:1050D80000F016F8A060204600F012F804213246CD
:1050E800E0606068FFF796FFA06809212A46FFF78D
:1050F80091FFE06812210222BDE87040FFF78ABFE5
:105108004CF21053C0F6010370B506461D68AB6932
:10511800002B33D0D8356B68A968013B11D4B1F99D
:105128000C200C468AB101F1680002E032F95C2CCF
:105138005AB1013B6834B3F1FF3FC1EB04020244AA
:10514800F4D12868F0B10546E5E700254FF0FF33B4
:10515800656604F15C00E381294601232560A3818B
:105168000822A560656025616561A561FBF77AFD88
:105178006563A563A564E564204670BD2846FFF70E
:1051880091FFC7E730460421FFF76CFF286000282D
:10519800D9D10C2304463360EEE700BF704700BF47
:1051A800704700BF704700BF704700BF40F204035C
:1051B80045F20901C2F20003C0F60001186800F0C8
:1051C80027B900BF40F2040345F20D01C2F2000303
:1051D800C0F60001186800F01BB900BFF8B540F22E
:1051E8007414C2F200040F46054600F039FDA368A6
:1051F80028465E6826F0030606F57E630F33DF1B3C
:105208003F0B013F3F03B7F5805F07DB002101F04B
:10521800F5F9A3689B199842284603D000F022FDAF
:105228000020F8BD794201F0E9F9013010D040F2D0
:105238006463A168C2F20003F61B284646F0010623
:105248001A684E60D71B1F6000F00CFD0120F8BDE6
:105258000021284601F0D2F9A368C21A0F2A0DDDF1
:1052680040F27C5440F26461C2F20004C2F20001D0
:1052780042F001025A602368C01A08602846CDE748
:10528800F8B50D460446002975D000F0E9FC55F83C
:10529800046C40F27410A5F10801C2F2000026F077
:1052A8000103CA18D0F808C05768944527F00307C7
:1052B8007ED016F0010657604DD00026D5196D68CE
:1052C80015F0010F06D1DB199568002E64D0D2685D
:1052D800EA60956043F00102CB504A60002E35D158
:1052E800B3F5007F48D39E095A0A3836F500042AD8
:1052F80016D902F15B06F500142A11D91E0B6E3679
:10530800F500542A0CD9DE0B7736F500B2F5AA7FE2
:1053180006D940F25455AA4274D89E0C7C36F50042
:10532800401940F27415C2F200058268824203D126
:105338005FE09268904204D0556825F00305AB42BF
:10534800F7D3D368CB608A60D16099602046BDE806
:10535800F84000F087BC55F8085C00F1080C491BC0
:105368005B198D68654542D0D1F80CC0C5F80CC0F2
:10537800CCF80850A2E7F8BDDB080125466800EB29
:10538800C3029B1015FA03F3CA6095683343436060
:105398008D60E9609160D9E71C4FBD4297D14161AA
:1053A80043F001020161CD608D604A60CB50CDE7CA
:1053B800F2073B4407D455F8082C891A9B188D68C6
:1053C800CA68EA60956040F2805243F00105C2F273
:1053D80000024D60816012689342B7D340F2606367
:1053E8002046C2F200031968FFF7F8FEAEE701266F
:1053F80064E701276868B610134617FA06F63043C3
:1054080068609FE74FF47C757E2689E77C01002061
:105418002DE9F04106468846FFF7C0FED83608BF9A
:10542800374615D000277568B468013D0DD4B4F926
:105438000C30013D33B1B4F90E302046013301D0B0
:10544800C047074368346B1CF1D13668002EEAD197
:10545800FFF7A6FE3846BDE8F08100BF2DE9F84306
:1054680007468946FFF79AFE17F1D80608BFB046E7
:1054780018D04FF000087568B468013D0FD4B4F92E
:105488000C30013D43B1B4F90E30214638460133A2
:1054980002D0C84748EA000868346A1CEFD1366869
:1054A800002EE8D1FFF77CFE4046BDE8F88300BF38
:1054B80010B514463AB141F230711046C0F60201F7
:1054C80001F0F6F820B941F22C70C0F6020010BDC8
:1054D80041F22C712046C0F6020101F0E9F820B92A
:1054E80041F22C70C0F6020010BD41F2F86120466E
:1054F800C0F6020101F0DCF841F22C73C0F6020399
:1055080000280CBF1846002010BD00BF40F2F8006C
:10551800C2F20000704700BF40F2F803C2F2000375
:10552800186A7047004870471C0100200020704727
:10553800004870473C01002040F204030A46C2F2CA
:10554800000301461868FFF7B3BF00BF0048704763
:105558003C0100208B89F0B50C469AB291B012F04C
:10556800020F05463BD1B1F90E10002918DB01AA3C
:1055780002F022FF002811DB029B03F47043A3F51D
:1055880000514F4247EB0107B3F5004F3AD0A389CA
:105598004FF4806643F40063A3810BE0A3899AB2B9
:1055A80012F0800F43F4006314BF40264FF4806666
:1055B8000027A3812846314600F050F8002830D053
:1055C800A28945F21103C0F60003AB6242F08003E2
:1055D8002060A3812061666147B911B0F0BD01F177
:1055E80047030B600B6101234B61F6E72846B4F9CA
:1055F8000E1003F08BF80028EFD0A38943F00103C5
:10560800A381EAE746F28D63E26AC0F600039A4294
:10561800BDD1A2894FF480631E4623651343A3813D
:10562800C8E7A3899A05D8D404F1470243F00203D6
:105638002260A381012322616361CEE740F2040363
:105648000146C2F20003186800F008B840F20403EB
:105658000146C2F200031868FFF712BE2DE9F04FA9
:1056680001F10B04162C83B0064630D924F0070448
:10567800E30F8C422CBF194643F0010100292FD1BA
:10568800304600F0EDFAB4F5FC7F2DD24FEAD40E87
:1056980040F27415C2F2000505EBCE02D3689342BE
:1056A80000F022825C6803F10807DA68304624F0CB
:1056B800030499681B195C68CA6044F0010491608E
:1056C8005C6000F0CFFA384603B0BDE8F08F0023E5
:1056D80010248C422CBF194643F001010029CFD079
:1056E8000C2300273360EEE75FEA542E04BF4FEA2D
:1056F800D40E4FEACE0140F08B8040F27415C2F20E
:1057080000056918CF68B94206D10DE0002A80F279
:105718008081FF68B94207D07B6823F003031A1B16
:105728000F2AF3DD0EF1FF3E0EF1010E40F2741068
:105738002F69C2F2000000F10802974208BF4368CF
:1057480026D07B6823F0030CC4EB0C030F2B00F36B
:105758009B81002B4261026180F29480BCF5007F3E
:1057680080F072814FEADC0C4FF00108436800EBCF
:10577800CC014FEAAC0C08FA0CF8F960D1F808C073
:1057880048EA03034360C7F808C0CCF80C708F6080
:1057980001274FEAAE018F409F427ED83B4206D197
:1057A8002EF0030E7F000EF1040E3B42FAD005EBFB
:1057B800CE09F046CC46DCF80C00844507D174E1EC
:1057C800002B80F29B81C068844500F06E8141689F
:1057D80021F003010B1B0F2BF2DD07460119D0F84E
:1057E8000CE044F0010857F8084F43F0010CC0F8EA
:1057F80004803046C1F804C0C4F80CE0CEF8084074
:1058080069612961CA608A60CB5000F02BFA5AE7B7
:10581800BEF1040F9EBF4FEA941E0EF1380E4FEAF8
:10582800CE017FF66AAFBEF1140F9CBF0EF15B0E7E
:105838004FEACE017FF661AFBEF1540F9EBF4FEA2B
:10584800143E0EF16E0E4FEACE017FF656AFBEF54E
:10585800AA7F9EBF4FEAD43E0EF1770E4FEACE01E3
:105868007FF64BAF40F254539E4595BF4FEA944E96
:105878004FF47C710EF17C0E4FF07E0E98BF4FEA0C
:10588800CE013AE707EB0C03304608375A6842F076
:1058980001025A6000F0E6F915E7AF6840F27413A8
:1058A800C2F200037A6822F003084445C4EB0802F8
:1058B80094BF002101210F2AD8BF41F0010100291E
:1058C80000F0B58040F2606AD3F80824C2F2000AFA
:1058D8000132DAF80030234408BF03F1100B06D078
:1058E80003F580530F3323F47E6323F01F0B3046F8
:1058F800594600F083FE421C814600F0318107EBD7
:105908000803834200F20681DAF804204B455A4422
:10591800CAF8042000F03181D5F8080440F2741167
:10592800C2F200010130304617BFC3EB0903C1F8CA
:105938000894D218CAF8042019F007031FBFC3F14E
:105948000802C3F58053914403F1080209EB0B03E5
:1059580008BF4FF480521B051B0DC3EB020B5946C1
:1059680000F04CFE431C00F01D81C9EB00015944B6
:1059780041F00101DAF80420AF4240F26063C5F853
:1059880008905A44C2F20003C9F80410CAF8042067
:1059980019D0B8F10F0F40F2DD80A8F10C01D7F84B
:1059A80004C021F007014FF0050E78180F290CF0FC
:1059B800010C41EA0C0CC7F804C0C0F804E0C0F8B8
:1059C80008E000F2E68040F26063DAF82C10C2F2D8
:1059D8000003AF688A42DAF8301088BFDA6240F212
:1059E8006063C2F200038A4288BF1A637B6823F0AF
:1059F80003039C42C4EB030294BF002301230F2A34
:105A0800D8BF43F0010393B13046002700F02AF9CC
:105A180059E6FB18FA68B96830465C680837CA6006
:105A280044F0010491605C6000F01CF94BE63B19FE
:105A380042F0010244F0010430467C6008375A60A5
:105A4800AB6000F00FF93EE64FEA5C23042B5CD90B
:105A5800142B78D85B33D800281840F27418C2F297
:105A680000088168814203D160E08968884204D0D7
:105A78004B6823F003039C45F7D3C8686B68F8604C
:105A8800B960CF60876083E6391943F00105416149
:105A980044F00104016130467C600837CA608A60BE
:105AA8004D60CB5000F0DEF80DE608F101080CF16E
:105AB800080C18F0030F7FF47EAE4B461EF0030F60
:105AC800A3F108010EF1FF3E79D01B688B42F5D097
